:020000040800F2
:10C000002830002025C300082DC30008ABE5000838
:10C0100031C3000833C3000835C300080000000026
:10C020008F9E939B089996970201000039C20008E1
:10C0300039C3000864800108C1C2000811C30008A8
:10C040003FC300083FC300083FC300083FC30008C8
:10C050003FC300083FC300083FC300083FC30008B8
:10C060003FC300083FC300083FC300083FC30008A8
:10C070003FC300083FC300083FC300083FC3000898
:10C080003FC300083FC300083FC300083FC3000888
:10C09000291801083FC300083FC300083FC3000838
:10C0A0003FC300083FC300083FC300083FC3000868
:10C0B0003FC300083FC300083FC300083FC3000858
:10C0C0003FC300083FC300083FC300083FC3000848
:10C0D0003FC300083FC3000871F300083FC30008D6
:10C0E0003FC300083FC300083FC3000800F002F848
:10C0F00000F05AF80AA090E8000C82448344AAF1A8
:10C100000107DA4501D100F04FF8AFF2090EBAE8A5
:10C110000F0013F0010F18BFFB1A43F0010318477B
:10C12000F8D5000018D600000A444FF0000C10F8B3
:10C13000013B13F0070408BF10F8014B1D1108BFA5
:10C1400010F8015B641E05D010F8016B641E01F845
:10C15000016BF9D113F0080F1EBF10F8014BAD1C95
:10C160000C1B09D16D1E58BF01F801CBFAD505E0B3
:10C1700014F8016B01F8016B6D1EF9D59142D6D30D
:10C18000704700000023002400250026103A28BF35
:10C1900078C1FBD8520728BF30C148BF0B60704739
:10C1A0001FB51FBD10B510BD00F0DFFA114603B476
:10C1B00005F046FC03BCFFF7F3FF07F069FA00F057
:10C1C000F9FA03B4FFF7EEFF03BC00F0FDFA00003C
:10C1D00080F309887047EFF309807047684680F361
:10C1E000098804480078C00714BF0220032080F3A8
:10C1F000148870471C890108DFF818C0EFF3058325
:10C200001B0618BF6047EFF31483DB0708BF6047C6
:10C2100000DF704705470108DFF818C0EFF305831A
:10C220001B0618BF6047EFF31483DB0708BF6047A6
:10C2300000DF704711490108EFF30980816911F8A7
:10C24000021C39BB90E80F10E047EFF3098C194B43
:10C2500093E80600914218D059B10CB44FF0010395
:10C2600081F821302CE9F00FC1F824C008F0E4FD7A
:10C270000CBC1A60D2F824C0BCE8F00F92F8213050
:10C280008CF309881BB192F82000CCF800006FF005
:10C29000020E704710B5084A1268914209D8074C3F
:10C2A00054F8214090E80F10A047EFF3098C8CE878
:10C2B0000F0010BD20040020D8C70008D8C7000810
:10C2C00008F0A6FC114B93E8060091421BD00CB479
:10C2D0004FF0000381F82130EFF3098C2CE9F00FC7
:10C2E000C1F824C008F0A8FD0CBC1A60D2F824C024
:10C2F000BCE8F00F8CF3098892F821301BB192F85A
:10C300002030CCF800306FF0020E7047200400207F
:10C3100008F054FED6E7000007F03CFC08F04EFEA3
:10C32000D0E700000948804709480047FEE7FEE7DC
:10C33000FEE7FEE7FEE7FEE7FEE7FEE7FEE7FEE7D5
:10C3400004480549054A064B70470000A9EF00085C
:10C35000EDC00008282A002028300020282C0020CA
:10C36000282C002000487047C8290020B2F1200383
:10C370000AD5C2F1200320FA02F001FA03F321FAF0
:10C3800002F140EA0300704721FA03F04FF0000188
:10C39000704740EA010310B59B070FD1042A0DD363
:10C3A00010C808C9121F9C42F8D020BA19BA884296
:10C3B00001D9012010BD4FF0FF3010BD1AB1D307D5
:10C3C00003D0521C07E0002010BD10F8013B11F80B
:10C3D000014B1B1B07D110F8013B11F8014B1B1B34
:10C3E00001D1921EF1D1184610BD10B5431C02E0D8
:10C3F00010F8011B71B18107FAD14FF0013202C868
:10C400008C1A8C4314EAC211F9D0C01A0A0603D060
:10C41000C01E10BDC01A10BD0A0401D0801E10BD80
:10C420000902FCD0401E10BD40EA010370B59B0715
:10C430002ED14FF00136042A2AD308C810C99D1BFB
:10C440009D43121F15EAC61517D0D8B2E1B2401AA3
:10C4500050EA056110D198B2A1B2401A50EA0541E4
:10C460000AD123F07F4024F07F41401A50EA052191
:10C4700002D1180EA0EB146070BDA342DBD018BA35
:10C4800021BA884201D9012070BD4FF0FF3070BD44
:10C490000AB9002070BD10F8013B11F8014B63B1DF
:10C4A000A3420AD1521E08D010F8013B11F8014BEB
:10C4B0001BB1A34201D1521EEDD1181B70BD421E0B
:10C4C00012F8013F002BFBD111F8013B002B02F8C1
:10C4D000013BF9D17047032A40F2308010F0030C81
:10C4E00000F0158011F8013BBCF1020F624498BFC7
:10C4F00011F801CB00F8013B38BF11F8013BA2F164
:10C50000040298BF00F801CB38BF00F8013B11F0DE
:10C51000030300F06780083AC0F0088051F8043B3C
:10C52000083A51F804CBA0E80810F5E7121D5CBFEB
:10C5300051F8043B40F8043BAFF30080D20724BF1E
:10C5400011F8013B11F801CB48BF11F8012B24BFB2
:10C5500000F8013B00F801CB48BF00F8012B704701
:10C56000431A28BF9A427FF6B6AF032A10441144FB
:10C5700040F2268010F0030F1EBF11F8013D521E3D
:10C5800000F8013D10F0030F7FF4F6AF11F0030344
:10C5900000F0C180083AC0F00B8051F8043D083A21
:10C5A00051F804CD40F8043D40F804CDFFF7F3BF47
:10C5B000121D5CBF51F8043D40F8043DAFF300800C
:10C5C000D20724BF11F8013D11F801CD48BF11F881
:10C5D000012C24BF00F8013D00F801CD48BF00F850
:10C5E000012C704710B5203AC0F00B80B1E818500C
:10C5F000203AA0E81850B1E81850A0E81850BFF44D
:10C60000F5AF5FEA027C24BFB1E81850A0E81850EB
:10C6100044BF18C918C0BDE810405FEA827C24BF3F
:10C6200051F8043B40F8043B08BF7047D20728BFCD
:10C6300031F8023B48BF11F8012B28BF20F8023B1C
:10C6400048BF00F8012B704702F0FF0343EA0322C2
:10C6500042EA024200F002B84FF000020429C0F0A2
:10C66000128010F0030C00F01B80CCF1040CBCF124
:10C67000020F18BF00F8012BA8BF20F8022BA1EB76
:10C680000C0100F00DB85FEAC17C24BF00F8012B5B
:10C6900000F8012B48BF00F8012B70474FF0000253
:10C6A00000B5134694469646203922BFA0E80C50A8
:10C6B000A0E80C50B1F12001BFF4F7AF090728BF83
:10C6C000A0E80C5048BF0CC05DF804EB890028BFFF
:10C6D00040F8042B08BF704748BF20F8022B11F028
:10C6E000804F18BF00F8012B7047704770477047A4
:10C6F000431A28BF9A427FF675AF104410F0030F1B
:10C7000011441EBF11F8013D521E00F8013D10F00A
:10C71000030F7FF4F6AF103AC0F00A8010B531E98C
:10C720001850103A20E91850BFF4F9AFBDE8104096
:10C73000530724BF31E9081020E9081044BF51F81D
:10C74000043D40F8043D12F0030F08BF7047D207C4
:10C7500028BF31F8023D48BF11F8012C28BF20F84E
:10C76000023D48BF00F8012C70477546FFF7FAFDFF
:10C77000AE4605006946534620F00700854618B0CE
:10C7800020B5FFF7DDFDBDE820404FF000064FF07B
:10C7900000074FF000084FF0000B21F00701AC46F6
:10C7A000ACE8C009ACE8C009ACE8C009ACE8C00915
:10C7B0008D46704710B50446AFF300802046BDE8B3
:10C7C0001040FFF7FEBC000001491820ABBEFEE799
:10C7D0002600020070470000000000002DE9F04133
:10C7E00002787F2A03D0BDE8F04100F087B801F855
:10C7F000012B447801F8014B861C0D464FF00217BF
:10C8000008E02946304600F079F8074406EB104668
:10C8100080B20544641EF4D23846BDE8F0810000C1
:10C8200070B500240B462246092841D00ADC2D4A67
:10C830000928116953D2DFE800F0525215181C2361
:10C84000282E31004021FC2849D004DCF02835D0C6
:10C85000F12844D134E0FD2841D0FE283CD0FF2807
:10C860003DD135E0184620A11CE01C4606F05EFDD7
:10C8700021E00624224620491846FFF72CFE2EE030
:10C88000184699B1D1F8A41103E0184671B1D1F856
:10C89000A81139B90AE01846D16FFAE71846D2F85C
:10C8A0008010F6E707F014FF044618E0002416E0B5
:10C8B0000C4606F043FD01462046F3E731200CE02C
:10C8C0001970422058700F209870DA70042406E026
:10C8D00019705A70022402E00420187001242046C6
:10C8E00070BD00006480010855494E494F2D434DED
:10C8F0005349532D44415000E88001082DE9F84F79
:10C900000278A2F180031F2B03D800F04FF9BDE895
:10C91000F88FA2F1A0035E2B02D800F0DFF9F6E752
:10C9200001F8012B0C4610F801CBDFF864920025CA
:10C930000127DFF85CA2FF21964B974ADFF85CB233
:10C94000A9F110094FF00116BCF11E0F73D2DFE8F8
:10C950000CF00F17294FC2CBE672F5637372727237
:10C960007272777B8A9AA7BDC0727272727272A35A
:10C970000078611CFFF754FF207000F10210C6E739
:10C98000027822B1012A54D021701846E9E040789B
:10C99000C1074FF0400002D07D49091D00E051461B
:10C9A000086046E0057825B1012D03D000252570EB
:10C9B00057E00125B84617700D21484607F0FAFAEE
:10C9C0004FF400505746CAF800000E21484607F0C1
:10C9D000F1FA4FF48040386001220C21484607F0FC
:10C9E00097FA0021484607F017FBC7F80080DEE7FA
:10C9F000157000220D214E46484607F089FA0022A4
:10CA00000E21304607F084FA00220C21304607F050
:10CA10007FFA25703846A4E001886148614A0068C1
:10CA2000B0FBF2F00322801CB0FBF2F04843401E42
:10CA3000FDD12570A9E7A6E065702570022090E081
:10CA4000214600F047FC8CE086780388C07866F3C6
:10CA50001F43554E53EA00603BD0906002F052FAFB
:10CA6000A5E730467DE010F8016B0EB94FF48076F3
:10CA70000146304602F012FAF61D2570F008000457
:10CA800000F101106DE0007800F00301491C1177FE
:10CA9000C0F3800050778AE7214600F06DF960E02E
:10CAA00021700122144610F8013B0AE010F8011B26
:10CAB00011F03F0100D14021C91DC9080A440844B2
:10CAC000521C5B1EF2D244EA02404AE00078217018
:10CAD000D5E72170C5E701781174B0F80110918293
:10CAE000B0F80300D0824CE012782146012A13D01E
:10CAF0000646401C10F8012B42B110F8013B9C0780
:10CB000001D5DB0600D5001D521EF6D1801B0D702D
:10CB100000044D70801C24E000F078F921E0064606
:10CB20001078214601280AD00D704D70A5700321A0
:10CB3000F078800708D541F4802012E00CE0304600
:10CB400000F030FB0146F3E7B6F801004FF4802215
:10CB500002EB8040084304E01278012A04D02170DF
:10CB6000584600F10110D2E6C278B0F80110007901
:10CB700062F31F4141EA006000906946002001F025
:10CB800011FE2570ECE704F8011C3046BFE60000FA
:10CB9000100C0140010002005405002001000500B6
:10CBA000E802002040420F00010004002DE9FC478C
:10CBB000027801F8012B0D464FF0011410F8011B0B
:10CBC00000226700803906464FF0010804F1010990
:10CBD0000E2975D2DFE801F007141F2E3C7474741F
:10CBE00047535D62667706F0A1FB0646FFF7FDFB43
:10CBF000C4B22C70681C22463146FFF76CFC23E05F
:10CC00000724684602F062FD224669462846FFF77F
:10CC100062FC304C54E0684602F058FD30680090E9
:10CC2000684602F073FD002002F0E6FD85F8008002
:10CC3000294C45E03E21681C09F0ECFE040002D0BE
:10CC4000012006F03BFD2C7004F58034A41C37E075
:10CC50003778701C394609F081FF012006F02EFD5F
:10CC600085F8008028E085F80080307820B1012820
:10CC700002D02A703C4623E006F0A2FEFAE785F8CF
:10CC8000008005F059F810B9022009F061FC4C460B
:10CC900016E0307808F000FC2870EBE708F0CAFBDB
:10CCA0002870F4E716F8017B012006F017FD3946DD
:10CCB000304608F093FC287004EB074404F101149B
:10CCC0002046BDE8FC872A70307800B1012006F0CC
:10CCD00085F8CFE70900010002000500FF20087079
:10CCE0004FF001107047000038B52148816941F0CC
:10CCF00004018161816901F004010091816941F0C1
:10CD000008018161816901F008010091816941F0A8
:10CD100010018161816901F010010091816941F088
:10CD2000200181618069134D00F0200000900D21E9
:10CD3000284607F03FF90F4C6814103420600E218C
:10CD4000284607F037F94FF48040206001220C217B
:10CD5000284607F0DDF80021284607F05DF901209C
:10CD600020600621284607F025F94020206038BDC4
:10CD700000100240000C01402DE9F05F002201F894
:10CD8000012B012510F8018B8A46A94604464FF471
:10CD9000804B32E014F8017B17F03F0000D14020B7
:10CDA000C01DC608380608D500220E21164807F017
:10CDB000AFF815495846103106E00E21124807F029
:10CDC000F9F8114958461431086052462146384650
:10CDD00001F078FCB8F1000F07D10E210A4807F0E6
:10CDE000E9F809491431C1F800B0380602D5B24457
:10CDF000B14401E0344435446D1CB8F10108C9D296
:10CE000049EA0540BDE8F09F000C01402DE9F04FD4
:10CE100087B0054605900020DFF880A3CDE9010129
:10CE20008C1C8AF8000003906978AD1C07465FEA05
:10CE3000010871D015F8016BB1076ED5F7B3DFF8B3
:10CE400060B306F011000128BBF8149007D05746D4
:10CE500069460E2001F0A6FC02280ED013E06946B8
:10CE6000304601F09FFC02280ED1B9F1010903D32D
:10CE70009AF800100029F2D040E1B9F1010902D37B
:10CE800039780029E4D000270128F5D1009904F869
:10CE9000011B0099090A04F8011B0099090C04F808
:10CEA000021B0099090E04F8011C3FB131060ED592
:10CEB000DBF80C1004F8011B0A0A00E007E004F894
:10CEC000012B0A0C04F8022B090E04F8011CF106D0
:10CED00052D5A97835F8030B61F31F4015F8011BF3
:10CEE00040EA01600490AE48B0F816B0F00715D0E3
:10CEF000AB48B0F814900021304601F053FC0228F2
:10CF000002D00128B8D109E0B9F10109B4D39AF8E7
:10CF100000100029EFD0F1E011E187E0A048B0F85F
:10CF200014906946304601F03DFC022802D00128E9
:10CF300016D107E0B9F1010912D39AF800100029BF
:10CF4000EFD00DE09649009A89691140049A914208
:10CF500006D0BBF1010B03D39AF800100029DDD0F5
:10CF60008F49009A89691140049A914201D040F09A
:10CF70001000012817D157E0DFF824B2F107BBF801
:10CF8000149022D007BB0021304601F00BFC022890
:10CF900002D0012807D107E0B9F1010903D39AF8BB
:10CFA00000100029EFD0A9E031060CD5DBF80C10F9
:10CFB00004F8011B0A0A04F8012B0A0C04F8022BDE
:10CFC000090E04F8011C01272EE06946304601F0E5
:10CFD000E9FB022802D0012807D107E0B9F10109D5
:10CFE00003D39AF800100029EFD087E031060CD562
:10CFF000DBF80C1004F8011B0A0A04F8012B0A0CD8
:10D0000004F8022B090E04F8011C009904F8011B16
:10D010000099090A04F8011B0099090C04F8021B85
:10D020000099090E04F8011C002159E01FB35C4867
:10D03000B0F8149069460E2001F0B4FB022802D02B
:10D0400001285BD107E0B9F1010957D39AF8001024
:10D050000029EFD052E0009804F8010B0098000A74
:10D0600004F8010B0098000C04F8020B0098000E65
:10D0700004F8010C0027A97835F8030B61F31F4071
:10D0800015F8011B40EA01600090B10603D5444940
:10D090008861012025E0DFF808B1BBF814906946EB
:10D0A000304601F07FFB022802D0012826D107E09C
:10D0B000B9F1010922D39AF800100029EFD01DE040
:10D0C00031060CD5DBF80C1004F8011B0A0A04F831
:10D0D000012B0A0C04F8022B090E04F8011C012193
:10D0E00003910199491C01919AF8001031B9A8F1F6
:10D0F00001015FEA01087FF49DAE0CE0B8F1000F7A
:10D1000009D015F8011B8A0701D5C90600D52D1DC8
:10D11000A8F10108F2E7012832D10FB320485746A1
:10D12000868A69460E2001F03DFB022802D00128C4
:10D1300026D105E0761E23D339780029F1D01FE0EF
:10D14000009904F8011B0099090A04F8011B0099D1
:10D15000090C04F8021B0099090E04F8011C0FE0E9
:10D16000039969B10E485746868A00210E2001F0C6
:10D1700019FB022804D1761E02D339780029F4D095
:10D18000DDE901121170029948700298211A059880
:10D1900007B0281A41EA0040BDE8F08F00000020E7
:10D1A000540500202DE9F84F0026DFF820810546C0
:10D1B00030468A46CF1C88F80060B5F80140ED1C67
:10D1C000002C77D015F8019BDFF804B15FEA897174
:10D1D0005FD55FEAC97139D0BBF8145000214846C9
:10D1E00001F0E0FA022802D0012863D12EE06D1E82
:10D1F00060D398F800100029F0D05BE024B95FEA12
:10D20000C97001D04FF00E09BBF81450694648466A
:10D2100001F0C8FA022802D001284BD106E06D1EA9
:10D2200048D398F800100029F0D043E0009907F89F
:10D23000011B0099090A07F8011B0099090C07F85E
:10D24000021B0099090E07F8011C761C641ED5D23A
:10D2500030E0A97835F8030B61F31F4015F8011B86
:10D2600040EA016000901A48B0F8148069464846C8
:10D2700001F098FA022802D001281BD107E0B8F18A
:10D28000010817D39BF800100029EFD012E0761C9C
:10D2900000E0C346641EDCD20D485D46848A00214E
:10D2A0000E2001F07FFA022804D1641E02D32978EF
:10D2B0000029F4D08AF80060320A8AF801208AF83E
:10D2C0000200A7EB0A00BDE8F88F00000000002074
:10D2D000540500202DE9F05F8B46057844780279EB
:10D2E0004188407962F31F4141EA00663548E20710
:10D2F00000F1040106D0EB074FF4005201D00260A8
:10D3000000E00A60A20706D5AB074FF4804201D5C2
:10D31000026000E00A60220607D5EA09D3074FF051
:10D32000010201D0026000E00A60DFF898A04FF02F
:10D330000009AAF1040AAAF104087EB32248864231
:10D3400000D9064601F066FE0746E00705D0DAF888
:10D350000000C0F34030A8421BD1A00706D5D8F882
:10D360000000C0F30030B0EB550F12D1600702D5BA
:10D37000B9EB950F0DD1A00602D5B9EB551F08D119
:10D3800020060BD5D8F8000000F00100B0EBD51F47
:10D3900004D001F03FFEC01BB042D6D3DAF8000043
:10D3A000D8F80010C0F34032C1F30031D8F80000C3
:10D3B00042EA410141EAC0108BF800000348BDE891
:10D3C000F09F0000100C0140C0C62D0001000600B7
:10D3D000094910B500220A70084888600A7464235D
:10D3E0008B82CA8201238A610B774A7701F08AFD1A
:10D3F000BDE81040FFF778BC54050020404B4C00BE
:10D400000078832805D0842803D08C2801D00120FF
:10D410007047002070472DE9F0410446D0F808011C
:10D420001E4615460F46002835D00846FFF7E8FF90
:10D4300010B1012006F04AF9402D00DD4025D4F856
:10D4400008012A46401EC4F80801D4F810013946E4
:10D4500004EB8010FFF73FF8D4F8100104EB8011C3
:10D460003846FFF7BBF9D4F8101104EB4101A1F8DD
:10D470000001D4F8100104EB8010306094F8100122
:10D48000401C00F00300C4F81001D4F80C01401C4B
:10D49000C4F80C010120BDE8F081D0F80C31E3B1F3
:10D4A0005B1EC0F80C31D0F8143100EB83130B6015
:10D4B000D0F8141100EB4101B1F80011116090F89F
:10D4C0001411491C01F00301C0F81411D0F808111F
:10D4D000491CC0F808110120704700207047002245
:10D4E000C0F810210421C0F81421C0E9421270478D
:10D4F00001078A0E07490A44D2F8001C000602D52B
:10D5000048F6CF7001E04CF68F700140C2F8001C65
:10D5100070470000005000400207930E0C4A30B5DF
:10D520001344D3F8002C000648F68F7402EA040076
:10D5300048F2800582EA010202D502F0300101E0E2
:10D5400002F4405108432843C3F8000C30BD0000EA
:10D550000050004030B585B00546002400F03CF98D
:10D560000120002103900091CDE9011504A968462E
:10D5700000F092F800B1012400F0E2F805B0204676
:10D5800030BD000006490020C8610648016941F02D
:10D5900004010161016941F040010161704700002F
:10D5A000881B002000200240064A0021D161064964
:10D5B0000A6942F002020A614861086940F04000CD
:10D5C00008617047881B002000200240044B0022A5
:10D5D000DA61044A136943F0010313610180704763
:10D5E000881B0020002002400E49C868C2060E4871
:10D5F00003D5C26942F00202C261CA68520703D56C
:10D60000C26942F00102C261CA69D20707D0C26989
:10D6100042F00402C261C86920F00100C861142010
:10D62000C860704700200240881B002070B5044687
:10D6300000F0CEF90546114E09E0601C07D024B178
:10D6400000F0C6F9401BA04201D9032070BDF0686C
:10D65000C007F2D1F068800601D52020F060F068A4
:10D66000C00605D4F069C00702D1F068400703D5B1
:10D67000FFF7BAFF012070BD002070BD00200240FE
:10D6800031B500F0A5F9044600F0A2F90099001B9D
:10D690008842F9D338BD00002DE9F04705462648F9
:10D6A0000F460126017E01290FD001218146017616
:10D6B0002868DFF888804CF25034022808D0A2464F
:10D6C0002046FFF7B3FFA8B131E00220BDE8F087A4
:10D6D0002046FFF7ABFF08BB0120FFF753FF2046B2
:10D6E000FFF7A4FFD8F81010064621F00401C8F88F
:10D6F00010101CE04FF0FF303860AC6811E020469D
:10D70000FFF752FF5046FFF791FFD8F810100600C0
:10D7100021F00201C8F8101001D03C6007E004F5C8
:10D720008064D5E9020100EB8120A042E7D8002106
:10D7300089F818103046C9E7881B002000200240F5
:10D740000348016941F08001016100207047000039
:10D75000002002402DE9F05F05461D488846002460
:10D76000017E16461F46012909D001218146017616
:10D770004CF2503A5046FFF759FF18B123E002200F
:10D78000BDE8F09F012D02D0022D00D00425D34624
:10D79000DFF840A015E0220130463946FEF7E6FDED
:10D7A00081B208EB4400FFF711FF5846FFF73EFF38
:10D7B000DAF8102022F00102CAF8102018B9641C0F
:10D7C000E4B2AC42E7D3002289F81820D8E7000081
:10D7D000881B00200020024005480169090605D584
:10D7E00004494160044941600020704701207047AE
:10D7F0000020024023016745AB89EFCD2DE9F84FAA
:10D80000DFF8A091002309F1040A0AF1040B1C4679
:10D810004FF00F080BF1040E01270A68A7403A40A9
:10D82000BA4272D1DFF880C14D68A5EB0C066545A0
:10D830002BD00DDC032D34D005DC35B3012D19D0F0
:10D84000022D2FD11BE0112D16D0122D2AD119E057
:10D85000B6F5881F19D006DCB6F5803F15D0B6F5B1
:10D86000801F1FD111E0B6F5001F0ED0B6F5041FC2
:10D8700018D10AE0CB6815E0CB681B1D12E0CB681D
:10D8800008330FE0CB680C330CE08B682BB1012B15
:10D890004FF0080303D0476104E0042302E007616E
:10D8A00000E00023FF2A01D8064601E000F104064B
:10D8B0004FEA840501D9A5F12005376808FA05FC6F
:10D8C00027EA0C0703FA05F547EA050737604D68B4
:10D8D000ED0060D5354DAE6946F00106AE61AD692B
:10D8E00024F0030605F001050095314D7719BE6857
:10D8F000A5072D0F08FA05FC26EA0C06DFF8B4C0D0
:10D90000604503D14FF0000C17E044E0DFF8A8C0F9
:10D91000604502D14FF0010C0FE0DFF8A0C0604578
:10D9200002D14FF0020C08E0DFF894C0604502D14C
:10D930004FF0030C01E04FF0040C0CFA05FC4CEA2C
:10D94000060CC7F808C04D68D9F80060ED034D46D5
:10D9500001D5164300E096432E604D68DAF800606A
:10D96000AD03554601D5164300E096432E604D6841
:10D97000DBF80060ED025D4601D5164300E09643FA
:10D980002E604D68DEF80060AD02754601D5164385
:10D9900000E096432E60641C102CFFF43DAFBDE800
:10D9A000F88F000000040140000011100010024038
:10D9B0000000014000080140000C0140001001403F
:10D9C000001401400AB1016170470904FBE700003F
:10D9D000EFF3108172B607480068406A064B820870
:10D9E0001868121AC2F30D02104481F310881860EF
:10D9F00070470000481B0020E4020020074810B5D3
:10DA0000016841F010010160032000F05DF80F2073
:10DA100000F006F800F056F8002010BD002002408B
:10DA200010B588B005A9684600F020F90398B0F554
:10DA3000806F08D0B0F5A06F35D0B0F5C06F34D08E
:10DA4000B0F5E06F33D001201A494FF08042002436
:10DA50000968B1FBF0F04FF47A61B0FBF1F11648C0
:10DA6000491E02604FF6FF72C0E90324C0E90114A9
:10DA700044611248C16941F00101C161C06900F00F
:10DA8000010006900C4800F042FC002809D10C4827
:10DA90000460094800F057FC002802D1064800F055
:10DAA0006FFC08B010BD0220CEE70420CCE70820B0
:10DAB000CAE70000E8020020481B002000100240D6
:10DAC000E402002070470000064A00F007011068D9
:10DAD0004FF6FF03184040EA012003490843106055
:10DAE000704700000CED00E00000FA052DE9F0475A
:10DAF000DFF8688104460E46D8F8000000F0070001
:10DB0000B0420CD2D8F8001021F007013143C8F818
:10DB10000010D8F8000000F00700B04273D1207860
:10DB20004F4F800705D57868A16820F0F0000843C2
:10DB300078602078C00755D06068012201280CD099
:10DB4000022828D0022393FAA3F1B1FA81F141F01F
:10DB50002001490904D0396803E04FF40033F2E7AB
:10DB6000796A93FAA3F3B3FA83F303F01F039A409D
:10DB7000114248D0796821F0030101437960FFF731
:10DB800027FF0546606841F2883101280CD0022841
:10DB9000894615D022E04FF00073D4E7FFF718FF55
:10DBA000411B494501D916E089467868C0F38100D8
:10DBB0000128F3D116E0FFF70BFF411B49450AD8B6
:10DBC0007868C0F381000228F5D10BE0FFF700FF71
:10DBD000411B494502D90320BDE8F087786810F061
:10DBE0000C0FF3D1D8F80010404601F00701B14204
:10DBF0000BD9016821F0070131430160006800F092
:10DC00000700B04201D00120E6E72078400705D5A3
:10DC10007868E16820F4E0600843786020780007C5
:10DC200006D57868216920F4605040EAC100786028
:10DC300000F06CF87968F02292FAA2F201F0F0019B
:10DC4000B2FA82F2D140074A515CC84006490860E6
:10DC50000F20FFF7E5FE0020BEE700000020024095
:10DC600000100240D4860108E80200200F22026062
:10DC70000C4A536803F003034360536803F0F00356
:10DC80008360536803F4E063C36052684FF4E06359
:10DC900003EAD20202610448006800F0070008604D
:10DCA0007047000000100240002002400848094967
:10DCB000006849684FF4E06292FAA2F201F4E06170
:10DCC000B2FA82F2D140044A515CC8407047000069
:10DCD000E802002000100240E486010808480949D3
:10DCE000006849684FF4605292FAA2F201F4605160
:10DCF000B2FA82F2D140044A515CC8407047000039
:10DD0000E802002000100240E486010810B519A0C6
:10DD100085B00FC88DE80F001AA01B4B0068049057
:10DD200059681A4801F00C02042A1DD0082A1BD198
:10DD30004FF4701494FAA4F401F47012B4FA84F459
:10DD4000E240C9031DF8022010D559684FF4003392
:10DD500093FAA3F301F40031B3FA83F3D94004AB8F
:10DD6000595CB0FBF1F0504305B010BD084850437A
:10DD7000FAE7000002030405060708090A0B0C0D68
:10DD80000E0F1010010200000010024000127A0075
:10DD900000093D002DE9F84F04460078FE4EC0070B
:10DDA0004FF001057FD070684FF40038C0F3810058
:10DDB000012807D07068C0F3810002281BD1706869
:10DDC000C00318D598FAA8F0B0FA80F040F020000F
:10DDD000400901D0306800E0706A98FAA8F1B1FA01
:10DDE00081F101F01F0105FA01F108425BD0606882
:10DDF000002879D057E06068B0F5803F0BD010B1B3
:10DE0000B0F5A02F11D0306820F480303060306839
:10DE100020F4802002E0306840F480303060606898
:10DE200018B3FFF7D5FD074609E0306840F48020BD
:10DE30003060F0E7FFF7CCFDC01B642870D898FA7B
:10DE4000A8F0B0FA80F040F02000400901D030681E
:10DE500000E0706A98FAA8F1B1FA81F101F01F01AF
:10DE600005FA01F10842E5D01DE0FFF7B1FD0746D4
:10DE700004E0FFF7ADFDC01B6428DFD898FAA8F0D6
:10DE8000B0FA80F040F02000400901D0306800E096
:10DE9000706A98FAA8F1B1FA81F101F01F0105FA50
:10DEA00001F10842E5D12078DFF8F08280074FF0D9
:10DEB000000A4FF002075AD570684FF0F80B10F0C7
:10DEC0000C0F07D07068C0F3810002281CD1706865
:10DED000C00319D497FAA7F0B0FA80F040F0200000
:10DEE000400902D0306801E08AE0706A97FAA7F131
:10DEF000B1FA81F101F01F0105FA01F108422BD0BE
:10DF0000206901287CD127E0206988B395FAA5F023
:10DF1000B0FA80F048F82050FFF75AFD814606E03D
:10DF20004DE1FFF755FDA0EB0900022886D897FACE
:10DF3000A7F0B0FA80F040F02000400901D030682E
:10DF400000E0706A97FAA7F1B1FA81F101F01F01C0
:10DF500005FA01F10842E4D030689BFAABF220F0F8
:10DF6000F8016069B2FA82F290400143316025E025
:10DF7000FFE795FAA5F1B1FA81F148F821A0FFF782
:10DF800027FD814605E0FFF723FDA0EB09000228ED
:10DF9000CCD897FAA7F0B0FA80F040F02000400902
:10DFA00001D0306800E0706A97FAA7F1B1FA81F108
:10DFB00001F01F0105FA01F10842E4D120780007C1
:10DFC0006DD5A069B8B395FAA5F0B0FA80F008EB6A
:10DFD0008000C0F88054FFF7FBFC814605E0FFF7A6
:10DFE000F7FCA0EB09000228A0D897FAA7F0B0FA36
:10DFF00080F040F06000B5EB501F02D130680CE0BB
:10E0000063E197FAA7F0B0FA80F040F06000B7EB58
:10E01000501F01D1306A00E0706A97FAA7F1B1FA97
:10E0200081F101F01F0105FA01F21042D7D0012061
:10E03000FFF726FB33E0FFE795FAA5F1B1FA81F18E
:10E0400008EB8101C1F880A4FFF7C2FC814605E01E
:10E05000FFF7BEFCA0EB0900022899D897FAA7F0B9
:10E06000B0FA80F040F06000B5EB501F01D130688D
:10E070000BE097FAA7F0B0FA80F040F06000B7EB41
:10E08000501F01D1306A00E0706A97FAA7F1B1FA27
:10E0900081F101F01F0105FA01F21042D8D1207878
:10E0A000400763D5F06940F08050F061F069DFF817
:10E0B000F0B000F080500090DBF8001041F4807167
:10E0C000CBF80010FFF784FC814605E0FFF780FCE9
:10E0D000A0EB0900642872D8DBF80000C005F5D574
:10E0E000E06801280AD008B1052813D0306A20F072
:10E0F00001003062306A20F0040002E0306A40F033
:10E1000001003062E06841F2883B80B3FFF760FCB9
:10E1100081460AE0306A40F004003062EEE7FFF723
:10E1200057FCA0EB0901594549D897FAA7F0B0FA76
:10E1300080F040F04000B5EB501F01D130680BE09B
:10E1400097FAA7F0B0FA80F040F04000B7EB501F0C
:10E1500001D1306A00E0706A97FAA7F1B1FA81F153
:10E1600001F01F0205FA02F10842D8D033E0FFE7C0
:10E17000FFF72EFC814605E0FFF72AFCA0EB090122
:10E1800059451CD897FAA7F0B0FA80F040F040004B
:10E19000B5EB501F08D105E00010024000004242DC
:10E1A0000070004030680CE097FAA7F0B0FA80F0F9
:10E1B00040F04000B7EB501F02D1306A01E08AE026
:10E1C000706A97FAA7F1B1FA81F101F01F0205FA1E
:10E1D00002F10842D0D1E06998B37168C1F38101BE
:10E1E000022972D002284FF080714FF0007B504618
:10E1F0000AD091FAA1F1B1FA81F148F82100FFF7B4
:10E20000E7FB04465F4669E08A4691FAA1F1B1FA5C
:10E2100081F1C14648F82100FFF7DAFBA84607461E
:10E220005D4604E0FFF7D4FBC01B022853D895FAE3
:10E23000A5F0B0FA80F040F02000400902D030682C
:10E2400001E060E0706A95FAA5F1B1FA81F101F0A0
:10E250001F0208FA02F10842E4D1206AB0F5803FBB
:10E2600005D17068A16820F4003008437060D4E9DB
:10E2700008010843716821F47411084370609AFA28
:10E28000AAF0B0FA80F0474649F82080FFF7A0FBDB
:10E29000044604E0FFF79CFB001B02281BD895FAFC
:10E2A000A5F0B0FA80F040F02000400901D03068BD
:10E2B00000E0706A95FAA5F1B1FA81F101F01F0151
:10E2C00007FA01F10842E5D01DE01EE0FFF780FBF0
:10E2D000001B022802D90320BDE8F88F97FAA7F0A7
:10E2E000B0FA80F040F02000400901D0306800E032
:10E2F000706A97FAA7F1B1FA81F101F01F0105FAEE
:10E3000001F10842E2D10020E6E70120E4E710B580
:10E310000446022084F839002068016A41F2111293
:10E32000114207D1016A9210114203D1016821F014
:10E3300001010160204600F021F8002084F8390036
:10E3400084F8380010BD10B5040003D094F83900EB
:10E3500010B107E0012010BD002084F838002046ED
:10E3600000F00DF8022084F83900211D206800F02B
:10E3700061FE012084F83900002010BD704770470D
:10E38000022180F8391001680A6842F001020A602F
:10E39000012180F839100020704770B5044690F8CC
:10E3A00038000D4601280DD0012684F8386002207F
:10E3B00084F8390042B1042A18D0082A2AD00C2A3D
:10E3C0004DD139E0022070BD206800F071FE206858
:10E3D000816941F0080181612068816921F00401AF
:10E3E0008161206881692A69114311E0206800F089
:10E3F0008BFE2068816941F4006181612068816938
:10E4000021F480618161206881692A6941EA0221E1
:10E41000816124E0206800F0A5FE2068C16941F018
:10E420000801C1612068C16921F00401C16120684F
:10E43000C1692A69114311E0206800F0BFFE20681D
:10E44000C16941F40061C1612068C16921F4806142
:10E45000C1612068C1692A6941EA0221C16184F869
:10E460003960002084F8380070BD10B504460220E1
:10E4700084F839002068016A41F21112114207D173
:10E48000016A9210114203D1016821F0010101607B
:10E49000204600F021F8002084F8390084F8380084
:10E4A00010BD10B5040003D094F8390010B107E096
:10E4B000012010BD002084F83800204600F00DF83F
:10E4C000022084F83900211D206800F0B3FD0120EE
:10E4D00084F83900002010BD7047704710B504461D
:10E4E0000068012200F0D8FD07492068884203D166
:10E4F000416C41F4004141642068016841F0010130
:10E500000160002010BD0000002C014070B5040027
:10E5100018D0022084F839002068C16821F4005125
:10E52000C16020680025C5602068056120684561DC
:10E53000204600F038F8E56384F8395084F8385004
:10E54000002070BD012070BD70B5040004D094F8A7
:10E550003900002510B106E0012070BD84F8385064
:10E56000204600F021F8022084F839002068C168B4
:10E5700021F40051C160204600F042FE206801698C
:10E5800021F4904101612068416921F02A01416133
:10E590002068C16841F40051C160E563012084F83E
:10E5A0003900002070BD7047704703F09FF90020CC
:10E5B00070471CB507F092FA00281BD09E208DF8FA
:10E5C0000000E7208DF801006946102000F066FC8D
:10E5D00007F084FA00280DD000208DF8000069466D
:10E5E000082000F05BFC01A9002007F00BFA0128CD
:10E5F00000D000201CBD000070B5104C0D2120463D
:10E6000005F0F1FC0D4D6014103528600E212046F8
:10E6100005F0E9FC4FF48040286001220C212046DF
:10E6200005F09FFC206820F00F002060206840F07B
:10E63000070020600120286070BD0000000C014030
:10E640002DE9F04117460D4680460026FFF7C4F835
:10E65000A80706D000206E220DA103F0F2F90024D5
:10E660000DE00120F7E757F8242008EB8401002390
:10E670000220FFF76FF808B1012603E0641CB4EB39
:10E68000950FF0D3FFF75CF83046BDE8F08100004D
:10E690002E2E5C2E2E5C2E2E5C736F757263655C65
:10E6A0006869635F68616C5C73746D33325C73744A
:10E6B0006D33326631303378625C666C6173682E1C
:10E6C000630000002DE9F00710F03F0308BF40236E
:10E6D00010F0800FDFF8C090DFF8C0A04FF40054B6
:10E6E000A9F104062CD0002B12BFDFF8B480BDE8DE
:10E6F000F007704700274FF0080CDAF8045010E0DC
:10E70000491EFDD1D8F800003460C0F3003128461E
:10E71000401EFDD178085B1E40EAC117BCF1010C18
:10E7200005D0002B1CBFC9F800402946E8D127FAC4
:10E730000CF002F8010B002BDCD1BDE8F0077047AC
:10E74000002B19BF4FF4804CDAF80420BDE8F00725
:10E75000704700BF11F8015B082712E0E80714BFFB
:10E76000C6F800C0C9F800C0C9F800401046401EF5
:10E77000FDD134601046401EFDD16D085B1E7F1E2A
:10E7800004D0002BEAD1BDE8F0077047002BE1D19F
:10E79000BDE8F00770470000140C0140540500204C
:10E7A000080C0140034A52780AB100F005B800F0A5
:10E7B00055B90000540500202DE9F04FA04F4FF44B
:10E7C000804AC7F800A07E143D1D2E603E60C2073F
:10E7D00014BFC7F800A0C5F800A02E603E60420834
:10E7E0005FEAC27C14BFC7F800A0C5F800A02E6085
:10E7F0003E60830802445FEAC37C14BFC7F800A0F0
:10E80000C5F800A02E603E601344C2085FEAC27CD7
:10E8100014BFC7F800A0C5F800A02E603E601A44DF
:10E82000D20714BFC7F800A0C5F800A02E603E6054
:10E83000C5F800A02E603E60C7F800A02E603E60C4
:10E84000DFF800B2DBF8042022F07062CBF804207D
:10E85000DBF80420CBF80420C7F800A0DFF8E8E1DB
:10E860009EF81C20131E03D02E603E60521EFBD16A
:10E870002E60DFF8D891D9F800203E60C2F3003254
:10E880002E60D9F800C03E60CCF3003C42EA4C0256
:10E890002E60D9F800C03E60CCF3003C42EA8C0206
:10E8A000012A1DD0022A18BF042A7DD013F12100AD
:10E8B00003D02E603E60401EFBD1DBF8040020F048
:10E8C0007060CBF80400DBF8040040F04070CBF837
:10E8D0000400C5F800A0C7F800A01046BDE8F08FFE
:10E8E00010F0020F4AD00024A04620232E60D9F851
:10E8F00000C03E60CCF3003C6408E04444EACC74C1
:10E900005B1EF3D12E60D9F800303E6088EA1333E5
:10E9100013F0010F18BF0822002918BF0C609EF8E1
:10E920001C1019B12E603E60491EFBD1DBF80410AB
:10E9300021F07061CBF80410DBF8041041F0407155
:10E94000CBF80410C5F800A010F0800F0AD04048A2
:10E9500040490068B0FBF1F03F494968B1FBF0F075
:10E96000CEF80C009EF81000002818BFC5F800A0D3
:10E9700061D02E603E60401EFBD15CE01BB12E607A
:10E980003E605B1EFBD1DBF8043023F07063CBF8F4
:10E990000430DBF8043043F04073CBF80430C5F8A2
:10E9A00000A00968002300E017E04FF0200CCC071E
:10E9B00014BFC7F800A0C5F800A02E603E600B444D
:10E9C0004908BCF1010CF2D1D90714BFC7F800A067
:10E9D000C5F800A02E603E60B6E79EF81DC0BCF1F1
:10E9E000000F1CBF10F0020F212103D02E603E60EB
:10E9F000491EFBD11BB12E603E605B1EFBD1DBF8D4
:10EA0000041021F07061CBF80410DBF8041041F021
:10EA10004071CBF80410C5F800A0BCF1000F0AD07B
:10EA200010F0020F04BFC5F800A0212003D12E6012
:10EA30003E60401EFBD1C7F800A01046BDE8F08F35
:10EA4000100C0140000C014054050020080C01404E
:10EA5000E802002040420F00001000E02DE9F04FD6
:10EA6000DFF810A44FF4804E4FF0000CCAF800E01D
:10EA70000AF104094FF40057C9F80070FE4D6A68A6
:10EA800013465B1EFDD1CAF8007013465B1EFDD114
:10EA9000C30714BFCAF800E0C9F800E0C9F8007065
:10EAA00013465B1EFDD1CAF8007013465B1EFDD1F4
:10EAB0000CEB00044FEA500C5FEACC7314BFCAF8A9
:10EAC00000E0C9F800E0C9F8007013465B1EFDD1F4
:10EAD000CAF8007013465B1EFDD164444FEA900CE7
:10EAE0005FEACC7314BFCAF800E0C9F800E0C9F8C7
:10EAF000007013465B1EFDD1CAF8007013465B1E02
:10EB0000FDD164444FEAD00C5FEACC7314BFCAF85D
:10EB100000E0C9F800E0C9F8007013465B1EFDD1A3
:10EB2000CAF8007013465B1EFDD104EB0C03DB0733
:10EB300014BFCAF800E0C9F800E0C9F80070134635
:10EB40005B1EFDD1CAF8007013465B1EFDD1C9F8EB
:10EB500000E0C9F8007013465B1EFDD1CAF80070D2
:10EB600013465B1EFDD1CAF800E0C9F800701346D9
:10EB70005B1EFDD1CAF8007013465B1EFDD1BF4B72
:10EB8000D3F804C02CF0706CC3F804C0D3F804C0F0
:10EB9000C3F804C0CAF800E02C7FB4F1000C0BD01D
:10EBA000C9F8007013465B1EFDD1CAF80070134609
:10EBB0005B1EFDD1641EF3D1C9F8007013465B1EC5
:10EBC000FDD1DFF8BCB2DBF80030CAF80070C3F347
:10EBD00000331446641EFDD1C9F800701446641E4B
:10EBE000FDD1DBF80040CAF80070C4F300341646CB
:10EBF000761EFDD143EA4403C9F800701446641E32
:10EC0000FDD1DBF80040CAF80070C4F300341546AB
:10EC10006D1EFDD143EA8408B8F1010F24D0B8F18C
:10EC2000020F18BFB8F1040F72D01CF121010BD0F4
:10EC3000C9F800701046401EFDD1CAF80070104699
:10EC4000401EFDD1491EF3D18C48416821F070610E
:10EC50004160416841F040714160C9F800E0CAF884
:10EC600000E04046BDE8F08F10F0020F51D00026C2
:10EC700035464FF0200C00BFC9F8007013465B1EEC
:10EC8000FDD1DBF80030CAF80070C3F3003413463E
:10EC90005B1EFDD17308254443EAC476BCF1010C28
:10ECA000EAD1BC46C9F80070734C13465B1EFDD117
:10ECB000DBF80030CAF800C0C3F30033521EFDD1A8
:10ECC00085EA030212F0010F18BF4FF0080800296F
:10ECD00018BF0E60257F002D18BF63680CD000BFE1
:10ECE000C9F800C01A46521EFDD1CAF800C0194624
:10ECF000491EFDD16D1EF3D160494A6822F0706251
:10ED00004A604A6842F040724A60C9F800E047E051
:10ED100069E0BCF1000F0CD0C9F8007013465B1E0F
:10ED2000FDD1CAF8007013465B1EFDD1BCF1010C89
:10ED3000F2D1524BD3F804C02CF0706CC3F804C06D
:10ED4000D3F804C04CF0407CC3F804C0F446C9F8C2
:10ED500000E000240B682025D90714BFCAF800C0C2
:10ED6000C9F800C0C9F800701146491EFDD1CAF8A3
:10ED700000701146491EFDD11C445B086D1EEBD18D
:10ED8000E10714BFCAF800C0C9F800C03B46C9F883
:10ED900000701146491EFDD1CAF80030521EFDD147
:10EDA00010F0800F0AD0374837490068B0FBF1F007
:10EDB00036494968B1FBF0F02F49C8602E48027C03
:10EDC000002A1CBFC9F800E0416851D0C9F80070A2
:10EDD0000846401EFDD1CAF800700846401EFDD10D
:10EDE000521EF3D144E024494C7F002C1CBF10F08C
:10EDF000020F21230CD000BFC9F800701146491E34
:10EE0000FDD1CAF800701146491EFDD15B1EF3D139
:10EE1000BCF1000F0DD000BFC9F800701146491EAB
:10EE2000FDD1CAF800701146491EFDD1BCF1010C9C
:10EE3000F2D112494B6823F070634B604B6843F08A
:10EE400040734B60C9F800E094B110F0020F04BFAA
:10EE5000C9F800E021210BD1C9F800701046401E0E
:10EE6000FDD1CAF800701046401EFDD1491EF3D1F5
:10EE70000EE00000100C014054050020000C014081
:10EE8000080C0140E802002040420F00001000E0A2
:10EE9000CAF800E04046BDE8F08F00002DE9F0011F
:10EEA000441E3CBFBDE8F00170474FF480474FF46B
:10EEB00000581348114DD0F804202E1F11F8013BC3
:10EEC0004FF0080C13F0010F14BF37602F60C5F826
:10EED00000801046401EFDD1C6F800801046401E3E
:10EEE000FDD15B08ACF1010C641E3CBFBDE8F00134
:10EEF0007047BCF1000FE5D1E0E70000140C0140C1
:10EF0000540500200C490D4A0968B0EB910F02D35B
:10EF1000012050700DE000EB5101491EB1FBF0F0F3
:10EF200000235370022803D90321B0FBF1F000E065
:10EF30000120506070470000E802002054050020C6
:10EF4000144A10B55068144B10F00C01134803D04C
:10EF5000042901D0082901D0036012E051685368E8
:10EF600001F470114FF0020413F4803F04EB91415F
:10EF700002D053689B0301D5094B00E0064B59436F
:10EF800001605168074AC1F30311515C0268CA402D
:10EF9000026010BD0010024000127A00E80200205A
:10EFA00000093D00D48601080D48016841F00101C7
:10EFB000016041680B4A1140416001680A4A1140F2
:10EFC0000160016821F480210160416821F4FE01A3
:10EFD00041604FF41F0181600449C003086070471D
:10EFE000001002400000FFF8FFFFF6FE08ED00E011
:10EFF000BFF34F8F05480168054A01F4E0611143F2
:10F000000160BFF34F8F00BFFDE700000CED00E093
:10F010000400FA05044805490068B0FBF1F0044912
:10F020004968B1FBF0F07047E802002040420F0051
:10F03000001000E0F0B50268144C154D154E4FF06D
:10F040008047A04205D0B84203D0A84201D0B042C8
:10F0500003D122F070034A681A43A04205D0B84297
:10F0600003D0A84201D0B04203D122F44073CA6851
:10F070001A4302608A68C2620A688262A04201D1B1
:10F080000969016301214161F0BD0000002C0140CC
:10F09000000400400008004010B50123046A8B40C2
:10F0A0009C430462036A8A401343036210BD00005C
:10F0B00030B5026A22F001020262036A4268846982
:10F0C00024F073050C682C4323F002058B682B4356
:10F0D0000C4DA84206D123F00805CB6843EA05038E
:10F0E00023F0040307D14D6922F4407245EA02057A
:10F0F0008A6942EA050242608461496841630362A9
:10F1000030BD0000002C014030B5026A22F0100230
:10F110000262026A436884690D6824F4E64444EAA2
:10F1200005248D6822F0200242EA05120C4DA84207
:10F1300006D1CD6822F0800242EA051222F0400298
:10F1400007D14D6923F4406343EA85038D6943EA9F
:10F1500085034360846149688163026230BD0000B9
:10F16000002C014030B5026A22F480720262036A08
:10F170004268C46923F4007324F073050C682C43BF
:10F180008D6843EA05230C4DA84206D1CD6823F4CF
:10F19000006343EA052323F4806307D14D6922F419
:10F1A000405242EA05128D6942EA05124260C4618A
:10F1B0004968C163036230BD002C014030B5026A6A
:10F1C00022F480520262036A4268C4690D6824F422
:10F1D000E64444EA05248D6823F4005343EA0533EA
:10F1E000064DA84204D14D6922F4804242EA8512BC
:10F1F0004260C46149680164036230BD002C014073
:10F200002DE9F041044600680169E26821F44051AB
:10F2100011430161A16820690143606901432068CD
:10F22000C26841F20C639A430A43C2602068416994
:10F23000A26921F44071114341614C492068642660
:10F24000322788423CD1FEF749FD00EBC00101EBBB
:10F25000001061688900B0FBF1F5FEF73FFD00EB9F
:10F26000C00101EB00106168B8468900B0FBF1F005
:10F27000B0FBF6F06FF01801484305EB800107EB97
:10F280000110B0FBF6F000F0F005FEF727FD00EBF3
:10F29000C00101EB001061688900B0FBF1F0B0FB28
:10F2A000F6F005EB0015FEF719FD00EBC00101EBD0
:10F2B000001061688900B0FBF1F7FEF70FFD3BE03D
:10F2C000FEF7F4FC00EBC00101EB0010616889005F
:10F2D000B0FBF1F5FEF7EAFC00EBC00101EB00101A
:10F2E0006168B8468900B0FBF1F0B0FBF6F06FF052
:10F2F0001801484305EB800107EB0110B0FBF6F065
:10F3000000F0F005FEF7D2FC00EBC00101EB0010AD
:10F3100061688900B0FBF1F0B0FBF6F005EB001579
:10F32000FEF7C4FC00EBC00101EB0010616889002E
:10F33000B0FBF1F7FEF7BAFC00EBC00101EB0010E7
:10F3400061688900B0FBF1F0B0FBF6F06FF01801D6
:10F35000484307EB800108EB0110B0FBF6F0216891
:10F3600000F00F0028448860BDE8F08100380140BB
:10F3700070B515480468154DA00612D52868C6B2A8
:10F38000134802F0F1FB132804D93146104802F06B
:10F390004FFC06E005D14FF013020EA10C4802F01D
:10F3A0009AFC200607D5104802F0EBFB20B10E486E
:10F3B00002F002FC286070BD0448083001680B4A66
:10F3C0001140016070BD0000004400400444004052
:10F3D000B81D00203C4441504C696E6B3A4F766535
:10F3E00072666C6F773E0A00A81B00207FFFFFEF5C
:10F3F000002070470348D0E90410081A0249098820
:10F40000081A7047840400200A87010870B50B4D64
:10F410000C460346D5E90C0188420BD9401A8442B8
:10F4200000DD044622461846FDF755F8686B204477
:10F43000686300E00024204670BD000084040020C2
:10F44000002070472DE9F041194F0C460646D7E9D8
:10F450000401401A17490988081A002802DC002014
:10F46000BDE8F081844200DD0446D7E906020025AC
:10F4700090420FD3104B021919448A420AD30D1A35
:10F4800098462A463146FDF726F82E44641B40462E
:10F49000C7F8188034B122463146FDF71CF8B86928
:10F4A0002044B8613969601901443961D8E7000026
:10F4B000840400200A8701089221002010B5054C21
:10F4C0006068002805D10120606000F005F8002088
:10F4D000606010BD840400202DE9F047244CA06832
:10F4E00000283ED0D4E90401421AE0684FF000063B
:10F4F00052EA000137D021461E4FC969DFF87880F3
:10F50000DFF878901E4D7AB1A069814205D3388822
:10F510008B182844834200D3421A99F8003038F8F7
:10F520001300904200DA02461648E660007840F088
:10F53000800002F047F9E1690144E1616269024437
:10F5400062613B882B448B4200D1E5612169914285
:10F550000BD199F8002038F81210814205D1012012
:10F56000E060BDE8F087A660FBE7E660F9E7000031
:10F57000840400200A8701080E870108C7040020C0
:10F58000922100200887010810B50B4C206A18B1A1
:10F59000A06A401CA06210BD01202062606200F0E1
:10F5A0000DF8002060622062D4E90C018842F2D09C
:10F5B000401AFFF745FF10BD8404002010B5134C1E
:10F5C0001348164B216B0A1A12481B780088821ABE
:10F5D000114830F8130082420EDB1148007801F028
:10F5E00033FD216B08442063A06A00280CD0616AB7
:10F5F000002909D1401E06E00120E062606A00286F
:10F6000002D0A06A401CA06210BD0000840400204B
:10F61000D22100200C8701080E870108C7040020B2
:10F620000987010810B50446400702D52046FFF7B8
:10F63000ABFF200704D52046BDE81040FFF73EBFD2
:10F6400010BD7047002070470020704710B50B4870
:10F6500000F03CF8002810D0084A094811680170F1
:10F660000B0A43700B0C8370090EC1701179017184
:10F670005179417191798171012010BDBC04002044
:10F68000902000200E4810B5002141608160C160CB
:10F690000C4A0161C0E90512C0E9072141620A4A2A
:10F6A0008162C0E90B124263018038304FF4165278
:10F6B0000260017141710821817100F015F810BDDF
:10F6C0008404002092210020D221002005490A68EC
:10F6D00002600A7982714A79427189790171012047
:10F6E000704700004C05002010B507F03BF903F00F
:10F6F000FDFF012010BD10B507F094F9012010BDE9
:10F7000010B507F029FA012010BD00000649026873
:10F710000A6082790A7142794A7100798871002001
:10F72000C871084607F090B94C05002010B5104884
:10F730000024104944608460C4600461C0E905414C
:10F74000C0E9071444620C498462C0E90B4141637B
:10F750000480FFF7D0FF06484FF41651383001609F
:10F760000471447108218171FFF7D0FF10BD0000C2
:10F770008404002092210020D221002010B5FFF740
:10F78000D5FF10BD70B51948007800282DD0184C51
:10F7900000250126206A50B9D4E90C01884206D11F
:10F7A0001449884203D02163E56225626163A06A3F
:10F7B00070B1206A60B9E06A50B92662FFF7FEFEB8
:10F7C0002562D4E90C01884202D0401AFFF738FEC6
:10F7D000D4E90101084308D1D4E90401884204D0E6
:10F7E0006660A660FFF778FE656070BDC504002006
:10F7F00084040020D221002070B505460D48006821
:10F80000C1698847A0B90C4C35B104F0F7F8206005
:10F81000002006F09DFE0BE004F0F0F82168401A8D
:10F82000B0F5967F01D3012000E0002003F066FFD1
:10F83000012070BDC08101084805002000207047EC
:10F8400000207047024910B50880FFF759FF10BD2E
:10F85000840400200A4810B58278018862F31F41B1
:10F86000C27841EA026207490A6002790A71427964
:10F870004A71807988710846FFF748FF10BD000083
:10F8800090200020BC04002000B50346FDF730FEA8
:10F8900043F2300118465DF804EBFDF73DBE000071
:10F8A000F0B58278204D02F00F0316066F6881884C
:10F8B0002C8802F00F0207EB021204D5491C21F03C
:10F8C0000101146011E094603E2909D91F3121F033
:10F8D0001F014FF0FF3404EB411444F4004403E0F3
:10F8E000491C21F001014C02D4602A880A442A8074
:10F8F000C07810F0030006D0012807D0022808D0F5
:10F9000003280AD107E04FF4007106E04FF480614C
:10F9100003E0002101E04FF4C061044A194302EB07
:10F920008300C0F8001CF0BDF80300200050004028
:10F93000002802D10149D02008807047F803002038
:10F9400000F0C8BA0949CA1350B10120086000206C
:10F9500008600B1D18604FF4E0500860044803E095
:10F96000032008600248001D02607047405C0040B0
:10F970001008014010B50B4C0B48A2880078824259
:10F9800000D902461AB907490020143908718020AD
:10F99000216801F017FF216801442160A188081A3D
:10F9A000A08010BDD8040020EF86010810B5064CD9
:10F9B0000020A288216801F047FB216801442160F2
:10F9C000A188081AA08010BDD8040020704700212B
:10F9D000FDF7A2BD43F22001FDF79EBD2DE9F047E2
:10F9E0006E4F0446A7F1080580074FF00009A5F106
:10F9F000140622D501F0B0FE3878C009FFF7E6FF03
:10FA0000F888A8803878C0F3411121B101295AD073
:10FA100002296FD165E07978DFF884810C2969D2F9
:10FA2000DFE801F0060C6813681827682B313846A8
:10FA300001F032FC1FE0FFF79DFF67E0002005E0CA
:10FA400001F09AFED8F8000039E0012001F062FCD4
:10FA5000C0B3F5E710F01F0F4CD1B878012140F08A
:10FA60008000307000F07F0001F068FE01F084FE3D
:10FA70004CE001F011FB28B3DDE710F01F0F39D186
:10FA800046481B3812E001F095FCD8B101F074FE35
:10FA9000444813E000F01F0001282BD1707888B192
:10FAA0003879B178884225D23F4908442860C2E7B6
:10FAB00001F044FD30B101F05FFE3C48006828B31E
:10FAC000804723E016E010F01F0013D0012811D169
:10FAD00000F004F9D0B900F05DF9B8B900F0AEF863
:10FAE00007E010F01F0F05D100F082F970B900F0A7
:10FAF000C3F958B93878000603D4F88808B1002053
:10FB000000E0802001F024FEA5F80490600721D5D4
:10FB1000387800061CD4A888E0B1FFF747FFA88812
:10FB2000C0B93878C0F3411161B101290AD110F090
:10FB30001F0007D0012805D100F062F850B900F08D
:10FB400037F838B9802001F003FEA5F8049001E0F1
:10FB500001F018FE200712D53878000606D5A888CF
:10FB6000317908430BD0FFF705FF08E03078010634
:10FB700005D500F07F003070002101F0DFFD600648
:10FB800002D50020FFF780FE200604D5BDE8F0472F
:10FB90008020FFF779BEBDE8F0870000E004002078
:10FBA0007087010868870108EB0300206C87010853
:10FBB00010B51049104A08791278904203D00F4AC4
:10FBC0001278904214D1487820B1022805D020281C
:10FBD0000ED10AE0FFF732FE02E04888FFF730FE60
:10FBE00030B101F0C9FD012010BDFFF733FEF7E78A
:10FBF000002010BDE0040020F4020020F5020020E7
:10FC000010B50B490B4A08791278904203D00A4A82
:10FC10001278904209D14878092806D100F064FB97
:10FC200018B101F0A9FD012010BD002010BD000099
:10FC3000E0040020F7020020F902002070B52249FC
:10FC4000224A08791278904203D0214A12789042D1
:10FC500037D11D4849781F4C1F4D408804291FD0BB
:10FC600007DC79B101290FD002290BD0032928D153
:10FC700011E0202906D0212919D022291AD02329C0
:10FC80001FD11AE02C6010E0FFF7DEFC05E02C60CD
:10FC9000FFF770FE09E0FFF7D5FC0028F7D110E070
:10FCA000FFF7A6FB0BE001F067FD012070BDFFF739
:10FCB000CDFCF2E7FFF7C6FD01E0FFF79DFD002850
:10FCC000F1D1002070BD0000E0040020F40200200B
:10FCD000F502002090200020D80400202DE9F041FA
:10FCE000244E254930790978884203D02349097880
:10FCF00088423CD17078224C224D234F0C2836D2BA
:10FD0000DFE800F03506212C353535353516243140
:10FD100000F006FA58B3F078012802D0032803D087
:10FD200003E01A48206000E02560FFF723FE12E0A0
:10FD3000F078022802D0032803D00CE01448206099
:10FD400009E0256007E000F0D3F909E000F0A6FA29
:10FD50000BE001F011FD0120BDE8F08100F0D6F9C3
:10FD600028B12760E1E700F0B5FA0028F1D10020C2
:10FD7000F2E70000E0040020F7020020F902002072
:10FD8000D8040020F603002090200020D12000207D
:10FD90001221002010B51248124A017912789142BE
:10FDA0001BD142784188C088FE2A09D0FF2A14D18D
:10FDB00099B990B901F098F878B101F0DDFC0AE04A
:10FDC00059B9012809D100F0A7FD30B1074906480B
:10FDD0000860FFF7CFFD012010BD002010BD00001E
:10FDE000E0040020F802002090200020D804002029
:10FDF00070B51B4D1B4900266878097888422CD1C4
:10FE0000A888022829D1184CAA7812B3002003E050
:10FE1000217801B10C44401C411C8A42F8D820785A
:10FE2000B0B103F03DFA0146E01CFCF748FB0F4A75
:10FE3000012614602078E98881420BD90C49908012
:10FE40000978491E084206D10A490120087002E0DB
:10FE5000002602E09180FFF78DFD304670BD000066
:10FE6000E004002012870108AC030020D804002021
:10FE7000EF860108C804002010B5104A104900247C
:10FE800050780978884217D19088072814D10E4BF2
:10FE90000C48012418600189D2888A4209D90B488C
:10FEA00099800078401E014204D109490120087060
:10FEB00000E09A80FFF75EFD204610BDE0040020C0
:10FEC00013870108FE020020D8040020EF860108F5
:10FED000C8040020074800214170C16001614161F0
:10FEE000418081808161C161C18001810162418164
:10FEF00070470000E80400202DE9F047494EB08823
:10FF000071884A4FDFF820817D1C0024884216D377
:10FF1000B069A0B97461B480012339787A1C18469D
:10FF200007F0A4F87080708848B1776198F80000F5
:10FF3000012801D8756102E07088401C70807088CB
:10FF40004FF00109B0BBF06808B1F46032E03169EC
:10FF500081B398F8000001280DD83C70B4800223CA
:10FF60007A1C0021012007F081F87080708800B1B0
:10FF7000756134611EE03D78C846202D00D3002510
:10FF800008FA05F0084218D0681CC1B23970B48074
:10FF900002237A1C012007F069F87080708818B17C
:10FFA00077617088401C7080306908FA05F820EA93
:10FFB00008003061708830B902E06D1CEDB2DCE7FA
:10FFC000B069002829D07088B188DFF86880401AAD
:10FFD00085B2174F98F8000037F81000A84200D2F9
:10FFE00005461548007828B140F080002A4671691E
:10FFF00001F0E8FB7069114928447061B088284419
:020000040801F1
:1000000080B2B0800988884209D298F8000037F899
:100010001000A84203D1C6F81890BDE8F087B4617B
:10002000FBE70000E8040020FA860108D020002049
:10003000F6860108C7040020F0860108FC86010846
:10004000F8B51C4C1C4D1D4F2089002618B9E561E0
:100050003888E0802681E0882189421A1848E169C1
:10006000007800F0F1FF0004E169000C0144E16157
:10007000218901448BB2238109D039888B4206D271
:10008000114A1049127831F81210814210D90F48E4
:10009000017801200129009003D80021064A02209E
:1000A00003E029786A1C02205B1E07F071F82681A4
:1000B000F8BD0000E804002011210020FE860108A0
:1000C000F1860108F6860108C7040020FB860108B6
:1000D00010B50446000702D52046FFF70DFF600764
:1000E00004D52046BDE81040FFF7AABF10BD0000B0
:1000F000034804498078085C034908700120704770
:10010000E0040020F40300209020002010B506F049
:10011000ABFF02490870012010BD000090200020B4
:100120000B4910B5C8780022012804D0022804D059
:10013000032806D103E0074A02E0002010BD064A6A
:10014000521C8978002306F091FF012010BD0000A9
:10015000E0040020D0200020F50300202DE9FC5F02
:100160004548007800287DD0444D04230026297896
:10017000B146481C28704248007800EB400293408A
:100180005B1E0192994202DB85F8009001263D4AF0
:1001900000241188FF2901D2491C11803A4931F805
:1001A0001000384900900988884200D1012439495B
:1001B0000020DFF8D8804FF0010BDFF8D4A091F8D1
:1001C00000E045E0002276B11AF800105346FF29FE
:1001D00001D2491C195418F8001021B11AF8003046
:1001E0008B4200D30122019918F8007002238B4042
:1001F00007FA03F1009B994202DA0FB1012300E0F4
:1002000000233CB133B1D5F810C00BFA00F141EA3C
:100210000C0129612049095C8F420ED01AF8007048
:100220008F4208D3D5F810C00BFA00F747EA0C0745
:100230002F6185F8009008F800103AB123B92A69B7
:100240000BFA00F1114329610AF80090401CC0B27A
:100250007045B7D314B10B49A1F800902869002864
:1002600008D000E006E06888002803D1BDE8FC5F04
:10027000FFF742BEBDE8FC9FC5040020E804002053
:10028000C7040020F0030020F2860108F3030020D9
:10029000F2030020FA860108F40300200948094906
:1002A0008078C97810B1084A815409E0084A0020D2
:1002B000064B127802E01954401CC0B29042FAD3A7
:1002C00001207047E0040020F3030020F403002025
:1002D000FA860108034810B5807806F057FF012020
:1002E00010BD0000E00400200C4908B5C8780022C9
:1002F000012804D0022804D0032806D103E00020FE
:1003000008BD074A00E0074A521C00230093CB882F
:10031000897806F03DFF012008BD0000E0040020C0
:1003200011210020F50300202DE9F041EFF31080AA
:1003300072B6DFF8D8800022D8F8104080F3108819
:10034000C8F81020600507D501F08EF906F0CAFF45
:100350002F48006800B18047200505D501F01CFA40
:100360002C48006800B18047E00405D501F020FA70
:100370002948006800B18047A00503D527480068D8
:1003800000B18047264D600403D5296809B10220D9
:100390008847244FA00427D5296829B3012022E0EB
:1003A000EFF3108372B620480B2250F82100491C4D
:1003B000B1FBF2F602FB161183F3108886B2050C2E
:1003C000C8F80810280604D557F8261009B10820E7
:1003D0008847280408D557F8261029B1280501D5E3
:1003E000022000E00420884720040DD5EFF310829E
:1003F00072B6D8E90210814201D1012000E000204C
:1004000082F310880028CBD0BDE8F081F8030020EB
:1004100014870108188701081C8701082087010834
:10042000248701082887010814220020064810B5F7
:10043000C16941F40001C161142001F049FA034986
:100440004FF40040086010BD001002401408014045
:1004500070B500F005F900281CD00F4802220F4D9E
:10046000027042700E4C03202A632870A068022894
:1004700003D9A4F11F008260A2600A4806490078EF
:1004800040F0800001F09EF9A068296B401AA0603E
:100490000120207370BD0000522100200C050020B7
:1004A000A328002000870108114910B50878022808
:1004B00008D0032810D0042812D0052801D100202C
:1004C000087010BD0B48C07B282801D0A828F8D19F
:1004D000BDE8104000F064BABDE8104000F03CBD3B
:1004E0000548007840F0800000F04EFDF4E7000081
:1004F0000C0500208428002000870108204A10B540
:10050000117869B301290ED01E48052900781BD047
:1005100007292BD000F038FD1B4902200873BDE8E5
:10052000104000F019BD18481F38C07B2A2803D09E
:100530002F2805D0AA2822D1BDE8104000F004BB26
:10054000BDE8104000F096BA012181400F480068D4
:10055000014201D0012000E0002040F23F4200E0D3
:1005600009E0BDE810400AA101F06BBA002010704C
:10057000106B1F2803D1BDE8104000F0D5B810BDA6
:100580000C05002001870108A3280020D0040020CA
:100590002E2E5C2E2E5C2E2E5C736F757263655C46
:1005A0007573625C6D73635C757362645F6D7363B6
:1005B0002E630000104910B54868C86008B10120DA
:1005C00010BD0E4800F11F0482687AB1007B00065E
:1005D00004D50B48007840F0800005E0A068096B66
:1005E000884203D00748007800F0CEFC0120207339
:1005F00000F0B2FC002010BD0C0500208428002073
:1006000000870108018701081048007900F08F0178
:10061000080605D501F00F004FF48032824001E05A
:1006200001228A400A48007840F0800088420CD1BC
:1006300008490968114208D00749084A09689142E7
:1006400003D10D22044901F0BDB87047E004002039
:1006500000870108D0040020A328002055534253EE
:1006600070B50A48022400F11F05816831B1007B92
:10067000000608D40648007800F086FC2C7300F0D1
:100680006BFC002070BD012070BD0000842800209C
:100690000187010810B50E480E4C8068216B884216
:1006A00002D82063032000E0042020700A480B4990
:1006B000226B007840F0800001F084F80448226B3F
:1006C0001F308168891A81600021017310BD00000C
:1006D000842800200C0500200087010852210020FA
:1006E000064810B5028807480549007800F0ACFCC0
:1006F00005490863BDE81040FFF700BF0687010801
:1007000052210020018701080C05002010B5044685
:10071000400702D50020FFF7E3FF200703D5BDE81F
:100720001040FFF7C1BE10BD2DE9F047734E326B8C
:100730001F2A01D2134600E01F230020704D71498B
:1007400002E00C5C2C54401C9842FAD3DFF8BC91B8
:100750000127DFF8B4A199F800001F2A40F08000BB
:100760007ED129686A4A91427AD1654C69681F3402
:100770006160A968A160697B19B9A97B09B11029D9
:1007800001D927738AE0E97B4FF002082A293ED07D
:1007900022DC1A294FD00FDC0429F2D006DCE9B3A1
:1007A0000329EED1BDE8F04700F05CBB1229E8D187
:1007B000BDE8F04700F0B8B8232944D007DC1B2976
:1007C00035D01E29DDD1BDE8F04700F0DBB8252982
:1007D0003DD02829D5D148E09E2940D00FDC5529AD
:1007E000CFD004DC2F2954D03529CAD103E05A29AF
:1007F00025D09129C5D1BDE8F04700F0F5BBA1296E
:1008000029D0A3295DD0A8292FD0AA29B9D100F0D9
:1008100075FA002805D0287B000600E003E04BD4E1
:100820003770BDE8F087BDE8F04700F0E5BBBDE8F4
:10083000F04700F0BFBBBDE8F04700F037BABDE8B5
:10084000F04700F007BABDE8F04700F0D5BABDE8C0
:10085000F04700F0A9BABDE8F047FFF7F9BD00E0A6
:1008600032E0BDE8F04700F051BB00F047FA002845
:10087000D7D0287B000605D586F80080BDE8F04774
:1008800000F08EB89AF8000000F07EFB84F80C802F
:1008900004E0287C800705D400202073BDE8F047E1
:1008A00000F05ABB00F02AFA0028BAD0287B0006D4
:1008B00002D437703762B4E799F8000040F0800046
:1008C000E2E700F061FB5CE74C4600F05DFB20785E
:1008D000104C00F00F014FF48030884021685546DD
:1008E000084320609AF8000000F04EFB287887400B
:1008F0002068074306202760307092E70C0500202F
:100900008428002052210020018701080087010867
:1009100055534243D40400200249002008700120AE
:10092000704700009020002010B5FFF799FE0028C6
:1009300020D0114B0020802118705970022199702D
:10094000D97020241C7158719871D8710B480168B6
:1009500008200A7812B11A54491C00E01C54401CAB
:10096000C0B22428F5D3064924200863BDE810400E
:10097000FFF790BE10BD000052210020A803002008
:100980000C0500200548C07CC107044800F11F0089
:1009900000D00121017300F0DFBA0000842800209C
:1009A0002DE9F0412E4D2F4F0026A969686ADFF826
:1009B000B88088420AD33878002440F0800000F0E4
:1009C000E3FA88F80C6000F0C7FA08E028492748E5
:1009D000097830F81140E86A844200D30446FFF7F2
:1009E000E9FD00B90024A86A48B374B1A96AE869AE
:1009F00022460144387840F0800000F0E3FEA86A07
:100A00002044A862E86A001BE862D5E90410AA6ADB
:100A10004143914203D1AE62696A08446862D8F8E2
:100A200008104046091BC8F80810002C05D0E96AD8
:100A3000002902D1032129700673BDE8F081002C42
:100A4000E3D0E96A28690144491EB1FBF0F2686904
:100A5000824200D90246E969686A06F0FBFBC5E7F5
:100A60000C05002000870108A32800200287010848
:100A7000C70400202DE9F0412F4C00252F4EA1691D
:100A8000606A884207D32E482563007800F07CFA1C
:100A9000357300F061FAFFF78DFD20B1206B08B3CC
:100AA000A06A10B10FE0256320E0E16A20690144EB
:100AB000491EB1FBF0F26069824200D90246E16949
:100AC000606A06F0C7FB00201E49A36A226B0BE098
:100AD000D4F81CC01F181CF8077011F800C0674537
:100AE00001D0256202E0401C9042F1D3A16A206B44
:100AF0000A18A262E16A0B1AE362D4E904714F4357
:100B0000974203D1A562626A11446162B168091A11
:100B1000B16000280DD013B12078052809D1206AD2
:100B200028B100203073BDE8F04100F015BA012073
:100B3000F8E7BDE8F08100000C050020A3280020A4
:100B400001870108522100202DE9F041344D002693
:100B5000344FA969686A884207D333482E63007806
:100B600000F012FA3E7300F0F7F9FFF723FD00B929
:100B70002E63296BA86A08442969884206D9BDE812
:100B8000F041FE2229A1002000F05BBF0020304987
:100B900005E0AB6AEC690A5C0344401CE2542A6B32
:100BA0009042F6D3A86A11000844A862EA6AA2EB50
:100BB0000102EA6222D092B988B129690844401E34
:100BC000B0FBF1F46869844200D904462246E96921
:100BD000686A06F059FBAE62686A20440DE0D5E908
:100BE000041202FB01F3834208D1E969686A06F046
:100BF0004BFBAE626969686A08446862B968286B31
:100C0000091AB960002809D0E86A10B128780528C7
:100C100004D13E73BDE8F04100F09EB9BDE8F0811B
:100C20000C050020A3280020018701082E2E5C2E31
:100C30002E5C2E2E5C736F757263655C7573625CDF
:100C40006D73635C757362645F6D73632E63000024
:100C50005221002010B5FFF703FD00281FD0FFF739
:100C6000A9FC00281BD00E480021062201700D4B64
:100C7000427081701A7AD201C27001714171817122
:100C8000C1710949082018638A68082A03D9A1F1AB
:100C90001F0290608860BDE81040FFF7FBBC10BDEC
:100CA000522100200C050020A328002010B5FFF7DA
:100CB000D7FC00281BD0FFF77DFC002817D00C487C
:100CC0000321002201700B4942700B7ADB01837013
:100CD000C2700420086308498A68042A03D9A1F174
:100CE0001F0290608860BDE81040FFF7D3BC10BDC4
:100CF000522100200C050020A328002070B5264CAE
:100D0000264DB4F81100E17C40BA000440EA01210C
:100D1000207D01430020C5E90910E07B2F280AD07F
:100D200004DC28280BD02A2819D104E0A8280DD0EB
:100D3000AA2814D106E0FFF73DFC002829D0E08A5C
:100D400041BA0CE0FFF736FC002822D0B4F81500B9
:100D5000E17D40BA000440EA0121207E0143286978
:100D60000D4E4143E962A06801251F3668B18842F3
:100D700010D0207B000604D50948007840F08000A0
:100D800001E00848007800F0FFF8357300F0E4F85F
:100D9000002070BD012070BD842800200C050020BB
:100DA000008701080187010810B5FFF759FC0028EA
:100DB0001CD0FFF7FFFB002818D00D4A0D489169A1
:100DC000491E0B0E03700B0C43700B0A8370C1702D
:100DD00011690B0E03710B0C43710B0A8371C17106
:100DE00008201063BDE81040FFF754BC10BD0000A0
:100DF0000C0500205221002010B5FFF731FC00281F
:100E000029D0FFF7D7FB002825D013480021134A2B
:100E10000170417081700821C17091690B0E0371DE
:100E20000B0C43710B0A8371C171022101721169AC
:100E30000B0C43720B0A8372C17209490C201063B8
:100E40008A680C2A03D9A1F11F0290608860BDE86E
:100E50001040FFF71FBC10BD522100200C050020E0
:100E6000A328002010B5FFF7FBFB002835D01B4856
:100E700070211B4B017000214170DC685A6832EA16
:100E8000040406D006248470282404734173DA60B5
:100E900008E0DAB1134A127BE2B105228270202207
:100EA00002734173C1700171417181710A22C27173
:100EB000017241728172C1728173C1730174417494
:100EC00012201863BDE81040FFF7E4BB02228270D5
:100ED0003A22E5E781700173E3E710BD522100205B
:100EE0000C050020A32800200449002008600449C4
:100EF000086004490720087001207047D4040020CE
:100F0000A32800200C050020FFF7EEBF10B5FFF767
:100F1000A7FB002817D00C48202200210270417046
:100F20000A4CC177032022632070094806490078E3
:100F300040F0800000F046FC0648226B8168891A68
:100F400081600121017310BD522100200C05002099
:100F500000870108A3280020084910B5064808604A
:100F600007480D22007840F0800000F02BFC054976
:100F70000520087010BD000055534253A3280020DF
:100F8000008701080C05002010B5044600F0E0FBC6
:100F9000200605D504F00F014FF48030884001E0B1
:100FA0000120A04002490A681043086010BD0000FB
:100FB000D00400200A4810B5817C00F11F0429B13B
:100FC00001202073BDE81040FFF7C6BFC07C054973
:100FD00000F00100486006F055F90020F1E700003C
:100FE000842800200C050020024900200873FFF728
:100FF000B3BF0000A32800200F4810B5816800F19E
:101000001F0469B1007B000604D50C48007840F04D
:10101000800001E00A480078FFF7B6FF012004E0F5
:10102000FFF7C8FA002805D000202073BDE8104063
:10103000FFF792BF10BD0000842800200087010840
:10104000018701087047000070B5104C00F00F03D5
:101050000F4D646804EB03139C689B8905EB440403
:10106000C3F30905954200D9154600236A1C04E024
:1010700034F8046B21F8026B5B1CB3EB520FF7D30F
:101080004FF44051FCF748FA284670BDF8030020A1
:1010900000600040FFF7B8BA2DE9FC414E4BA3F1C8
:1010A0001C051878A3F1080410F01F0002D00128D5
:1010B0006DD179E04949D878494E0A784649494F77
:1010C0001C390628C97810D006DC012809D002286E
:1010D00014D003287ED141E007282AD00F2879D1E7
:1010E00056E04148206012205CE0002A72D019B11D
:1010F0003E4820600A2055E03D48FAE70AB9012938
:1011000068D0022021B10097787000209A7809E019
:1011100000967070F9E700990B7813B14B88194469
:101120000091401C8242F6D10098017879B320608A
:1011300037E062B3072021B10096707000209A78E2
:1011400009E000977870F9E700990B7813B14B88A4
:1011500019440091401C8242F6D1E5E725480090F1
:101160009878032801D0002008E002F0E3F80BE0B3
:1011700000990A780AB111440091401C9978814283
:10118000F6D10098017811B1206000780AE021E0E2
:101190001948007800281BD018480090206001787A
:1011A000C1B14088019005E001A9684600F02AF825
:1011B00000280DD0A1880198814208D9104980B239
:1011C000A0800978491E084201D101202871012020
:1011D000BDE8FC810020FBE7E0040020ED8601086B
:1011E000C81F0020F602002098870108AB8701087D
:1011F000AA870108E6870108EE860108AC87010886
:10120000EF86010870B5194A194C1B4ED378194A5C
:101210002578212B1478154A127902D0222B22D15D
:1012200016E0AA4201D0A2421DD1144A1378144AF2
:1012300012780BB9012A16D042B1124A0260104648
:10124000114A128810443060092009E00F4AF5E77E
:10125000AA4201D0A24206D10D4830600D48008854
:101260000860012070BD002070BD0000E004002077
:10127000F7020020F9020020D8040020ED860108C2
:10128000C7040020F6020020FC020020C81F002036
:10129000748701089687010870B51C481B4C0078BC
:1012A000A4F1080410F01F000AD0184AA4F1140396
:1012B000174D59781279012806D0022824D109E067
:1012C0001248163820601DE0F1B1987882421BD296
:1012D000002015E002F08F00020605D500F00F0691
:1012E0004FF48032B24001E00122824009B9000788
:1012F0000AD19868104207D0D868104000D0012069
:1013000028802560012070BD002070BDE004002011
:101310009020002070B5264B02461946187849885F
:1013200010F01F00A3F11C0604D0012829D00228C8
:1013300027D111E0012924D132B1012000F040FA77
:10134000F08840F0020005E0002000F039FAF08853
:1013500020F00200F08029E0187900F08F042006C8
:1013600005D504F00F004FF48035854001E00125DC
:10137000A540707828B1200703D0B068284200D07B
:1013800009B1002070BD2AB1204600F0E1F9F068F3
:1013900028430AE03069284208D12046FEF774FA53
:1013A0002046FFF777FEF068A843F060012070BD8B
:1013B000E00400202DE9F05F5A480026017811F082
:1013C0001F0F7DD1574F80781C3FB1464FF0010A67
:1013D0004FF4803B00287AD0534801783846C078D3
:1013E00009B901286CD008B1504C6CE0504C6AE04F
:1013F0006078022805D0042845D0052845D0072864
:101400005CD148486179807881423AD178702079FE
:101410004949B8700020474A098802E002F8009064
:10142000401C8842FAD30125B8460AFA05F0D8F8DC
:101430000810084202D02846FEF7C9FAD8F808106A
:101440000BFA05F0084203D045F08000FEF7BFFA22
:101450006D1C102DE9D34FF00110C8E902090120DD
:10146000C8F81090FEF764FAE0794006B8F8060074
:1014700002D540F0010001E020F00100A8F80600CC
:101480001CE060881BE0E67818E0BEB9A07800F0A8
:101490008F05280604D505F00F010BFA01F001E0D5
:1014A0000AFA05F0B96801432046B960FEF7F8F979
:1014B0002846FEF78FFA284600F02EF9207801E042
:1014C0002BE004E004442078002891D120E04D4630
:1014D00087F8019001245E46B9680AFA04F00842D0
:1014E00002D02046FEF773FAB96806FA04F0084203
:1014F00003D044F08000FEF76AFA641C102CEBD392
:101500004FF00110C7E9020500203D61FEF710FA17
:10151000044879788078884202D00020BDE8F09FA6
:101520000120FBE7E0040020ED860108F602002020
:10153000C81F0020EB030020FA0200202DE9F84F1D
:10154000444800273E460078BA4600F01F00B946DE
:1015500001287CD13F491C394878002874D00020EC
:1015600000903D4802780846C0780AB901286ED03C
:101570008B4608B1394C63E0394C61E06078022851
:1015800005D004280AD005281AD0072856D1617939
:101590009BF80100814251D0608850E02D48A77827
:1015A000E67801794FF00009B94247D18078B0421E
:1015B00044D1012000902B4810F807A0C6553DE00B
:1015C00024490879B84239D1A07800F08F085FEA41
:1015D000086005D508F00F004FF48035854002E023
:1015E000012505FA08F58878B04215D1DBF8081016
:1015F00020462943CBF80810DBF80C10A943CBF8A0
:101600000C10FEF74DF94046FEF7E4F9404600F0B5
:1016100083F849EA050911E056450FD119EA050F8B
:101620000CD1DBF808104046A943CBF80810DBF8D2
:101630000C10A943CBF80C10FEF7C9F9207804442C
:10164000207800289AD10098BDE8F88FFFE70020A5
:10165000FAE70000E0040020ED860108F602002011
:10166000C81F0020EB0300204FF0E0214FF4801052
:101670000023C1F88001BFF34F8FBFF36F8F1E4867
:1016800003601E48006818B14FF40050410001E0AB
:101690000020014608431A490968002901D04FF487
:1016A000007140EA010002D04FF4807101E04FF078
:1016B000000140EA0100134940F41C40086013484F
:1016C00011494FF050020360486802604FF09002E9
:1016D00082604FF0D0020A8048F2FF71C1600C496D
:1016E0004FF4485008600B494FF0800008604FF0FD
:1016F000140000F0EDB80000445C004024870108AD
:1017000020870108405C0040F8030020505C004046
:10171000005C00404C5C0040FBF7EABE10B5FEF7F1
:101720002DF8BDE81040FFF7EFBB10B5FEF716FD32
:10173000FEF728F800F0ABF910BD0000002903D136
:10174000024940F080000860704700004C5C004097
:1017500041F21001FBF7E0BE082202490020FFF72A
:1017600073BC0000E004002002484FF400710069DF
:1017700002F06CB94C00002000221146802000F0DD
:1017800021B800000248034902780020FFF75CBC42
:10179000EF860108902000200448016841F008010C
:1017A0000160016841F0040101607047405C004045
:1017B0000248016821F0080101607047405C004068
:1017C00070470000F0B5154F154606467A6800F0E0
:1017D0000F0002EB0012124B126803EB42040023CD
:1017E0006A1C04E031F802CB44F804CB5B1CB3EB79
:1017F000520FF7D3796801EB00114D60094901EBF5
:101800008000D0F8000CC0F30110012803D0302173
:101810003046FBF781FE2846F0BD0000F8030020AB
:1018200000600040005000402DE9F047244A106855
:10183000244F20F01F013B691943396100F4FE4138
:10184000C9431160DFF88090000448F2800632D569
:101850009046D8F8000001042DD510F00F0009EBD8
:101860008005D5F8004C07D1210405D5210503D406
:1018700079688989890515D064F31F4003F0C2FD9A
:10188000200406D544EA060040F68F710840C5F8EA
:10189000000C2006DDD5344348F60F700440C5F82F
:1018A000004CD6E72106EDD5C4F30E0161F31F40CD
:1018B00003F0A8FDE6E7BDE8F047FFF755BF0000DD
:1018C000445C0040F80300200050004000207047B6
:1018D000002809DB00F01F0201219140400980002F
:1018E00000F1E020C0F8001170470000EFF3088419
:1018F00000F00F010D2901D1EFF30984A18B04F150
:101900002005890500D52D1DC10600D4483500F0FD
:101910007FFAEFF3098000F07BFAEFF3088000F024
:1019200077FAEFF3148000F073FA284600F070FAAB
:10193000606900F06DFAA06900F06AFAE06900F0F1
:1019400067FA1248006800F063FA1048001F006848
:1019500000F05EFA0D48001D006800F059FA0B48CF
:101960001030006800F054FA08480830006800F0B1
:101970004FFA06480C30006800F04AFA432204A1EE
:10198000002000F05EF8FDF733FBFEE72CED00E0F1
:101990002E2E5C2E2E5C2E2E5C736F757263655C32
:1019A0006461706C696E6B5C486172644661756CF1
:1019B000745F48616E646C65722E630010B5002A16
:1019C00006DA22F00042D21D22F00703102203E0C3
:1019D000D21C22F003030C2213B19C188C4201D9B3
:1019E000012010BD024401448360C0E90021C91AEE
:1019F000D018884202D810600246F9E70020106033
:101A000010BD000010B5044603F072FB002805D09D
:101A10004FF6FF71DFF808C0206800DF10BD00003E
:101A2000A94B010810B5044603F062FB002803D05F
:101A3000DFF808C0206800DF10BD0000F94A010887
:101A400070472DE9F04116460F46002818D1EFF3F4
:101A5000108572B600231A461946184600F0F8F9A8
:101A6000040003D13146384600F04EFA85F3108861
:101A7000002C05D1EFF30380C00601D105F030FF43
:101A8000BDE8F0817047704700207047704770478D
:101A90007047704710B528220D490E48FAF7A2FD8D
:101AA00005F0E0FF0C4805F0D7FF05F009FE0B49F3
:101AB0000B4A0C4B08604FF40071B0FBF1F0116061
:101AC000094901221A60086009490848086010BDE8
:101AD00000820108E0110020C52401084005002013
:101AE0001C0500202005002024050020E00F002018
:101AF0002805002000B591B0FDF77CFC402801D9F5
:101B0000402000E060B181B2684604F083FF01002C
:101B100006D06846FDF796FC10B1012001F0CEFD1D
:101B200005F02EF80146402801D9402100E059B1C6
:101B30006846FDF76BFC38B181B2684605F00EF8D7
:101B400010B1012001F0BAFD01F0D0FD11B000BDCF
:101B5000044841788078814201D0012070470020FC
:101B6000704700000801002030B50546EFF31084EF
:101B700072B600F006F8A968081A84F31088401EAF
:101B800030BDEFF3108372B6D0E900128A4201D360
:101B9000501A02E080681044401A83F3108870479E
:101BA000EFF3108372B6C0E902210021016083F3D4
:101BB000108841607047000070B50446EFF310854F
:101BC00072B6D4E90001884201D0012000E0002073
:101BD00042220EA1FFF735FFE16820680E5C401C31
:101BE0002060A16888420CD302D14FF0010001E0CF
:101BF0004FF000004FF0470204A1FFF722FF002042
:101C0000206085F31088304670BD00002E2E5C2EBB
:101C10002E5C2E2E5C736F757263655C6461706CF4
:101C2000696E6B5C636972635F6275662E63000048
:101C300070B50446EFF3108572B6C06862688154CF
:101C40006068401C6060A16888420CD302D14FF0EC
:101C5000010001E04FF000004FF0300209A1FFF752
:101C6000F0FE00206060D4E90001884201D001202C
:101C700000E00020352203A1FFF7E3FE85F3108882
:101C800070BD00002E2E5C2E2E5C2E2E5C736F75A8
:101C90007263655C6461706C696E6B5C63697263CE
:101CA0005F6275662E6300002DE9F04114460E4612
:101CB0000746FFF766FF844200D22046054600240F
:101CC00004E03846FFF778FF3055641CAC42F8D387
:101CD0002846BDE8F0812DE9F04114460E4607463E
:101CE000FFF742FF844200D220460546002404E06C
:101CF000315D3846FFF79CFF641CAC42F8D32846A0
:101D0000BDE8F08110B508494FF400742246A1F1F6
:101D10001000FFF745FF22460449BDE81040A1F13D
:101D20001000FFF73DBF0000B81B0020C81D0020B9
:101D300000F0B6BC00F0B4BC02488079002800D0A6
:101D4000012070477A2800200248C079002800D07E
:101D5000012070477A2800200248407A002800D0ED
:101D6000012070477A2800200248007A002800D01D
:101D7000012070477A2800202DE9F0418E2121486A
:101D8000FAF76AFC204C214F8E2520681D4EB84280
:101D900010D1A5888E2D01D22A4601E04FF08E0287
:101DA00001D84FF08E0518491648FAF794FB002029
:101DB00086F847008E211448FAF74EFC2760A5806C
:101DC00041223546F11DE01DFAF785FB35F8480F35
:101DD00024F8480FA878A070E878E07082000949DC
:101DE00009484C314C30FAF776FB95F8440084F8FA
:101DF000440095F8450084F84500BDE8F04100F046
:101E0000BFB80000EC270020004F0020646C766B08
:101E1000074A92F84B10102901D30020704702EBBB
:101E20008101C86412F84B0F401CC0B2107070479B
:101E3000004F002010B5054C4121E01DFAF70CFCC5
:101E4000002024F8480FE07010BD0000004F002073
:101E50002DE9F047184F81461D4616468846F81D65
:101E6000FAF7C3FA441CB9F1000002D04146FAF770
:101E7000F3FB002006B1308005B12870F879002806
:101E800018D0444502D8F91D224604E0A4EB08000E
:101E9000C1194246C91DB9F1000F02D0B7F8480078
:101EA000308016B14846FAF716FB15B197F84A008C
:101EB00028700120BDE8F087004F0020014890F80D
:101EC0008C007047004F0020054A92F84B1029B152
:101ED00002F14C01016092F84B00704700207047FE
:101EE000004F002002488079002800D00120704770
:101EF000004F0020034890F88D00002800D00120FA
:101F000070470000004F00202DE9F0418846074649
:101F1000FAF76BFA104D441C41263146E81DFAF7DA
:101F20009BFB412C02D83946224602E0413CE11994
:101F300032462C46E81DFAF7CEFAA4F8488000F0A5
:101F40000BF908B1012003E000F008F900B102200C
:101F500084F84A00BDE8F081004F0020014981F873
:101F60008C007047004F00200149887170470000C5
:101F7000004F0020014981F88D007047004F00207C
:101F800070B5002211461046FCF711FB1848174C9B
:101F90000168216041686160008920810A2115483B
:101FA00000F012FE144E134D60B12868B04209D102
:101FB000A8880A2801D2AA8800E00A220D490B4805
:101FC000FAF789FA0A202660A0800146094800F045
:101FD000FBFD28B12868B04202D1A8880A2804D2A3
:101FE000BDE87040014802F031B870BD7A28002089
:101FF0003489010800FC0108646C766B0249887121
:10200000084602F023B800007A2800200249C8716F
:10201000084602F01BB800007A28002002494872E6
:10202000084602F013B800007A280020024908721E
:10203000084602F00BB800007A2800202DE9F04194
:102040000F4606464FF0FF340025DFF83C8012E0D3
:10205000705D082102F010FB84EA0064082041460C
:10206000002C02DA81EA440400E06400401E10F013
:10207000FF00F5D16D1CBD42EADB2021204602F0B5
:10208000FBFAC043BDE8F081B71DC1042DE9F04162
:102090000E4617462021C04302F0EEFA0446002502
:1020A000DFF83C8012E0705D082102F0E5FA84EA76
:1020B000006408204146002C02DA81EA440400E072
:1020C0006400401E10F0FF00F5D16D1CBD42EADB3C
:1020D0002021204602F0D0FAC043BDE8F081000084
:1020E000B71DC10470B514460D460646B2F5806FA3
:1020F00007D240F2DD120AA10020FFF7A2FC022065
:1021000070BD00F023FD08B1102070BD2A462146A5
:10211000304600F0B7FE0028F7D0202070BD000048
:102120002E2E5C2E2E5C2E2E5C736F757263655C9A
:102130006461706C696E6B5C647261672D6E2D6496
:10214000726F705C6961705F666C6173685F696E05
:1021500074662E6300000000002070470120704765
:1021600010B500231A4600F0D3FA002800D0012051
:1021700010BD10B505F0C2F9012800D0002010BD37
:102180002DE9F041154E144D4FF0006430780128D0
:1021900006D040F2371212A10020FFF752FC09E0EE
:1021A000B078022748B140F23D120DA10020FFF7A0
:1021B00048FC37700220BDE8F081204600F02CF882
:1021C00010B137702220F6E704F58064AC42F4D3F6
:1021D0000120B0700020EEE700BC0008DC00002009
:1021E0002E2E5C2E2E5C2E2E5C736F757263655CDA
:1021F0006461706C696E6B5C647261672D6E2D64D6
:10220000726F705C6961705F666C6173685F696E44
:1022100074662E630000000070B5204E04463078CE
:10222000012805D0FF221EA10020FFF70AFC18E0BC
:102230004FF48060B4FBF0F100FB1141022511B1B5
:1022400040F2071208E0F17869B1D6E902121144B0
:10225000A14208D04FF4877211A10020FFF7F1FBD3
:102260003570022070BD1C4A1C49944201D38C4237
:1022700011D30121F170C6E90240204601F0ACF90A
:10228000262803D00028EDD0357070BD204600F020
:102290005DFC0028F9D03570212070BDDC000020E5
:1022A0002E2E5C2E2E5C2E2E5C736F757263655C19
:1022B0006461706C696E6B5C647261672D6E2D6415
:1022C000726F705C6961705F666C6173685F696E84
:1022D00074662E630000000000C0000800FC0108C6
:1022E0004FF480607047000010B5282804D20649DA
:1022F00051F82000002805D1F72204A10020FFF7A3
:10230000A0FB0AA010BD0000FC8001082E2E5C2E50
:102310002E5C2E2E5C736F757263655C6461706CED
:10232000696E6B5C6572726F722E63000000000054
:1023300001460120282901D20148405C7047000075
:10234000010000202DE9F04789460446804600E060
:10235000641C2078402802D00028F9D163E060781E
:10236000622847D012DC522853D008DC422841D0E2
:10237000442848D0482840D04D2817D133E054286D
:102380003ED0552832D0562810D13FE0722840D098
:1023900006DC642837D068282FD06D2806D122E0CB
:1023A00074282DD0752821D076282FD020A520463E
:1023B000FAF71BF807462846FAF717F80646A01959
:1023C000C11908EB0902891E91422BD2BA1EA11C29
:1023D000FAF7C6F8324629462046FAF77CF8207804
:1023E0000028B6D11FE000F099FF01E000F09EFF49
:1023F0000546DCE700F054FFFAE700F08BFFF7E753
:1024000000F090FFF4E700F081FFF1E700F096FFA5
:10241000EEE7094890F82A0010B1074D2A35C6E7C3
:1024200006A5C4E73C44A4EB0800BDE8F087000023
:102430004552524F52000000648001086874747065
:10244000733A2F2F6D6265642E6F72672F64657605
:102450006963652F3F636F64653D40553F766572E4
:1024600073696F6E3D40563F7461726765745F6952
:10247000643D4054000000002DE9F043A3B08846BD
:1024800081461E461746802102A82A9DFAF706F9C2
:10249000002002AC03E02154401C7F2802D2295CBA
:1024A0000029F8D180212046FFF74CFFCDE90040FC
:1024B00033463A464146484604F056FF23B0BDE84D
:1024C000F08370472DE9F0411E4615460C4607463D
:1024D00005F076FB2C4890F8201003290FD0022C31
:1024E0000FD004B3012C0AD10168A94207D190F89A
:1024F0002210A9B300214A1E016082608161BDE8FB
:10250000F0810068A842FAD1304605F0BFF80446D1
:10251000304605F0BDF80646384603F047F8034656
:102520002246314617E0384603F040F80328E6D04B
:10253000304605F0A9F88007E1D4384603F036F8B4
:102540000746304605F0A2F80446304605F0A0F8EC
:1025500001463B4622462846BDE8F04104F000B95A
:1025600028220A490848FAF73DF803F01FFE0848F8
:102570008178012903D14178022900D18170BDE819
:10258000F04103F01BBE0000E011002000820108B2
:10259000080100202DE9F0411D4E0446174696F82B
:1025A00022008846550260B92946404602F0BAFF2B
:1025B000032802D0214604F07DF896F82200002876
:1025C0000FD07068A0420CD8F068A0420BD008D998
:1025D0003069401C00D134613069A04200D2044609
:1025E0003461BDE8F081F0692A461044F061E019D9
:1025F000F06096F8230020B1BDE8F041002004F01F
:10260000FFB841462046BDE8F04103F0EFBF0000AF
:10261000E0110020F0B518A185B009680491027896
:10262000002104AB5C5C944224D0491C0329F9D3FB
:1026300012A1002291E878006F46815C8DE8780055
:10264000A1F1610CBCF1190F14D9202901D205297F
:1026500010D14FF0000C17F80CE08E450AD00CF1A9
:10266000010CBCF1100FF6D3521C0B2AE5D301204C
:1026700005B0F0BD0020FBE7E5002000222A2B2C4E
:102680002E2F3A3B3C3D3E3F5B5C5D7C034800693E
:1026900008B1012070470020FCE7000064800108B9
:1026A00070B50D4D00202C7874B100212970A978E7
:1026B00009B100F09DFB022C05D06978032902D0F6
:1026C000002800D1252070BD40F26B1203A100202C
:1026D000FFF7B7F9022070BDAC0000202E2E5C2E53
:1026E0002E5C2E2E5C736F757263655C6461706C1A
:1026F000696E6B5C647261672D6E2D64726F705CC5
:10270000666C6173685F6465636F6465722E6300F5
:1027100070B51C460546302901D3012000E0002099
:10272000472212A1FFF78DF9286A696A1C4E0CB97D
:10273000002232711B4A91420AD11B49884201D1C1
:10274000022070BD1849FC3988420CD1012070BDAF
:10275000284604F083FE18B11CB90120307100E056
:102760000CB1032070BD002070BD00002E2E5C2E29
:102770002E5C2E2E5C736F757263655C6461706C89
:10278000696E6B5C647261672D6E2D64726F705C34
:10279000666C6173685F6465636F6465722E630065
:1027A000AC000020089996978F9E939B2DE9F05FCF
:1027B0004FF00004DDF828B05FEA030A904689462E
:1027C0000746254611D05FEA0B000ED00020CAF85C
:1027D00000000646CBF80000FFF7BEFC80B1294898
:1027E000022F06D0032F04D032E0712243E00646C8
:1027F00018E0B8F1000FFAD08145F8D01B2428E08A
:10280000FFF7ACFC20B3012F02D0032F0CD01FE048
:102810004FF00061B8F1000F03D0894501D01A24B0
:1028200017E00E4618480FE01848006980B10C30D8
:1028300003E08168012909D0143001680029F8D12A
:1028400041680029F5D11248056802E00668FAE7F8
:102850001C24FFF779FA08B9012F03D024B12046D0
:10286000BDE8F09F1C24FAE725B1CAF80060CBF858
:102870000050F4E7B82207A10020FFF7E2F8022099
:10288000EEE7000000C00008FC8101086480010838
:10289000C08101082E2E5C2E2E5C2E2E5C736F756F
:1028A0007263655C6461706C696E6B5C64726167B5
:1028B0002D6E2D64726F705C666C6173685F646509
:1028C000636F6465722E630030B5154C0023617828
:1028D000012904D0022904D003291FD103E0114BA0
:1028E00017E0114B15E02179C1B110490969A9B16F
:1028F0000C3107E0844204D84C68844201D34B6811
:1029000006E014310C68002CF4D14D68002DF1D193
:1029100023B11044984201D3012030BD002030BDC6
:10292000AC00002000BC000800FC01086480010825
:1029300010B50C4C207830B1DA220BA10020FFF743
:1029400080F8022010BDFF2230211448F9F77CFEE8
:102950000120207000206070A060E0602061A07005
:10296000E07010BDAC0000202E2E5C2E2E5C2E2EB2
:102970005C736F757263655C6461706C696E6B5CCF
:10298000647261672D6E2D64726F705C666C61732A
:10299000685F6465636F6465722E6300880700205A
:1029A0002DE9F04116460F4605460024FFF7D6FBF9
:1029B00050B1032D08D10648006928B13146384688
:1029C000FFF762F800B11D242046BDE8F081000049
:1029D000648001082DE9FE4F06464D48894615469C
:1029E0000178012907D0EF224AA10020FFF729F83A
:1029F0000220BDE8FE8FC1784FF0010A19B9C66008
:102A0000066180F803A0804680780327002869D1FA
:102A1000D8F8101042468E4201D1012000E000207B
:102A20002944C8F8101048B39068C0F13004AC4293
:102A300000D92C46444A494610442246F9F74BFD3A
:102A4000D8F808002D1B2044A1442644C8F80800EB
:102A5000302839D3444602D14FF0010001E04FF055
:102A6000000040F211122BA1FEF7EBFFD4E9021295
:102A700001233548FFF74CFE607001E088F80170D3
:102A800001A8009002AB0122444698F80100D8F852
:102A90000C10FFF78BFE08BBFFF75EF928B12A493F
:102AA0006078A268FFF77CFFC0B9A0784FF49A72F3
:102AB00080F0010017A1FEF7C4FF019800F030F983
:102AC00060B984F802A002E098F8020098B1444688
:102AD0001D49D4E9022000F087F808B1277088E783
:102AE000A07840B12A464946304600F07DF810B142
:102AF00088F800707DE72A4649463046FFF7E4FE35
:102B00000028ECD0022188F80010132071E70000A3
:102B1000AC0000202E2E5C2E2E5C2E2E5C736F756A
:102B20007263655C6461706C696E6B5C6472616732
:102B30002D6E2D64726F705C666C6173685F646586
:102B4000636F6465722E63008807002010B5EFF391
:102B5000108472B6FAF7FEFC84F3108810BD0000F2
:102B6000FEB5184E054672787468AA4226D0002732
:102B700072B194F83800800700D5F5B90097019735
:102B800002976168002304F1180002F0ABFD38B130
:102B90009DB194F83800800704D5707810B10CE02E
:102BA0000C20FEBDCDE9005702972168002304F1F7
:102BB0001800F26802F096FD10B175700020FEBD9D
:102BC0000B20FEBD7000002001444FF40032A0F144
:102BD0000060491E904205D2A1F10061914201D2EC
:102BE00001207047002070472DE9F0473D4E054613
:102BF0000024707817468846012807D07B223AA126
:102C00000020FEF71EFF0220BDE8F087F0784FF0AD
:102C1000020A50B9284602F067FB040002D086F889
:102C200001A05CE00120F0707561B068B5FBF0F1C7
:102C300000FB11516A1A7169B1FBF0F300FB13102C
:102C4000081A824204D0284600F026F90400E6D192
:102C50003069B5FBF0F100FB11516A1A7169B1FBE3
:102C6000F0F300FB1310081A824204D0284602F049
:102C70003BFB0400D3D1B1464E46D6E901010844DE
:102C8000A84207D8284600F007F9040002D089F8C6
:102C900001A024E00FB3D6E903010844A84204D8F8
:102CA000284602F021FB0400F1D17068B168B146FA
:102CB000281A0E1AB74200D23E4618493246084436
:102CC0004146F9F708FC36B1002089F80200354486
:102CD000B044BF1BD0E70120F7E7C9F814502046E5
:102CE00092E70000C00000202E2E5C2E2E5C2E2EBF
:102CF0005C736F757263655C6461706C696E6B5C4C
:102D0000647261672D6E2D64726F705C666C6173A6
:102D1000685F6D616E616765722E6300B8070020A1
:102D200070B51F4D0446687808B1472226E024B3E9
:102D3000606810B3A06800B3E068F0B12069E0B14A
:102D40006069D0B1A069C0B1E069B0B1FF224FF4B1
:102D500080611448F9F778FC0126AE700020E87015
:102D60006860A860E8602861C5E9050420688047BC
:102D7000040008D1287838B110E04D220AA10020C3
:102D8000FEF75FFE022070BDA8690069804704005D
:102D900004D0A86940688047204670BD6E70FBE78C
:102DA000C0000020B80700202E2E5C2E2E5C2E2E98
:102DB0005C736F757263655C6461706C696E6B5C8B
:102DC000647261672D6E2D64726F705C666C6173E6
:102DD000685F6D616E616765722E630010B50446B1
:102DE000FFF7C8F80148047010BD0000C0000020C3
:102DF00070B5154C0025607810B1012807D00AE0A5
:102E0000CC2212A10020FEF71CFE022070BD002083
:102E100000F042F80546A069406880470646FF2258
:102E20004FF480611648F9F70FFC0120A0700021D3
:102E3000E1706160A160E1602161616161700EB16A
:102E4000304670BD284670BDC00000202E2E5C2E7E
:102E50002E5C2E2E5C736F757263655C6461706CA2
:102E6000696E6B5C647261672D6E2D64726F705C4D
:102E7000666C6173685F6D616E616765722E630079
:102E8000B807002010B5EFF3108472B6FBF7D8FB3B
:102E900084F3108810BD000070B50E4E0546002466
:102EA000B07840B9B0690C498368D6E90102984707
:102EB00004460120B070FF220748B168F9F7C4FB4F
:102EC000B068B5FBF0F100FB1150281A7060204685
:102ED00070BD0000C0000020B8070020074800694E
:102EE00048B106480069D0F89C0120B10348006948
:102EF000D0F89C0170470148001DFBE76480010881
:102F00000748006948B106480069B0F8A00120B13F
:102F100003480069B0F8A001704701484088FBE70A
:102F2000648001080022034611461046184700003D
:102F30000E4910B509690E4B0C3109E0824206D8E2
:102F40004A68824203D30868D860086910BD14310A
:102F50000A68002AF2D14C68002CEFD1986800284A
:102F6000F4D00168D960006910BD000064800108D8
:102F700070000020002070470248006840F3000005
:102F8000401C7047080C01402DE9F043544885B0BF
:102F9000816941F004018161816901F004010491BA
:102FA000816941F008018161816901F008010491A2
:102FB000816941F010018161816901F01001049182
:102FC000816941F020018161816901F02001049152
:102FD000816941F001018161816901F00101049180
:102FE00040494A6822F0E06242F000724A6081691A
:102FF00041F00401816180694FF4004600F0040053
:103000000490394806600124DFF8DC90CDE90064C3
:103010000325A9F11409694648460395FAF7EEFB22
:103020000122570239464846FAF7CCFCCDE9007434
:10303000694648460395FAF7E1FBDFF8B0800122C4
:1030400040214046FAF7BEFC4020CDE90004694625
:1030500003954046FAF7D2FB012239464846FAF773
:10306000B1FCCDE90074694648460395FAF7C6FB02
:10307000012239464846FAF7A5FCCDE900746946B5
:1030800048460395FAF7BAFB012211464046FAF783
:1030900099FC1120CDE90040694640460294FAF7B8
:1030A000ADFB002231464046FAF78CFCCDE90064C6
:1030B000694640460395FAF7A1FB200200900220E2
:1030C0000190039569464846FAF798FB00F064FDC5
:1030D00007480490401E0490FCD105B0BDE8F08381
:1030E000001002400000014014080140000C0140A3
:1030F00040420F007047000028B100224FF40071D9
:103100000248FAF75FBC0122F8E70000000801401E
:1031100028B100224FF400710248FAF753BC012293
:10312000F8E700000008014028B100224FF40071C8
:103130000248FAF747BC0122F8E700000008014006
:1031400010B50E4CE07978B9FFF714FF48B10C4880
:103150000068C069804700280FD103F0F9F9012009
:103160000AE0E079002808D0FFF704FF002804D126
:10317000022003F0EDF90020E07110BD4C000020AA
:10318000C08101082DE9F04385B081460D481D46F8
:1031900016468846DDE90C410DC802AF87E80D00F0
:1031A000B81C04F0BAF80020CDE900478DF81200F1
:1031B0002B4632464146484602F05AFA05B0BDE871
:1031C000F0830000C8820108092800D92730303078
:1031D000C0B270471CB501AA69460A48FAF75DF902
:1031E000002807D00198402805DD312206A10020E3
:1031F000FEF727FC1CBD40220020009903F072FF5F
:103200001CBD0000B02800202E2E5C2E2E5C2E2E21
:103210005C736F757263655C7573625C6869645C2E
:10322000757362645F757365725F6869642E6300AD
:1032300070B5174C00204BF6FC356060A0604FF075
:103240000066E06029463046FFF7BEFC20B1294603
:103250003046FEF7F3FE60600E4D0F4E29463046B5
:10326000FFF7B2FC20B129463046FEF7E7FEA0602A
:103270000A4E4FF4806529463046FFF7A5FC00282A
:1032800004D029463046FEF7D9FEE06070BD00004C
:103290002C000020FC3B010000C0000800FC0108DD
:1032A000004870473C00002010B50C210948FFF78A
:1032B0008BFC00280AD04FF00060074A016A914257
:1032C00003D1406A0549884201D0002010BD012089
:1032D00010BD000020000008939D939B08999697CD
:1032E00010B5FFF7E1FF002802D04FF00060806AC0
:1032F00010BD000001484068704700002C0000200D
:1033000001488068704700002C000020004870478A
:103310001406002000487047D2050020004870477E
:10332000C505002000487047F3050020004870479D
:1033300094050020004870471D0600200048704793
:103340004600002070B5FFF773FF204801F014F924
:1033500001F044FF1D4831212030F9F79FF91B4847
:103360001B492030F9F7ABF819491848491D20309E
:10337000F9F7A5F815495E31A1F13E00F9F79FF87C
:103380001249A031A1F18000F9F799F80F48002403
:103390002030F9F72AF80D4AC1B20220A93200EB19
:1033A000410010700320507002200023A2F1890513
:1033B00008E02E5D1654401CC0B21354401C641C1F
:1033C000C0B2E4B28C42F4D370BD0000740500209A
:1033D0003C00002010B5124C207830B1622211A1BF
:1033E0000020FEF72EFB022010BD002211461046E1
:1033F000FBF7DDF808B11E2010BD00206070A07042
:10340000E070A060E060207120616061A0614FF415
:1034100080611248F9F720F901202070002010BDCA
:10342000DC0000202E2E5C2E2E5C2E2E5C736F7521
:103430007263655C6461706C696E6B5C6472616719
:103440002D6E2D64726F705C6961705F666C617364
:10345000685F696E74662E6300000000B80B002080
:1034600070B50E4D2868002816D10024FFF748FDDE
:103470000B4A08E029B10988814202D152F82400A0
:1034800009E0641CE4B252F824104B1CF2D1286805
:10349000002801D10348286070BD000038040020D6
:1034A0003C0400204089010810B5002305E0DC0041
:1034B00021FA04F4C4545B1CDBB29342F7D310BD71
:1034C0002DE9F047DFF8CC8004468A4698F80000E2
:1034D0002F4D17464FF00061012808D040F27912B5
:1034E0002DA10020FEF7ADFA0220BDE8F087894645
:1034F0004C4501D3AC4201D32320F6E7FEF72EFE64
:10350000B0B32E1B301FB84201D93A4600E0321F3B
:103510005146D8F81800FEF7B9FD0146C8F8180062
:103520002B48844209D22B48A4F1006420443A4637
:103530005146F8F7D0FF0020D7E7E019A84225D17F
:103540000AEB0600454610F8023C30F8042DC0781E
:1035500063F31F4242EA0060814201D02720C4E7A2
:10356000524639462046FFF78DFC10B12020BCE7BB
:103570000CE04FF4806217494846FEF7B3FD04465D
:10358000FFF756FE012068702046AEE72620ACE724
:1035900000BC0008DC0000202E2E5C2E2E5C2E2E9F
:1035A0005C736F757263655C6461706C696E6B5C93
:1035B000647261672D6E2D64726F705C6961705FFB
:1035C000666C6173685F696E74662E63000000004C
:1035D00000040008B80B002070B5134904461148D8
:1035E00009784FF00065012907D040F2BB120FA106
:1035F0000020FEF726FA022070BDAC4201D38442BF
:1036000001D3232070BDFEF7A9FD48B1AC4207D11C
:103610002846BDE870404FF480621249FEF762BD53
:10362000262070BD00BC0008DC0000202E2E5C2E81
:103630002E5C2E2E5C736F757263655C6461706CBA
:10364000696E6B5C647261672D6E2D64726F705C65
:103650006961705F666C6173685F696E74662E6322
:103660000000000000C000080246084810B500EB4A
:10367000810050F8040C002806D0114601F010FB20
:10368000BDE8104001F0FCBA10BD0000DC270020AE
:1036900008490748086001F033FD00F0B5F9002241
:1036A0001146054800F0F8F900F0B4F9FEE7000013
:1036B00000C0000808ED00E00D37010802490122B2
:1036C0004A700871704700004C0000200249012236
:1036D0000A70C870704700004C00002002490122A7
:1036E0008A704871704700004C00002002484FF477
:1036F0000061006900F0AAB94C00002002480421D2
:10370000006900F0A3B900004C0000204FF0000851
:10371000474646461625FEF72FFB00F0B7F9DFF8BF
:103720005CB2CBF81000FFF72FFC4046FFF7F0FC2F
:103730003846FFF7E1FC3046FFF7F6FCF9F748FEA4
:103740008F4C2088012800D000204FF495728DA165
:10375000FEF777F9E06E00B18047FFF781FE9648EB
:10376000006810B1C06800B18047207B800702D597
:10377000012002F0C3F9207BC00702D00120FFF72F
:103780002DFBFFF7DFFDFEF784F903F03FFDFEF7A9
:1037900095FB00285CD0002004F090F8002003F096
:1037A00061FC012100238BF808104FF00B091A4629
:1037B000824800F097F9032100F09CF94FF0000ACD
:1037C0004FF0FF32002140F63F2000F051F984B263
:1037D000A00507D59BF8060010B1012000F006F9FE
:1037E000FCF7A2FD600702D5022002F0B1FEE00660
:1037F00013D5032002F0ACFE0020FFF77BFC002075
:1038000003F030FC0020FFF783FC0020FFF774FC7E
:103810000020FFF789FCFEF739F9A00602D5032046
:1038200002F096FE200501D5FEF764F9200701D5C8
:10383000FEF729F9E00741D05A2004F06BF89BF815
:10384000080006283AD2DFE800F02D0E2D1D3905BC
:103850000120A1E78BF808A00020FFF74BFC002017
:1038600003F000FC2AE0B9F1000F04D0A9F1010037
:103870005FEA000922D1012003F0F4FB03218BF859
:1038800008101AE003F0E6FB18B10120FFF732FC44
:103890000BE00DB16D1E11D10120FFF72BFC8BF851
:1038A00008A00BE003F0D6FB18B102208BF808004B
:1038B00004E08BF808A04FF00B091625A0077FF550
:1038C0007FAFFFF73DFCFEF7DDF89BF800005C469C
:1038D00058B1E078012825D0022823D04FF0000805
:1038E00084F800A04046FFF713FCA07850B160793F
:1038F000012827D0022825D0002684F802A03046CF
:10390000FFF712FC607800283FF45AAF20790128B5
:1039100026D0022824D0002784F801A03846FFF7DB
:10392000EBFB4DE7B8F1010F01D0012100E00021D0
:103930005FEA0108D6D10128D4D184F800A084F828
:1039400003A0CFE7012E01D0012600E00026002EC3
:10395000D5D10128D3D184F802A084F805A0CEE700
:10396000012F01D0012700E00027002FD6D1012828
:10397000D4D184F801A084F804A0CFE74C00002043
:10398000648001082E2E5C2E2E5C2E2E5C736F75CB
:103990007263655C6461706C696E6B5C696E7465A2
:1039A00072666163655C6D61696E5F696E74657294
:1039B000666163652E63000038040020B965010864
:1039C00001498871704700004C000020FEF7B0BF2D
:1039D00010B5044640F20111F8F73EFE00F064FE17
:1039E00000202070BDE81040FEF7A2BF80B2DFF8D3
:1039F00008C000DF0020704715480108DFF804C048
:103A000000DF7047FD4F0108014900200860704742
:103A10000C0400200020704789B2DFF808C000DFE6
:103A200000207047A94B01080248DFF80CC000DFF6
:103A300000487047E8250020E94A0108DFF808C07F
:103A400000DF002070470000F94A010810B50C465D
:103A50000146EFF30380C006A0B202D0FFF704FED8
:103A600002E0DFF808C000DF204610BD75480108FD
:103A700091B280B20022DFF80CC000DFDFF808C08E
:103A800000DF7047D54801081D480108DFF804C071
:103A900000DF7047F150010870B50D4C0646002557
:103AA000206860B100231A460B213046DFF824C09D
:103AB00000DF05462068401C2060284670BDF8F7EE
:103AC0008DFB054A05493046DFF814C000DFF1E7F9
:103AD0000C04002075500108402200200A20030039
:103AE0006D4E0108024A01460020516070470000F7
:103AF0000C04002005480023054A816048F60B01AC
:103B00000448DFF814C000DF002070470C040020D8
:103B1000602500200950010875500108012805D0D2
:103B2000022805D003280BD0C72202E0BB2200E008
:103B3000BF2204A10020FDF784FFFBF759FAFEE73E
:103B4000C322F6E72E2E5C2E2E5C2E2E5C736F7534
:103B50007263655C72746F735C5254585F436F6E2E
:103B60006669672E63000000FEE7000007480168F1
:103B70004FF0E0204161002181610721016104488B
:103B8000016841F07F4101604017704718890108C2
:103B900020ED00E07047704770B58EB00CA907A803
:103BA000FAF764F80B98B0F5005F05D0B0F5205F28
:103BB00023D0B0F5405F22D001202549274D0024B5
:103BC0000968B1FBF0F02349B0FBF1F62248C5E9E2
:103BD0000004761EC5E903642148AC606C6181690C
:103BE00041F400618161806900F400600D90284615
:103BF000FAF73BFC28B1522223E00220DDE7042043
:103C0000DBE71648FAF74DFC08B1582219E070209E
:103C1000CDE90004029403940494059400226946BB
:103C20000E480694FAF7B9FB08B1652209E0296845
:103C30007008486300210948FAF750FC002804D0B6
:103C40006C2208A10020FDF7FCFE0EB070BD000044
:103C5000E802002000127A00002C01400C1B00201A
:103C6000001002402E2E5C2E2E5C2E2E5C736F7583
:103C70007263655C6869635F68616C5C73746D3303
:103C8000325C73746D33326631303378625C6770E6
:103C9000696F2E63000000002DE9FF5F8846DDE9B3
:103CA0000FA5044600EB08060020DDF838B02860B8
:103CB00092489146007930B120783A2840F0BA8095
:103CC0008E49002008718D488D4FC078C8B18B494E
:103CD0000020C8703A78391D0398F8F7FCFB387853
:103CE0000399014403912968084428608348C16806
:103CF000B7F801006FF30F010843397801447F489A
:103D0000C160B44218BF7D4F7ED020780A2818BF0A
:103D10000D287AD03A282AD03978002900F0DF809F
:103D200010F0100F00F00F0008BF093000F00F0274
:103D300073487978435C1A434254491CC9B279707C
:103D400090F800E00EF1050081426DD300216C4B2C
:103D500008461EF1050213D013F800C0401C614450
:103D6000C0B2C9B28242F7D851B1042763E025211D
:103D70006348F8F771FC002038707870B87055E02F
:103D8000B87800284DD15E4B0120B870B3F801001F
:103D900040BAA3F80100D97804297DD005DC69B1C7
:103DA000012962D0022962D03BE00A2902D00D2904
:103DB00004D036E0988840BAF88032E0F98839B10A
:103DC000504A1288914203D04F4A1288914248D1FA
:103DD000F9680A466FF30F021043884204D00120AD
:103DE000F8700227641C26E00020F87072464749EC
:103DF0000398F8F770FB4248017803980844039051
:103E000028680844286001E014E00FE03C49F868A5
:103E1000B1F801106FF30F000143394800780844EE
:103E2000F8603878002866D000203870641CB442EE
:103E30007FF46BAF00272868FF22ABEB00010398EB
:103E4000F8F702FC2D482968C068401ACAF800003B
:103E5000301BA8EB0000C9F8000004B03846BDE8EC
:103E6000F09F012038710027E5E70127E3E7286884
:103E7000FF22ABEB00010398F8F7E6FB2868F9682E
:103E8000081ACAF80000301BA8EB0000C9F80000AF
:103E90001B480179090300E007E0407941EA00107E
:103EA000F86004B00220BDE8F09F2868FF22ABEB69
:103EB00000010398F8F7C8FB2868F968081ACAF8DF
:103EC0000000301BA8EB0000C9F800000C488088F7
:103ED00040BA0004F86004B00220BDE8F09F797891
:103EE000252908D210F0100F00F00F0008BF09308C
:103EF0000001034A5054012097E70000F800002019
:103F0000B80F00200201002000010020BC0F00209B
:103F100070B5012A12D0022A10D0002301248C404F
:103F20000F268D00082911D3203D4168AE40B143D2
:103F300041604168AB400B4343600FE00823EDE76D
:103F4000046170BD022AFCD1446170BD0168AE40BD
:103F5000B14301600168AB400B430360012AF1D11A
:103F6000EEE770B5012A12D0022A10D000230124F6
:103F70008C400F268D00082911D3203D4168AE40AA
:103F8000B14341604168AB400B4343600FE00823FD
:103F9000EDE7046170BD022AFCD1446170BD016887
:103FA000AE40B14301600168AB400B430360012A9E
:103FB000F1D1EEE710B50F2303248A00082909D3B5
:103FC000203A4168934099434160416894400C43D2
:103FD000446010BD016893409943016001689440BA
:103FE0002143016010BD10B50F2303248A00082966
:103FF00009D3203A41689340994341604168944015
:104000000C43446010BD016893409943016001680E
:1040100094402143016010BD10B50F2307248A008E
:10402000082909D3203A4168934099434160416887
:1040300094400C43446010BD016893409943016073
:10404000016894402143016010BD00007FB50C4D14
:1040500004462846FEF77AFD002810D1FF221021E1
:104060006846F8F7F1FA20680090606801902089AE
:10407000ADF808006A4610212846FEF703FF7FBD11
:1040800000FC01082DE9F05FDFF800810446DFF84D
:10409000F89098F8000015468B46012805D0A2221A
:1040A0003BA10020FDF7CDFC3FE04FF48060B4FB66
:1040B000F0F300FB1343014602260BB1AB222EE0C6
:1040C0000A46954204D3B5FBF0F302FB135008B146
:1040D000B22224E0B4FBF1F002FB104028448842F5
:1040E00001D9B9221BE098F8020078B998F80300CA
:1040F00050B1D8F80800844204D3D8F80C10084412
:10410000A04203D8C7220AE0C12208E098F80400C0
:1041100070B1D8E904010844A04209D0CF221CA103
:104120000020FDF78EFC88F800600220BDE8F09FBB
:1041300025486719844202D22448874217D84FF095
:10414000010A88F804A02A4659462046C8E90445D1
:10415000FFF7B6F9262804D00028E7D088F80060D9
:10416000E4E75A4629462046FEF78CFE18B188F847
:1041700000602020DAE74F4503D3FFF759F888F8AD
:1041800001A00020D2E7000000BC0008DC000020F5
:104190002E2E5C2E2E5C2E2E5C736F757263655C0A
:1041A0006461706C696E6B5C647261672D6E2D6406
:1041B000726F705C6961705F666C6173685F696E75
:1041C00074662E630000000000FC010800C00008B7
:1041D0004FF480607047000070B514460E460546E7
:1041E00020444FF48061B1EB402F07D240F26322AC
:1041F0000AA10020FDF725FC002070BD4FF40071DE
:104200003046F8F729FA35B91148124900694201D8
:104210003046F8F760F9600270BD00002E2E5C2E6B
:104220002E5C2E2E5C736F757263655C6461706CBE
:10423000696E6B5C647261672D6E2D64726F705C69
:104240007669727475616C5F66732E63000000009E
:10425000200100200C17002010B50B464FF400740D
:1042600008B1002010BD224602491846F8F733F97C
:10427000204610BD4C1400202DE9F04F8A46410223
:1042800087B000234FEA422B1D460693029130B1BE
:10429000BAF1000F03D0002007B0BDE8F08F344C16
:1042A0002078012841D0022841D0002631A000907A
:1042B00059465046029A03F07BF80746304931A030
:1042C000CDE900013B4659465046029A01F0D0F92B
:1042D000074461882DA0CDE900013B465946504670
:1042E000029A02F053FCC4194EB12AA0CDE900068F
:1042F000234659465046029A01F0BAF9044406A8EA
:10430000FDF7E2FD060030D0069870B323A00090C0
:10431000234659465046029A03F04AF8044403AF34
:104320004FF00A084FF4007919E01FA6BEE721A656
:10433000BCE723A003AB07C883E80700069850F842
:1043400025106D1CEDB203A802F0E7FFCDE900785F
:10435000234659465046029A03F006F80444B542F3
:1043600003D204F10A004845E3D3204694E7000055
:10437000180100204173736572740D0A000000007B
:104380000812002046696C65000000004C696E65EB
:1043900000000000536F7572636500004865786423
:1043A000756D70730D0A0000426F6F746C6F6164FD
:1043B000657200004170706C69636174696F6E00B2
:1043C00000000000000000000D0A000030B4134699
:1043D0000C464202204630BC590202F02BBC0000C1
:1043E0002DE9FE4F044640028A464FEA422B002642
:1043F000029003F087FA0546FDF776FF0746284648
:10440000FDF796FF05462CB1BAF1000F02D000204F
:10441000BDE8FE8F20A0CDE900073346594650463F
:10442000029A01F025F904461DA000902346594642
:104430005046029A02F0BCFF0026044401274FF0C8
:104440000208DFF8649019E04FB918A1CDE900180F
:10445000234659465046029A02F086FF0444E80774
:104460000AD059F826000090234659465046029A31
:1044700002F09EFF044400276D08761C0DB1052E46
:10448000E2D30BA1CDE90018234659465046029AC3
:1044900002F06AFF2044BBE76572726F7200000091
:1044A000747970653A200000B48201082C20000065
:1044B0000D0A0000F8B5460255020F46002310B160
:1044C0000FB10020F8BD0D4800903246294638460D
:1044D00002F06EFF04460AA00090234632462946A9
:1044E0003846FDF7C9FF044406A000902346324633
:1044F0002946384602F05CFF2044F8BD3895010893
:104500004052000022293B0D0A3C2F7363726970F0
:10451000743E0D0A3C2F626F64793E0D0A3C2F6891
:10452000746D6C3E0D0A00002DE9F041094C064601
:104530000D462046F7F759FF074645B116B1002052
:10454000BDE8F081024621462846F7F7C4FF384609
:10455000F6E700006094010810B50B464FF40074B4
:1045600008B1002010BD224602491846F7F7B3FFF4
:10457000204610BD4C12002006490B68091D0A6830
:10458000091D09680360C0E901214FF0A531C16030
:1045900070470000E8F7FF1F10B508465402214697
:1045A000F8F75AF8204610BD70B5244D4FF0FF348F
:1045B0006878A978884201D0012000E0002040F20C
:1045C000F9121FA1FDF73DFA6878022803D0C0B1A7
:1045D00001281AD022E027484FF4FA7490F82000FE
:1045E000E0B101280AD0022818D0032816D040F2E2
:1045F0000B2213A10020FDF724FA0FE044F62064FB
:104600000CE0A878022808D008E0A878022801D099
:1046100018B103E040F6C41400E00024601C05D18A
:1046200040F21B2206A1FDF70CFA0024A868A04264
:1046300001D9012070BD002070BD000008010020DC
:104640002E2E5C2E2E5C2E2E5C736F757263655C55
:104650006461706C696E6B5C647261672D6E2D6451
:10466000726F705C7666735F6D616E616765722EE6
:1046700063000000E011002070B5202903D0002362
:104680001A4601260CE090FAA0F070BDC40704D0D1
:104690008D1A6D1E06FA05F423434008521CD2B24F
:1046A0008A42F3D3184670BD10B525210648F7F7A6
:1046B000D3FF06480021C160017041708170C17054
:1046C000C180017110BD0000B80F0020F80000206B
:1046D00070B505460E460846F7F787FE401C3C2895
:1046E00001D93C2003E03046F7F77FFE401C04462A
:1046F000024631462846F7F7EEFE002085F83B00DB
:10470000E0B270BD0146EFF3108000F0010272B616
:10471000086808B103680B60002A00D162B67047D0
:1047200070B50D46002812D04FF6FF71084C884234
:1047300004D222680146104600F0D4FA2068457081
:10474000044800F0F8F8BDE8704000F087BB70BD89
:1047500020040020F42500207047000070B51A4E98
:10476000F06800282ED0B08A401EB082002523E0D9
:10477000A06838B161684160606810B1A16881606B
:104780006560A56010482146183800F0CFFAA08A6D
:10479000B0826078042804D10C49E08A0988084472
:1047A000A0820120607084F82000E068F060E0687A
:1047B00008B10661E5602561B08A002802D1F4687D
:1047C000002CD5D170BD00000C260020280400204C
:1047D00070B504000FD00D4DA178012628688278AD
:1047E00091420CD900F0BEFA286846702046BDE818
:1047F000704000F033BB064800F09DF8F7E76670A4
:104800002146BDE87040024800F090BA2004002024
:10481000F42500200321FFF783BF00000148006852
:10482000408B70472004002010B50446008B0843DD
:1048300020836278618B062A16D0052A17D1084298
:1048400015D001EA0002628388432083204600F0ED
:10485000ADFA01206070022084F820002146BDE8F6
:104860001040034800F062BA31EA0002ECD010BDFB
:10487000F4250020024670B5154800EB810050F881
:10488000044C002C22D0208B104320836178658B50
:10489000062918D0052919D1284217D005EA0001A8
:1048A0006183A8432083204600F080FA208BA84330
:1048B000208301206070022084F820002046BDE89B
:1048C0007040FFF785BF35EA0001EAD070BD0000F7
:1048D000DC27002070B503460C480D460468208B89
:1048E00042B133EA000101D0062109E09843208358
:1048F000022070BD10EA030101D06183F6E70521B3
:1049000063832846FFF70CFF012070BD20040020C0
:10491000814202D342688A4201D801207047EFF3F6
:10492000108212F0010F72B603680B60016000D1B3
:1049300062B60020704701464068002342684A6022
:104940000A78022A05D0012A03D0032A01D0436045
:10495000704742680AB1916043608360704700000D
:1049600070B5044600201546207001226270A170C7
:104970006060A060E0602061A082E08220836083AC
:1049800084F8200084F82100608C18B90448FFF7EF
:10499000B9FEA06229462046BDE8704000F004B888
:1049A000202700207047000010B5428C920803D1E8
:1049B0000E4A1288C2F38D02836A03EB82035A0700
:1049C00000D51B1F4FF0807243E9021200221446EB
:1049D000403B43F82240521C0E2AFAD3C2691A62A5
:1049E0004362C162806A0249016010BD14890108F6
:1049F000A52E5AE20349044A0968C8821288104465
:104A0000888270472004002028040020074801689D
:104A100007488A8A0088CB8A101A1A4480B28A8290
:104A2000010402D40421FFF77BBE7047200400205C
:104A3000280400202DE9F041044640680F46002676
:104A400020B16078022818D0A08980B3A089E189BC
:104A5000884241D2208904EB8000076172B6A089A8
:104A6000401CA08162B62089401C80B22081E1896F
:104A7000884200D12681BDE8F08166702046FFF7AC
:104A80005AFF80F820602189054604EB8101C06946
:104A9000086172B6A089401CA08162B62089401CC2
:104AA00080B22081E18988420BD1268109E0FFE7AD
:104AB0002046FFF740FF0546C0690421076085F8DE
:104AC000201001206870284600F070F92946BDE8E2
:104AD000F041044800F02AB9BDE8F0410320FFF797
:104AE0001DB80000F4250020032101700021417051
:104AF00041804160816070472DE9F047044640885D
:104B000020B1274EA1683268914202D0FF20BDE853
:104B1000F087401E0004000C60803ED13168607850
:104B2000DFF88080887061684FF00009012739B391
:104B30002046FFF700FF0546052085F8200028469F
:104B400000F034F96780A560A87860703168D8F803
:104B500004008A788078824201D328460AE011480E
:104B600000F0E4F829460F4800F0E0F8306847709C
:104B70006F7010E0FFF72CFE316881F820900CE098
:104B8000D8F804108A783168824206D9054800F0C6
:104B9000CDF8306847700020ECE70020B7E7000050
:104BA00020040020F425002070B5184D0E46044660
:104BB0004188286839B1A168814208D16088401CC9
:104BC0006080002070BDA06080786070F6E776B1EC
:104BD00062788078824203D28870A06800F0CCF8B6
:104BE000606830B12046296800F0A0F808E0012094
:104BF00070BD28686060296800204860286884606B
:104C000009213046FFF78CFDF1E700002004002069
:104C100070B51848012102685170006800F0A2F8D0
:104C2000154D6C7812E005EBC40148680278C2B1FA
:104C3000012A1BD000F0E6F8E878641C844200D119
:104C4000002472B6A878401EA87062B6A878002822
:104C5000E9D16C700948FFF76EFEBDE8704000F0C6
:104C6000FDB8098989B2FFF7DFFDE5E78968FFF73D
:104C7000E1FEE1E720040020B8270020F425002011
:104C80000548017811B101214170704703494FF087
:104C900080500860704700001804002004ED00E018
:104CA000F0B40F4FBC1CFE783D4672B6BA78B242E3
:104CB00007D2521C22702A78531CB34200D1002321
:104CC0002B7062B6FB78934205D907EBC202C2E9AA
:104CD0000101F0BC7047F0BC0220FEF71FBF0000CE
:104CE000B8270020104A10B5D368ABB113469B8A91
:104CF00003E08CB12246A48A2344D4688B42F8D3C3
:104D0000C460D0600261C46804B12061591A818214
:104D1000908A401A908210BD0024C460D060C91AE5
:104D200002619182848210BD0C26002030B5027889
:104D30000024022A03D0012A01D0032A00D1012431
:104D40008B7800E01046426812B195789D42F9D206
:104D50004A6041601CB102B19160886030BD0020A2
:104D6000FBE7000003494A68426000228260486015
:104D700070470000F425002010B5836804462BB965
:104D8000607801280ED1084B03E09B681878002852
:104D9000FBD0204600F01EF82146BDE81040184622
:104DA000FFF7C4BF10BD0000F425002010B5016955
:104DB00000290ED0C268CA60C36800223BB18B8A4A
:104DC000848A23448B82C3681961C26000E08A82AE
:104DD000026110BD816839B142684A6041680029AA
:104DE00001D0806888607047054906E04A688242C1
:104DF00002D140684860704711460029F6D17047DB
:104E0000F425002010B5416879B1FFF794FD044600
:104E1000FFF7CCFF01206070032084F820002146BA
:104E2000BDE810400348FFF781BF4188491C41801D
:104E300010BD0000F425002006480068D0E90910E4
:104E4000814203D300680449884202D00120FEF762
:104E500065BE704720040020A52E5AE20249486032
:104E60000221417070470000200400202DE9F04726
:104E70001646414A81468846002005463D4912882B
:104E800002E041F82050401C9042FAD33B483022C7
:104E900001883B48FCF792FD3A48008880B240F018
:104EA0000042394801683948FCF788FD3848082233
:104EB000018838480068FCF781FD374CFF27374AE6
:104EC000E770658400212046FFF74AFD344804213D
:104ED0000170456033480170C56005618582606A74
:104EE0002030F7F775F930483149046002206070CE
:104EF0002E48057045700978C170FFF753FD2D48A5
:104F0000016841F47F0101600068390601EA002070
:104F10002849C0431439B0FA80F00968C0F108008C
:104F2000C1F30221814200DB481C2249091F0B68A2
:104F30006FF08072824063F317020A60FEF716FE7C
:104F40001D49002808600DDB00F1E02181F80074A4
:104F500000F01F02012191404011800000F1E0208B
:104F6000C0F80011324641464846BDE8F0470023EC
:104F700000F080B8DC270020128901082889010888
:104F800054260020148901082C89010820270020BC
:104F9000328901083404002024260020693B0108DE
:104FA000F42500200C26002020040020B827002033
:104FB0003089010820ED00E01C0400200C4810B5E9
:104FC0000268012151700068FFF7CCFEFFF7C4FBB7
:104FD00008480168491C0160FFF7C0FB00F02AF88F
:104FE0000548FFF7A8FCBDE81040FFF737BF0000F9
:104FF0002004002028040020F42500200148006837
:105000007047000028040020074CDFF820C02089EA
:1050100080B200DFDFF818C000DF61680029F9D036
:1050200000208847F6E700000C040020F54901083D
:105030000D4A010870B50D4D2868002815D0A888C4
:105040000B4E401EA8800AE0E088FEF7A4FDA08871
:10505000A8802068286021463068FFF759FCA8889E
:10506000002802D12C68002CEED170BD2C04002049
:10507000340400202DE9F0411E46174680460C46B8
:1050800011F0FF0F00D14C1C1548FFF73BFB051E2C
:1050900023D0200AAF626884E1B242462846EE611E
:1050A000FFF75EFC104901240E48098805E000EB7B
:1050B000840252F8042C1AB1641C8C42F7D90024E3
:1050C00000EB840040F8045CEC702846FFF780FB9E
:1050D0000648006880F820402046BDE8F0810000C6
:1050E00054260020DC27002012890108200400201B
:1050F00002480068002800D0C078704720040020D3
:1051000030B58FB014210AA8F7F7C8FA28216846ED
:10511000F7F7C4FAF9F714FFF8F770FC012500243B
:10512000CDE90A5429460AA8F8F7E0FC20B140224C
:1051300016A10020FCF785FC4FF48030CDE900502B
:1051400002250294CDE907504FF4E010099068461B
:10515000F8F720FE20B14C220CA10020FCF771FCD6
:105160000F20CDE90A054FF48060CDE90C40022103
:105170000AA80E94F8F7BAFC002804D0572203A11D
:105180000020FCF75EFC0FB030BD00002E2E5C2E20
:105190002E5C2E2E5C736F757263655C6869635F4D
:1051A00068616C5C73746D33325C73746D3332663A
:1051B00031303378625C73646B2E63007CB5DDE95B
:1051C00006540CB103A400E003A4CDE9005400F0A0
:1051D0004FFA7CBD31000000300000002DE9F0479F
:1051E00000242646FDF78CFEDFF8F4900546A04625
:1051F0004F4621213B48C9F81080F7F72DFA39486E
:1052000021212130F7F728FA364809214230F7F7F3
:1052100045FA87F81480334FA7F15E0AB8195AF897
:10522000241002F07AF8641C3044E4B2C6B2042CB4
:10523000F4D307F8068000242A4F26462137A7F129
:105240006F0A38195AF8261002F067F8761C2044C5
:10525000F6B2C4B2042EF4D307F80480214C4646BB
:10526000423420464F46D9F8001002F056F8C0B23A
:105270002654FDF733FE0068386119481030067176
:10528000280BFDF7A1FF164C15342070C5F3032041
:10529000FDF79AFF6070FCF711FE01281AD0FDF7A8
:1052A000F5F9B8B1C5F30310FDF78EFFA07005F056
:1052B0000F00FDF789FFE070094826711A30302190
:1052C000017032214170352181703821C170067121
:1052D000BDE8F087082040EA151000F00F00E3E772
:1052E0002C000020D20500202DE9F041364E074663
:1052F000B0694169384688470546B06981693846D2
:105300008847044635B12CB14FF4806845450AD82A
:10531000012009E040F235122CA10020FCF791FB9E
:105320000220BDE8F08100204FF49D7227A1FCF718
:1053300088FBB8FBF5F105FB118048B1002040F275
:105340003B1222A1FCF77DFBAC4203D3012002E01B
:105350000120F4E700204FF49E721CA1FCF771FBC2
:10536000B4FBF5F005FB1040C0B1002040F23D1247
:1053700016A1FCF766FBB7FBF4F004FB1070381ABB
:10538000C6E903047060444500D34446B460B16983
:10539000096A29B1884704000AD101E00120E5E744
:1053A000307850B1B069C168F0688847040004D013
:1053B000B069406880472046B3E7FF221048B168D3
:1053C000F7F742F90020ACE7C00000202E2E5C2E3B
:1053D0002E5C2E2E5C736F757263655C6461706CFD
:1053E000696E6B5C647261672D6E2D64726F705CA8
:1053F000666C6173685F6D616E616765722E6300D4
:10540000B807002010B5EFF3108272B6074C084BB6
:10541000D96844F821000B20491CB1FBF0F400FBD3
:10542000141082F31088D86010BD000014220020F0
:10543000F803002010B5094C207840B100F08AF83C
:105440006068C168064888470021217010BDC022ED
:1054500004A10020FCF7F5FA022010BD8000002016
:10546000840600202E2E5C2E2E5C2E2E5C736F7513
:105470007263655C6461706C696E6B5C64726167B9
:105480002D6E2D64726F705C66696C655F737472EB
:1054900065616D2E6300000070B5134C05462078E1
:1054A00008B1852202E0022D06D38B220FA1002035
:1054B000FCF7C7FA022070BDFEF7E8FAA0604FF4CF
:1054C00082711748F7F7EAF80120207006480C307F
:1054D00000EB051060604168114888470028EAD059
:1054E0000321217070BD0000800000202E2E5C2E54
:1054F0002E5C2E2E5C736F757263655C6461706CDC
:10550000696E6B5C647261672D6E2D64726F705C86
:1055100066696C655F73747265616D2E630000006F
:10552000840600202DE9F041094D0E46074600246F
:1055300005EB0410314602683846904710B120460A
:10554000BDE8F081641CE4B2022CF1D30320F7E73C
:105550008C00002010B5FEF799FA06498968884248
:1055600001D1012000E00020BDE81040622202A12C
:10557000FCF767BA800000202E2E5C2E2E5C2E2EAB
:105580005C736F757263655C6461706C696E6B5C93
:10559000647261672D6E2D64726F705C66696C65F4
:1055A0005F73747265616D2E6300000010B500F1C9
:1055B000080103220C4607A0F6F736FF002806D0A4
:1055C0000322214604A0F6F72FFF08B1032010BDE7
:1055D000012010BD42494E004845580070B5154D98
:1055E00006460C462878012806D0A42212A10020E5
:1055F000FCF727FA022070BDFFF7ACFF686822466F
:1056000031468368194898470446132806D0142C5D
:1056100006D02CB103202870204670BD0220FAE786
:105620002878012800D00020B22203A1FCF709FA53
:10563000F2E70000800000202E2E5C2E2E5C2E2E25
:105640005C736F757263655C6461706C696E6B5CD2
:10565000647261672D6E2D64726F705C66696C6533
:105660005F73747265616D2E630000008406002014
:105670002DE9FC478246DDE90A0700901C4690466A
:105680008946504601F094FE054602260EA0CDE95B
:105690000006631942464946504601F065FE05443E
:1056A0006319424649465046009701F081FE054481
:1056B00006A0CDE90006631942464946504601F06E
:1056C00053FE2844BDE8FC873A2000000D0A000084
:1056D00010B51E21002000F0D3FC002800D00120CE
:1056E00010BD00002DE9F04792B00D46DDE91A9893
:1056F00004461E46174644216846DDF870A0F6F7BA
:10570000CDFFCDE90076CDE9029860680990A068E8
:105710000D902068CDE90E054FF08070109068461E
:1057200000F064FC00281DD0144DDFF854800024E4
:1057300011A9404600F0BEF998B11198800314D524
:105740006946002000F004F900280BD00D494046BE
:1057500000F0EAFC002805D00098BAF1010F08D04B
:1057600050B1002012B0BDE8F087641CAC42DFD31A
:10577000F7E7B9198842F4D10120F3E740420F005E
:10578000F0ED00E003005FA010B5044600F0D6FE87
:10579000002801D104F07F4010BD10B5F7F718FEC6
:1057A000F8F72AFF012010BD2DE9F8430020411E23
:1057B000009032486426042701600024DFF8C0808E
:1057C000416011E084B10121002000F059FC01206A
:1057D00000F0A0F90220FEF709F9002000F09AF984
:1057E0000220FEF703F90024FFF7D7FFD8F80000E6
:1057F00010B1806800B18047F8F7DBFEA0B3FFF777
:1058000067FF88B30021082000F03AFC60B34FF036
:10581000A041042000F034FC30B300254FF02049B3
:1058200009E06946042000F0EDF8F0B1009939EA8A
:10583000010002D06D1CB542F3DBB54217D0012C3C
:1058400015D01049042000F01BFC68B1D8F8000006
:1058500010B1006900B180470021082000F010FC61
:1058600010B10120BDE8F88301E00124E5E77F1EC7
:1058700001247FB2002FA5DC0020F3E768000020A0
:1058800038040020000F005010B5094C00220D21F3
:105890002046FEF766FB00220E212046FEF761FB44
:1058A00000220C212046FEF75CFB012010BD000009
:1058B000000C0140F8B50D46044662B3960817493E
:1058C000002000F0DBFA002826D00527042221461C
:1058D0006846FDF7E9FD6946384600F0BFFA012841
:1058E00019D10F270021384600F0B8FA012812D14B
:1058F0000024761E07E02946384600F0AFFA01285A
:1059000009D1641C2D1DB442F5D30E20294600F0A8
:10591000A5FA012800D00020F8BD000052000023A5
:1059200038B50D4604460949002000F0A7FA0028C2
:105930000BD06946204600F035F8002805D0A007B6
:10594000C10E0098C8402870012038BD50000023C7
:105950002DE9F0410E46014600246425104800F070
:10596000E3FB002810D00E4F3F1F3146384600F0B1
:10597000A1F8002808D03068C00302D4641CAC42EF
:10598000F3DBAC4202D10020BDE8F081044831468F
:10599000001D00F08FF80028F6D00120F4E7000089
:1059A000F4ED00E01CB50C460146042201A8FDF709
:1059B0007BFD052001A900F051FA012820D10F201C
:1059C000694600F04BFA01281AD10E20694600F012
:1059D00045FA002222609DF8031042EA016121602D
:1059E0009DF8022041EA024121609DF8012041EA30
:1059F000022121609DF8002011432160012800D080
:105A000000201CBD38B50C4600F00C006946801C17
:105A100000F024FA002222609DF8031042EA01619E
:105A200021609DF8022041EA024121609DF8012099
:105A300041EA022121609DF80020114321600128E4
:105A400000D0002038BD2DE9F04114460F46054630
:105A500008E039462846FFF763FF002827D0641E78
:105A60006D1C7F1C14B3A807F3D111E0C5F3090026
:105A7000C0F58066B44201D224F0030632463946AE
:105A80002846FFF717FF002811D035443744A41BE0
:105A9000032CEBD808E039462846FFF741FF0028E1
:105AA00005D0641E6D1C7F1C002CF4D10120BDE8C4
:105AB000F081000070B50C4605460749002000F053
:105AC000DDF9002806D021462846FFF76BFF0028A5
:105AD00000D0012070BD0000520000231CB5002042
:105AE0006A46FF211154401CC0B20828FAD311465F
:105AF0003320F9F7D3F901201CBD000001490870DB
:105B000070470000600000200149486070470000B5
:105B1000600000200649096811B1C96901B1084750
:105B2000012108B1034801E00248001F01607047ED
:105B300038040020140C0140F8B50224064606285B
:105B400001D0FFF72AFE4E494E4D4F1C082E74D24D
:105B5000DFE806F00415085A5C748A910120FFF70B
:105B6000D9FF88E00120FFF7D5FF0220FDF73EFFB7
:105B70000020FFF7CFFF0220FDF738FF79E0FFF7A5
:105B800013FE002878D0404E307801280BD00FE06B
:105B9000641E64B2002C70DD0120FFF7BBFF022001
:105BA000FDF724FF0020FFF7B5FF0220FDF71EFFE1
:105BB0003946284600F0B8FA0028E9D0314C0121D6
:105BC0000C34204600F0B0FA002855D0307828B9BF
:105BD0000120FFF79FFF0220FDF708FF0020FFF7DD
:105BE00099FF0220FDF702FF69462846FFF762FF92
:105BF000002841D000988003F6D50021204600F00F
:105C000093FA002838D036E02846F8E7F8F7D1FCB8
:105C1000002831D0FFF75CFD00282DD0002108209E
:105C200000F02EFA002827D04FF0A041042000F009
:105C300027FA002820D03946E6E71EE0FFF7B4FD3A
:105C4000002819D00E492846C91C00F06DFA00281A
:105C500012D069462846FFF72DFF00280CD0009887
:105C60008003F6D507E007E0284600F05DFA00283B
:105C700002D0FFF709FE0120F8BD0020F8BD0000AA
:105C800000005FA0F0ED00E060000020F8B5022405
:105C90000546062801D0FFF780FD6C492A46CE1C38
:105CA0006B4D082A7ED2DFE802F00442089A9CB4C9
:105CB000C9C70120FFF72EFFBEE00120FFF72AFF32
:105CC0000220FDF793FE0020FFF724FF0220FDF7DE
:105CD0008DFEFFF769FD00287ED069460420FFF79E
:105CE00091FE002878D0009820F08041042000F038
:105CF000C7F9002870D069460420FFF783FE00280A
:105D00006AD000980028F6DB20F08051042000F0D3
:105D1000B7F9002860D069460420FFF773FE002819
:105D20005AD000988000F6D4FFF7AEFD84E0FFF76C
:105D30003BFD002850D00FE0641E64B2002C31DD22
:105D40000120FFF7E7FE0220FDF750FE0020FFF7DD
:105D5000E1FE0220FDF74AFE3146284600F0E4F954
:105D60000028E9D069462846FFF7A4FE002864D041
:105D700000988003F6D5364C01210C34204600F003
:105D8000D3F9002859D0324E6946E43E3046FFF739
:105D900091FE002851D0009800F4E0612D48406841
:105DA000014300E050E02C480143304600F0BCF9CC
:105DB000002842D00220FDF719FE69462846FFF769
:105DC00079FE002839D000988003F6D500212046BE
:105DD00000F0AAF9002800E02FE02ED02CE02846A1
:105DE000F6E7F8F7E6FB002827D0FFF771FC00285C
:105DF00023D00021082000F043F900281DD04FF0E7
:105E0000A041042000F03CF9002816D00F49491C9D
:105E1000E5E7FFF7C9FC00280FD03146284600F01F
:105E200083F9002809D069462846FFF743FE002879
:105E300003D000988003F6D50120F8BD284600F075
:105E400073F90028F9D06FE70020F8BD00005FA0CB
:105E5000F0ED00E0600000200000FA0570B50D468E
:105E60000646002429463046F8F79CFC022803D158
:105E7000641CE4B2642CF5D370BD000038B50D4647
:105E80000446FFF781FC04F0F00240EA020108201A
:105E900000F0F6F8002805D034B90E484168A94250
:105EA00001D1012038BD456004F00C0404222946CC
:105EB0006846641CFDF7F8FA69462046FFF7CEFFF6
:105EC000012805D10E200021FFF7C8FF0128E9D0E5
:105ED000002038BD68000020F8B50D4604462AB3FE
:105EE000960813490020FFF7C9FF00281FD0052797
:105EF000042221466846FDF7D7FA69463846FFF77F
:105F0000ADFF012812D10D27002407E029463846AD
:105F1000FFF7A4FF012809D1641C2D1DB442F5D35D
:105F20000E200021FFF79AFF012800D00020F8BDC5
:105F30005200002370B50C46054608490020FFF7C3
:105F40009DFF002809D0A807C00E04FA00F12846DA
:105F500000F02CF8002800D0012070BD5000002374
:105F600073B50646002464250F48019900F0DCF85B
:105F7000002813D00C4846F48031001F00F0D4F8FC
:105F800000280BD0084E083E01A93046FFF792FDCD
:105F9000002803D00198C00301D501207CBD641CFA
:105FA000AC42F1DB00207CBDF8ED00E038B50C46DA
:105FB000014604226846FDF777FA05206946FFF797
:105FC0004DFF012810D1042221466846FDF76CFAE6
:105FD0000D206946FFF742FF012805D10E20002160
:105FE000FFF73CFF012800D0002038BD38B505463A
:105FF0000021082000F044F800283AD00024204670
:1060000055F82410FFF7ACFF002832D0641C042C94
:10601000F5D30920696AFFF7A3FF002829D00D24D2
:10602000204655F82410FFF79BFF002821D0641C60
:10603000102CF5D31020296CFFF792FF002818D000
:106040000E4C0D49204600F06FF8002811D00A4987
:106050002046891E00F068F800280AD0694604200E
:10606000FFF7D0FC002804D0009810F0A00F01D05A
:10607000002038BD012038BD0B005FA0F0ED00E02E
:10608000F8B50D4E04460D46082802D13068A842E6
:1060900010D004F00C0704226846FDF705FA6946A3
:1060A0003846FFF7DBFE012801D00020F8BD082CA0
:1060B00000D135600120F8BD680000202DE9F041D5
:1060C00014460D46064608E029783046FFF732FFB1
:1060D000002827D0641E6D1C761C14B3B007F3D1C2
:1060E00011E0C6F30900C0F58067BC4201D224F07C
:1060F00003073A4629463046FFF7EEFE002811D046
:106100003E443D44E41B032CEBD808E0297830469C
:10611000FFF710FF002805D0641E6D1C761C002CB4
:10612000F4D10120BDE8F08170B50C460546074961
:106130000020FFF7A3FE002806D021462846FFF7DF
:1061400035FF002800D0012070BD00005200002360
:1061500010B5FDF79BFC07494968884201D1012031
:1061600000E00020BDE8104040F2691202A1FBF7F8
:1061700068BC0000080100202E2E5C2E2E5C2E2E06
:106180005C736F757263655C6461706C696E6B5C87
:10619000647261672D6E2D64726F705C7666735FDA
:1061A0006D616E616765722E630000000248002118
:1061B000C068FDF731BC0000080100200148C0683C
:1061C000FDF73CBC0801002002480078012800D0FF
:1061D000002070477000002002480078012800D09D
:1061E00000207047DC000020FEB51C4E34697CB3F3
:1061F00000250C341DE0FCF79BFE18B190F8380028
:10620000400715D4206800F059F900281FD101205B
:10621000FCF7A6FC05001AD10090019002901048EE
:1062200000231A46406881681830FFF75BFA80B196
:10623000143420680028DED161680029DBD1306980
:1062400090F8A20110B100F075F805462846FEBD91
:1062500001E01020FBE70120F9E70000648001085D
:10626000700000203EB505461348006908B3134886
:10627000446844B1284600F023F8B5FBF0F100FB78
:106280001150A0B901E002203EBD0120FCF768FCDE
:106290000028F9D10090019002900346E1682A4657
:1062A00004F11800FFF71EFA08B100203EBD0F20D0
:1062B0003EBD01203EBD000064800108700000204A
:1062C0000E4910B50A69BAB1916879B1491E0DD469
:1062D000526802EBC1031B68834205D8042000EB1F
:1062E000C1001044006810BD491EF2D54FF4C672BB
:1062F00003A10020FBF7A5FB002010BD648001086E
:106300002E2E5C2E2E5C2E2E5C736F757263655C78
:106310006461706C696E6B5C696E746572666163F2
:10632000655C7461726765745F666C6173682E6327
:106330000000000070B5114D2869E0B1104C00203C
:1063400060706060012000F003F910B128690C3022
:1063500007E0072070BD017AC90701D0A06006E000
:10636000143001680029F6D141680029F3D10120D9
:106370002070002070BD012070BD00006480010805
:10638000700000202DE9FF5F81463E481646884692
:106390000069002874D03C48456885B13B480068D6
:1063A00028B143691BB14846984701280BD0022009
:1063B000FCF7D6FB4FF0000A002801D13BE0022099
:1063C00004B0BDE8F09F0D20FAE76C6BB44200D931
:1063D0003446686A22464146FFF770FE78B3686A21
:1063E000CDE9000ACDF808A005F118005746296943
:1063F00023464A468346FFF775F908B3FBF7A4FC2A
:10640000B0B1686988B30320FCF7AAFB0028D7D194
:1064100095F83800C00700D00120696ACDE900175F
:106420000290696923464A465846FFF75BF9D0B1A6
:10643000A144A044361B002EC7D10020C0E716E0BF
:106440001120BDE7102C01D2274600E010273A4664
:1064500069464846FFF7F7FA48B13A46694640466A
:10646000F5F797FF28B11220AAE706E008E00A2016
:10647000A6E7F61BB944B844E41B002CDBD0E1E7E7
:1064800001209DE76480010870000020380400208E
:1064900070B505460848006900280BD04FF4807499
:1064A0002846FFF70DFFA04203D22846FFF708FF5A
:1064B0000446204670BD00006480010870B5FCF7FA
:1064C00037FD040011D00B4D6868A0420BD00020AE
:1064D000FCF746FB002807D1E26A216BA06AFFF7B0
:1064E000EDFD20B16C60002070BD092070BD08205A
:1064F00070BD0000700000200E4810B50069B0B1FA
:106500000020FCF72DFB002810D1FBF715FC08B18B
:10651000022000E0012000F01BF8072000F018F82E
:10652000054900200870FFF7AFF9002010BD0120D9
:1065300010BD00006480010870000020034800685E
:1065400010B1806A002800D1002070473804002074
:1065500070B5134C0546616F01B188471148016859
:10656000E1B18A691AB12846BDE8704010478878C1
:10657000012803D0022806D0012070BD2846BDE8BE
:106580007040FFF7D9BAA06F08B9486808B1FFF7A3
:10659000BBFA2846BDE87040FFF778BB002070BD0D
:1065A0006480010838040020884203D3904201D857
:1065B000012070470020704710B50B4C0221206964
:1065C000FDF744FAE0680321B0FBF1F201FB120190
:1065D000401CE060002905D12069BDE81040012180
:1065E000FDF734BA10BD00004C0000202DE9F04149
:1065F000224D16460C4695F8230038B1BDE8F0410F
:106600004FF430721EA10020FBF71BBAF00522D018
:1066100000204FF431721AA1FBF713FA95F821000C
:1066200040F2C52216A1FBF70CFA31462046FEF7D0
:10663000D5FF012704464FF0000813280DD0142C75
:1066400017D085F824806869304468612046BDE829
:10665000F04100F0D5B80120DBE7FEF7EBFE85F84E
:10666000218085F82370044685F82470FBF710FA22
:10667000E9E7002485F82470E5E70000E011002038
:106680002E2E5C2E2E5C2E2E5C736F757263655CF5
:106690006461706C696E6B5C647261672D6E2D64F1
:1066A000726F705C7666735F6D616E616765722E86
:1066B0006300000070B51C4D06460C4695F821009D
:1066C000002811D0002040F2852218A1FBF7B9F96B
:1066D000601C00D0012040F2862214A1FBF7B1F922
:1066E0006868401C02D002E00120ECE76C6095F87D
:1066F0002700032801D185F827606868A04203D1EC
:1067000095F82700B04201D0032008E03046FEF79C
:10671000C3FE20B945F80C4F01216975A975BDE884
:10672000704000F06DB80000E01100202E2E5C2EAD
:106730002E5C2E2E5C736F757263655C6461706C89
:10674000696E6B5C647261672D6E2D64726F705C34
:106750007666735F6D616E616765722E630000001F
:1067600030B4194C94F82050032D02D025683DB167
:1067700007E030BC40F2352214A10020FBF761B9DC
:106780002060A068401C00D1A16094F82700032875
:1067900001D184F82730A069904205D9E069904280
:1067A00002D90AB103200CE0481C02D0A06888423C
:1067B000F8D1032B03D094F827009842F2D100209F
:1067C000A26130BC00F01CB8E01100202E2E5C2E1F
:1067D0002E5C2E2E5C736F757263655C6461706CE9
:1067E000696E6B5C647261672D6E2D64726F705C94
:1067F0007666735F6D616E616765722E630000007F
:106800002DE9F0470446132803D0142C01D00120B1
:1068100000E000204FF43A7243A1FBF712F94F4D0C
:1068200095F8200003280CD0296891B1D5E906021B
:1068300082420ED368B1D5E90102904209D101200C
:1068400008E0BDE8F0474FF43B7237A10020FBF7AA
:10685000F8B8002085F8250095F8269019B995F824
:106860002710032901D0012100E00021884620B132
:1068700095F8241009B1012600E0002695F82310B0
:1068800011B108B1012000E00020824628690027EC
:10689000401C10D06868401C00D0012040F20A3231
:1068A00021A1FBF7CEF869682869401A696940029E
:1068B000814200D90127032014B185F820001DE092
:1068C000B9F1000F09D00FB10624F6E7B8F1000FB7
:1068D000F3D0002EF1D10424EFE7BAF1000FECD190
:1068E0000EB1022003E0B8F1000F03D0012085F8BB
:1068F000200012E095F8200003280BD195F8210024
:1069000030B1FEF797FD002185F8211004B9044647
:1069100013480470B9F1000F03D1BDE8F04700F04F
:10692000DFBFBDE8F08700002E2E5C2E2E5C2E2EE1
:106930005C736F757263655C6461706C696E6B5CCF
:10694000647261672D6E2D64726F705C7666735F22
:106950006D616E616765722E63000000E0110020BA
:10696000080100202DE9F041254886B00168254A3C
:1069700011400160FBF7C6F92348C16941F40031B9
:10698000C161C16901F400310491816941F00401E0
:1069900081618069022600F0040004900420CDE9A2
:1069A0000006DFF868800325694603954046F6F740
:1069B00025FF08200027CDE900070124694640464D
:1069C000CDE90245F6F71AFFCDE900476946404692
:1069D000CDE90245F6F712FF002202214046F6F704
:1069E000F1FFCDE90064694640460395F6F706FFDE
:1069F00007494020C1F8000106B00120BDE8F08140
:106A00000C4400405FFFFFEF00100240000801400F
:106A100004E000E00A4601460148FBF745B90000E2
:106A2000B81D002070B5064D2C680648204028602F
:106A3000FBF768F90348203004402C60012070BD4A
:106A40000C4400405FFFFFEF70B590B0044640215A
:106A50006846F5F723FE2F4800902F4B61790022FE
:106A600059714FF4C0604FF4806501291AD0022992
:106A70001AD0049201B15A71A17999714FF400565C
:106A8000022913D0012913D0039201B19A71082170
:106A900019710499814201D0A9420DD14FF480505F
:106AA00002900AE00490E7E70495E5E70396EEE735
:106AB000022103969971EAE70292DA710692206840
:106AC00018600190134C0C200C3405902068134979
:106AD00008402060FBF716F96846F7F717FDA0B1EC
:106AE0000020C4220EA1FAF7ACFF6846F7F72CFD90
:106AF00068B10020C6220AA1FAF7A3FF2068154951
:106B00000843206010B0012070BD0120E9E701209A
:106B1000F0E7000000440040EC0200205FFFFFEFC0
:106B20002E2E5C2E2E5C2E2E5C736F757263655C50
:106B30006869635F68616C5C73746D33325C737435
:106B40006D33326631303378625C756172742E63F6
:106B50000000000020000010704700000A4610B539
:106B600001460448FBF7B7F803490A68034B1A4388
:106B70000A6010BDA81B00200C44004080000010DB
:106B80000148FAF7F1BF0000A81B00202DE9F041F1
:106B900086B00F46DDE90C4180461D46164602A828
:106BA00000F01AFC02A900220A54CDE900412B464C
:106BB000324639464046FEF75BFD06B0BDE8F0813F
:106BC00010B50D4C207830B100202070FAF77EFE11
:106BD00040B11F2010BD832208A10020FAF731FF29
:106BE000022010BD607810B9FBF7B6FA08B100209A
:106BF00010BD252010BD0000DC0000202E2E5C2ED4
:106C00002E5C2E2E5C736F757263655C6461706CB4
:106C1000696E6B5C647261672D6E2D64726F705C5F
:106C20006961705F666C6173685F696E74662E631C
:106C3000000000002DE9FF4107466448009015461A
:106C40000E460023384600F0B3FB044660A00090D7
:106C500023462A4631463846FBF70EFC044460A022
:106C6000009023462A4631463846FBF705FC04448B
:106C7000FBF762F85EA1CDE9001023462A463146B3
:106C80003846FEF79BFA0444FBF75EF85BA1CDE9BA
:106C9000001023462A4631463846FEF78FFA044450
:106CA000FBF762F85AA1CDE9001023462A46314687
:106CB0003846FEF783FA0444FBF74EF859A1CDE9B4
:106CC000001023462A4631463846FEF777FA044438
:106CD000FBF710F95BA1CDE9001023462A463146A7
:106CE0003846FEF76BFA04445AA0009023462A4621
:106CF0003146384600F05CFB04445DA0009023461A
:106D00002A4631463846FBF7B7FB0444FCF7CCFA79
:106D1000F8B15DA02346D0E90010CDE902105CA0D7
:106D200000902A463146384600F042FB0444FCF706
:106D3000D7FA0146042202A800F078FB062102A837
:106D4000CDE9000123462A463146384600F00CFBC7
:106D500004445548009023462A463146384600F000
:106D600027FB0444FCF7A0FA58B1FCF7C3FA4FA183
:106D7000CDE9001023462A4631463846FCF702FA90
:106D80000444FCF7BDFA4DA1CDE9001023462A4684
:106D900031463846FCF7F6F94C4904444CA04968A2
:106DA0002346CDE900012A4631463846FFF7EEFE7C
:106DB00004444BA0009023462A4631463846FBF750
:106DC0005BFB04B02044BDE8F0810000089401089A
:106DD000556E697175652049443A2040550D0A0089
:106DE0004849432049443A2040440D0A000000002D
:106DF0004175746F20526573657400004175746F3E
:106E00006D6174696F6E20616C6C6F7765640000F2
:106E10004F766572666C6F7720646574656374691C
:106E20006F6E0000496E636F6D70617469626C65AE
:106E300020696D61676520646574656374696F6E50
:106E400000000000506167652065726173696E67BC
:106E5000000000004461706C696E6B204D6F6465CA
:106E60003A20496E746572666163650D0A00000020
:106E7000496E746572666163652056657273696FE9
:106E80006E3A2040560D0A00000000000D0A000076
:106E9000426F6F746C6F61646572205665727369BE
:106EA0006F6E3A2000000000CC940108426F6F74AE
:106EB0006C6F61646572204352430000496E7465D3
:106EC0007266616365204352430000001801002090
:106ED00052656D6F756E7420636F756E740000007F
:106EE00055524C3A2040520D0A0000002DE9F04363
:106EF00041A0404ED0E9001291B0007A316072603A
:106F0000002430720927FAF7D9FFDFF8F88001284A
:106F10005ED0FBF7BBFB00285AD0274688F8044018
:106F2000012406F10905182237A16846F5F75AFB36
:106F3000172269462846F5F7CEFAAF70202700F0F1
:106F400073F900BF88F800402046641C88F80140AF
:106F5000651CB14604463E44442231496846F5F773
:106F600041FB422269463046F5F7B5FA06F8024F72
:106F70004237347286F82040641C86F8214086F837
:106F80002B40F8F77FFB88F803506C1C09EB0706D1
:106F9000202224A16846F5F725FB202269463046C9
:106FA000F5F799FAB570203700F0E6F825A188F8D2
:106FB0000540D1E9002309EB0700097A026043602C
:106FC000017284700F480A30847311B0BDE8F083F9
:106FD000B8F806000749401EA8F80600087174209A
:106FE00048801B49002086F87400088817380880FC
:106FF000A8E70000C81F002009028B0005010080DF
:10700000FA000000F4020020090400000208065003
:107010000807058202400000070502024000000048
:10702000D0880108090400000203000006092100BD
:10703000010001222100070581034000010705012D
:10704000034000010904000000FF030007000000E6
:10705000FC02002002484078002800D00120704740
:10706000C4040020F8F76EBC002070477CB51C46B5
:10707000154601281CD10CB1012C19D101AA694671
:107080000C48F6F70AFA70B1019A402A05DD4E2243
:1070900009A10020FAF7D5FC0AE028460099F5F787
:1070A0001AFA40207CBD012C02D10D490120087044
:1070B00000207CBDB02800202E2E5C2E2E5C2E2EB3
:1070C0005C736F757263655C7573625C6869645C40
:1070D000757362645F757365725F6869642E6300BF
:1070E000440500202DE9F04107461D48164600885A
:1070F000824202DD0020BDE8F0811A4800780028B5
:10710000F9D0194C01224FF00008E26000E098B17C
:107110006288002AFBD1154D3246681C2F70F5F7A6
:10712000DAF96561A4F804806680114800780128C6
:107130000BD86D1C65610BE0C4F80C80C4F814809A
:10714000A4F80480A4F80280D4E76088401C608022
:107150000020F8F7D1FE074800F807800120CAE7B1
:10716000FC860108C5040020E8040020D02000208F
:10717000FA860108F2030020024901200870024843
:10718000F6F7ADB944050020B02800207047000094
:1071900038B51C461146022812D1002C10D00878B0
:1071A00007280ED06B4622460B48F6F734F960B13B
:1071B0000A4C2078002803D0FCF70CF8002020703F
:1071C00038BD07490120087038BD782205A100208C
:1071D000FAF737FC38BD0000B02800204405002035
:1071E000000000202E2E5C2E2E5C2E2E5C736F7500
:1071F0007263655C7573625C6869645C7573626414
:107200005F757365725F6869642E6300054910B528
:107210000020C870FFF76AFEF9F714FFBDE81040C0
:10722000F9F704B9C404002010B5FCF72FFC074C93
:1072300060600020FCF7F8FBE060FAF72BFC002010
:1072400060700349A070A060086010BD08010020B4
:107250001005002070B514460D460646FEF778FF6F
:10726000074B1868002809D00120FCF737FA22469E
:1072700029463046BDE8704000F0BCBB70BD000040
:1072800010050020704700002DE9F04115460E461C
:107290000746FEF75DFF1048006800281AD00F4926
:1072A0000F4C0020886094F82000032812D00120A1
:1072B000FCF714FA2A463146384600F03DFD94F8B2
:1072C0002000032806D02A4631463846BDE8F04162
:1072D000FBF760B9BDE8F08110050020080100202F
:1072E000E011002006484FF0011201780548C180E6
:1072F000002101704170C0E9022101617047000066
:10730000EC860108C404002010B5EFF3108472B6B7
:10731000FAF790FD84F3108810BD70B50D46044651
:10732000090E00F013F80646A019C5F3074100F056
:107330000DF80644A019C5F3072100F007F806442C
:10734000E9B2A01900F002F8304470BD054A02EB22
:10735000111301F00F011B780370515C4170022082
:1073600070470000C48101082DE9F0411446DDE9B1
:1073700006E55FEA000C18D05F19A74215D3214437
:10738000994212D3002006462A46A34202D2E01AAE
:10739000121A00E01E1B8F4201D9791A521A0EEB05
:1073A00000010CEB0600F5F796F82846BDE8F081E1
:1073B0002DE9FC418046089C1D4616460F46204696
:1073C000F5F713F8CDE900402B46324639464046E2
:1073D000FFF7CAFFBDE8FC81F0B506460020024673
:1073E0000B460A2504E0B3FBF5F3401C42F1000212
:1073F000002BF8D150EA020301D101200022002322
:107400001F460EE0B1FBF5F405FB1414B1FBF5F1DA
:107410003034B0EB030CBCF1010C03F1010306F8AE
:107420000C401C1A77EB0204ECD3F0BD2DE9F041BF
:1074300015460E460746FFF7CFFF0446A8420AD27C
:10744000302229463846F5F7FFF8281B38443146E4
:10745000FFF7C2FF2846BDE8F0810000074910B5DC
:10746000096831B1096A21B18847002800D001209C
:1074700010BDBDE8104000F003B800003804002043
:107480002DE9F0471C4906460C698CB304250027FA
:10749000D6F800808946D43406E062684046FFF79B
:1074A00083F801281FD0143421680029F5D16068C1
:1074B0000028F2D1E7B116E07019D9F81040002782
:1074C000D0F800800C3406E062684046FFF76CF8A4
:1074D000012807D0143421680029F5D160680028FC
:1074E000F2D12FB12D1D0C2DE6D90120BDE8F0877A
:1074F000FFE70020FAE70000648001080B490968F3
:1075000011B1496A01B1084701783A290AD1007AD4
:10751000302809D0322807D0332805D0342803D0AA
:10752000352801D000207047012070473804002022
:107530002DE9FF5F994692468B460098FBF76AF863
:1075400040F295123CA1FAF77CFA48490026484DD2
:10755000B1F80B00497B484309EB0001491EB1FB20
:10756000F0F7B9F1000F19D00024A7F10108EE6877
:1075700009E0E968481C82B23E4800F0D5FCE868A2
:10758000401C641CE8604445F3D34FF6FF72394851
:10759000E96800F0C9FCE868401CE8602869202818
:1075A00002D34FF4D5721CE03349202201EB401482
:1075B000401C286131492046F4F78DFF009801688E
:1075C00021604168616001892181807AA072C4F8DC
:1075D0001C90300CA0826683A968102909D34FF44F
:1075E000DC7215A10020FAF72CFA002004B0BDE8E7
:1075F000F09F214B01EB4100C03B214A43F8202082
:1076000003EB80021F4E5660BBF1000F01D043F820
:1076100020B0BAF1000F01D0C2F804A01348491CF1
:10762000B0F80B30407B43437B439360A9602878DC
:10763000401C28702046D9E72E2E5C2E2E5C2E2E64
:107640005C736F757263655C6461706C696E6B5CB2
:10765000647261672D6E2D64726F705C76697274EE
:1076600075616C5F66732E63000000004C12002091
:10767000200100204C1400200C1700202485010854
:107680009945010861800108C07A7047C069704758
:10769000C16961B1074A084B408BB2F80B105B69B6
:1076A000527BB3FBF1F1801E00FB021070474FF0DC
:1076B000FF3070474C12002020010020C17270473B
:1076C0000A4910B50846B1F81340B0F80B000CB9E0
:1076D0000C6A0CB1444306E0002440F2891204A174
:1076E0002046FAF7AEF9204610BD00004C120020EB
:1076F0002E2E5C2E2E5C2E2E5C736F757263655C75
:107700006461706C696E6B5C647261672D6E2D6470
:10771000726F705C7669727475616C5F66732E63EC
:10772000000000002DE9F0410F4680464FF400763E
:1077300031464E48F4F7B2FF31464D48F4F7AEFFFC
:107740004C4C0025C0214C48E560F4F7A7FF4A489F
:107750007100C030F4F7A2FF256125704748C4E9E5
:1077600001053246464941486561F4F73BFF3F4E0B
:1077700007F5803740F62D02B6F80B00717BB7FB9A
:10778000F0F04A43B0EB420F09D24FF4AB723DA187
:107790000020FAF756F9707B41F25A010DE04FF6DE
:1077A00091725143814209D240F2591235A1002011
:1077B000FAF747F9707B4FF691714843B0F5803F77
:1077C00003D3A6F81350306202E0A6F81300356226
:1077D000717B3022B0FBF1F040F2FF1101EB400071
:1077E000C0F34F27F78234492348F4F7FBFE2249C0
:1077F00078024861086204206561A060002000EB07
:10780000400201EB820263699268401C1A44626183
:107810000428F4D34FF6F87229461548E56000F0C5
:1078200083FBE1684FF6FF72491C1148E16000F0EC
:107830007BFBE0682049401CC4E903050E4D202273
:10784000C03528463031F4F746FED8F800102960DC
:10785000D8F804106960B8F80810298198F80A006F
:10786000A87201202061BDE8F08100004C120020C8
:107870004C140020200100204C160020C3240108D5
:10788000D48201082E2E5C2E2E5C2E2E5C736F751A
:107890007263655C6461706C696E6B5C6472616775
:1078A0002D6E2D64726F705C7669727475616C5F99
:1078B00066732E6300000000D484010810B50446EE
:1078C000FEF774FC05493CB1887808B9022088703D
:1078D000BDE81040FEF772BC0020F8E70801002068
:1078E00010B5FEF763FCFAF733F928B9044841787C
:1078F000022901D101218170BDE81040FEF75EBC74
:107900000801002010B5FEF723FC0148007810BDE7
:10791000080100202DE9F0410446FEF719FCFEF7AE
:1079200045FCFAF715F980B1FCF73EFE214A4EF608
:1079300060239168994201D22144916028B19478E2
:1079400055785470012C06D103E0BDE8F041FEF7F4
:1079500035BC0220907000269660FEF72FFC0127B0
:10796000CDB1012D17D0022D15D1134D95F8200062
:10797000032804D085F826700020FEF741FF95F813
:107980002000032812D0002040F211120BA1FAF7B8
:1079900058F800F0F9F8164D54B1012C08D0022C1B
:1079A00002D1FAF777F82F60BDE8F0810120EBE70C
:1079B0002E60F9E708010020E01100202E2E5C2E39
:1079C0002E5C2E2E5C736F757263655C6461706CE7
:1079D000696E6B5C647261672D6E2D64726F705C92
:1079E0007666735F6D616E616765722E630000007D
:1079F000100500202DE9F0478A460446154600266A
:107A000051025046F4F728FEDFF84890002006EBBC
:107A1000460209EB82018442896800EB51218846C5
:107A20000ED38C420CD2A8EB0407AF4200D32F46F2
:107A300059F82230201A3A46514698473C44ED1BEB
:107A4000002D04D0761CF6B24046102EDFD3BDE8E0
:107A5000F08700004C160020014948607047000084
:107A6000200100201CB52E4CE07F10B104F11F0056
:107A700000E02CA04FF08061FFF754FE2C48FBF78C
:107A800051FA0346207D10B12548143000E029A0AA
:107A900000222749FFF74CFD2948FBF743FA03462C
:107AA0000022274927A0FFF743FDFFF72BFF40B136
:107AB0002748FBF737FA03460022254925A0FFF7A0
:107AC00037FD274B41219A1C2648FAF7C1F958B1D6
:107AD0002548FBF727FA0346002223492348FFF7EE
:107AE00027FD0021FFF7EAFD4FF0006001902048DC
:107AF0000090FAF733FB78B1DDE900104FF48062B3
:107B0000F4F747FC40B91B48FBF70CFA0346002288
:107B1000184919A0FFF70CFD00F034F81CBD000057
:107B2000648001084441504C494E4B2020202000E5
:107B3000B54401084D4245442020202048544D00C2
:107B4000CD43010844455441494C532054585400F6
:107B5000E14301084641494C20202020545854005C
:107B6000180100200812002079420108288201082B
:107B700000C00008294501084E4545445F424C209D
:107B8000545854007047000010B5FAF7E5FA20B1D8
:107B9000FFF7B8FE08B9F7F72BFAFAF7DFFA40B1AA
:107BA000FAF7A0F918B9FAF789F9012801D1F7F71E
:107BB0001FFA02484168491C416010BD18010020AD
:107BC000F8B50C46074600F0B3F8002856D1FBF78D
:107BD000D3F910B9FBF7CEF900B1012018B9FAF7C3
:107BE000B3F800284AD0022C48D074B1012C45D1FA
:107BF0000B2241493846F4F7CCFB00283ED1FFF771
:107C000083FBBDE8F840FFF76BBE01208DF8000054
:107C1000851E6946384600F08DF8002864D1364E3E
:107C200000240C360B2256F834103846F4F7B1FB1A
:107C300010B906EBC4000579641C102CF2D3681C43
:107C40004FF0000418D0102D48D2DFE805F00810DE
:107C50004D182325292B2F3135373B3D4143FAF76A
:107C60007DFA002840D00120FAF77EF93CE0E222BC
:107C700022A10020F9F7E5FE8DF80040F8BD2B4C5D
:107C80002068006880472068006980472068406855
:107C9000804729E0012000E00020FAF7AFF923E057
:107CA000012000E00020FAF7B1F91DE0012000E01A
:107CB0000020FAF7BBF917E0002000E00120FAF7F6
:107CC0004DF911E0012000E00020FAF7A7F90BE0E0
:107CD000012000E00020FAF74DF905E04FF488722A
:107CE00006A10020F9F7ADFE9DF800000028C5D0E0
:107CF000FFF7F6FDF8BD0000288201082E2E5C2E4D
:107D00002E5C2E2E5C736F757263655C6461706CA3
:107D1000696E6B5C647261672D6E2D64726F705C4E
:107D20007666735F757365722E630000C08101080B
:107D300000207047002070472DE9F05F04460026C0
:107D400015468B463046DFF85090DFF850A01CE017
:107D500006EB460209EB82028442916800EB512156
:107D600088460DD38C420BD2A8EB0407AF4200D358
:107D70002F465368201A3A46594698473C44ED1B13
:107D8000002D06D0761C4046F6B2DAF808108E4276
:107D9000DED3BDE8F09F00004C160020200100203B
:107DA000FEB5044690F8300015460F46302801D342
:107DB000606B31E0C0F13006AE4200D3164620447D
:107DC0003246F4F788FB94F830003044C1B284F8AE
:107DD0003010302901D20020FEBD00233744AD1BF6
:107DE0001A462046FAF794FC08B302A90022009133
:107DF00001AB1146FAF7DAFC0028EDD10198606377
:107E000094F830202146FAF7E5FD0028E4D194F8F3
:107E10003010606B084460632A463946FAF7DAFD91
:107E20000028D9D1606B284460631420FEBD1C205B
:107E3000FEBD00002DE9F84F894681184FF480639C
:107E4000B3EB412F07D2BDE8F84F4FF41F7227A1C3
:107E50000020F9F7F6BD41024B0951024FEA511BD0
:107E600000912F4901EB431A10B100262D4F33E04A
:107E70000126FBE709EB46140AEB461520222146B2
:107E80002846F4F786FA30B3214628460B22F4F749
:107E900080FA78B100208046D7F804C023462A46ED
:107EA00020460221E0472078E52805D0B8F1000FF0
:107EB00007D010E00120EEE72A46234610460121B4
:107EC00007E02046FAF7A6FB28B123462A461846C3
:107ED00000217C68A047761C5E45CBD350464946BE
:107EE000009ABDE8F84FF4F7F6BA00002E2E5C2E8B
:107EF0002E5C2E2E5C736F757263655C6461706CB2
:107F0000696E6B5C647261672D6E2D64726F705C5C
:107F10007669727475616C5F66732E630000000091
:107F20000C1700202001002030B44B00012404EB8A
:107F30004101B1F5007F06D330BC40F2391204A1F3
:107F40000020F9F77EBDC254120A425430BC70477B
:107F50002E2E5C2E2E5C2E2E5C736F757263655C0C
:107F60006461706C696E6B5C647261672D6E2D6408
:107F7000726F705C7669727475616C5F66732E6384
:107F8000000000002DE9F04786B0002416460F4699
:107F90000546039404940DF110080DF10C094FF4FB
:107FA000807A0594CDF800A0CDE901986B1C05AA54
:107FB00031463846FBF770FE68B1022813D001281D
:107FC0001DD0042825D0052801D00628EAD105288F
:107FD00021D0012020E0049A22B3691C0398FAF70B
:107FE000F9FC04461EE0049A2AB1691C0398FAF7CA
:107FF000F1FC040016D10598361A0744D2E7049A1A
:1080000022B1691C0398FAF7E5FC044654B913241D
:1080100008E0152406E000204FF4B07203A1F9F740
:1080200010FD162406B02046BDE8F0872E2E5C2EEB
:108030002E5C2E2E5C736F757263655C6461706C70
:10804000696E6B5C647261672D6E2D64726F705C1B
:1080500066696C655F73747265616D2E6300000004
:108060007047000001000100303730300000000090
:1080700000000000380100200000000000000000A7
:1080800000000000000000000000000000000000F0
:1080900000000000000000000000000000000000E0
:1080A00000000000000000000000000000000000D0
:1080B00000000000000000000000000000000000C0
:1080C00000000000000000000000000000000000B0
:1080D00000000000000000000000000000000000A0
:1080E0003C8C01082C8C0108322E312E3000535468
:1080F0004152545F424C4143540000007C930108BC
:108100003893010818930108DC93010824900108B2
:10811000E09201083C900108F89101085092010892
:1081200098930108A4920108AC910108D09101082C
:108130001C92010850930108D8900108AC900108E6
:10814000849001080891010884920108C0930108F5
:10815000B88D0108788D01083C8D0108389101081F
:10816000B48F0108108F0108D88E0108008E010815
:10817000E88F0108DC8C0108108D0108B08C010823
:10818000508C0108808C0108708F0108508E010806
:108190008C8E0108049401084C8F01083563010896
:1081A000F96401088563010865620108E961010855
:1081B00091640108C1620108C9610108BD64010838
:1081C0009C810108303132333435363738396162B9
:1081D0006364656600000000D5330108C16B0108C7
:1081E000854001081922010881210108D1410108B7
:1081F000E1220108D961010800000000D8810108CE
:1082000000000000FFFFFFFFFFFFFFFFFFFFFFFF7A
:10821000FFFFFFFF00000000000000000000000062
:108220000000000000000003415353455254202039
:1082300054585400EE800108000000008C9601089C
:1082400001000000989601080200000080960108D5
:1082500003000000749601080400000068960108FD
:10826000050000002C960108060000005096010849
:10827000070000002096010808000000449601084D
:1082800009000000089601080A0000001496010881
:108290000B000000389601080C0000005C960108F5
:1082A0000D000000A49601080E000000B096010821
:1082B0000F000000C8960108E4960108D496010852
:1082C000DC960108BC960108307800000000000030
:1082D00000000000EB3C904D53443053342E3100ED
:1082E00002080100022000501FF8010001000100F7
:1082F000000000000000000000002974190227445B
:1083000041504C494E4B2D444E4446415431362049
:108310002020FAB8C0070520018ED0BC0010B8C0DC
:10832000078ED8BE6D00E80B00EBFEB40EB700B3AD
:1083300007CD10C38A044608C07405E8EDFFEBF4CE
:10834000C3504C454153452052454D4F564520544E
:1083500048452041524D204D424544204441504C17
:10836000494E4B20555342204445564943452041F0
:108370004E44205245424F4F5420544845205359B3
:108380005354454D2E2E0000000000000000000058
:1083900000000000000000000000000000000000DD
:1083A00000000000000000000000000000000000CD
:1083B00000000000000000000000000000000000BD
:1083C00000000000000000000000000000000000AD
:1083D000000000000000000000000000000000009D
:1083E000000000000000000000000000000000008D
:1083F000000000000000000000000000000000007D
:10840000000000000000000000000000000000006C
:10841000000000000000000000000000000000005C
:10842000000000000000000000000000000000004C
:10843000000000000000000000000000000000003C
:10844000000000000000000000000000000000002C
:10845000000000000000000000000000000000001C
:10846000000000000000000000000000000000000C
:1084700000000000000000000000000000000000FC
:1084800000000000000000000000000000000000EC
:1084900000000000000000000000000000000000DC
:1084A00000000000000000000000000000000000CC
:1084B00000000000000000000000000000000000BC
:1084C00000000000000000000000000000000000AC
:1084D000000055AA5945010861800108000200000A
:1084E000594201086180010800000000594201085A
:1084F0006180010800000000D9410108357E0108B3
:10850000000400000000000000000000000000283F
:1085100000000000000000000000418EBB3200009F
:10852000000000000000000000000000000000014A
:1085300000000000764876480000DC8376480000A2
:108540000000000000BE0AE00D782D0668400824F7
:10855000400000D35840641EFAD1491C521E002A24
:10856000F2D1704710B503460020444C20604448C7
:108570006060444860602046C06910F0040F08D174
:1085800045F25550404C20600620606040F6FF7078
:10859000A060002010BD01463848006940F080000E
:1085A000364A1061002070473448006940F00400EA
:1085B000324908610846006940F04000086103E064
:1085C0004AF6AA20304908602C48C06810F0010F14
:1085D000F6D12A48006920F00400284908610020EB
:1085E000704701462548006940F00200234A1061A7
:1085F00010464161006940F04000106103E04AF616
:10860000AA20214A10601D48C06810F0010FF6D161
:108610001A48006920F00200184A106100207047D3
:1086200010B50346481C20F0010122E01348006900
:1086300040F00100114C20611088188000BF0F48E5
:10864000C06810F0010FFAD10C48006920F0010059
:108650000A4C20612046C06810F0140F06D0204656
:10866000C06840F01400E060012010BD9B1C921C0B
:10867000891E0029DAD10020F7E70000002002401F
:1086800023016745AB89EFCD0030004000000000BA
:10869000000000080004000021000020530000201A
:1086A000650000209F000020DD0000200000000089
:1086B000010000204801002000080020000A0020DE
:1086C000000000204C010000448501080004000067
:1086D0000000000000000000000000000102030490
:1086E0000607080900000000010203040000014021
:1086F0000101010040004000400001014000400035
:10870000020240000002400004044000400010004B
:10871000100021201D1701080000000000000000CB
:108720002B17010800000000DDF90008D100010846
:108730000D07010843F6000825F6000800000000B8
:108740000000000000000000000000000000000029
:108750000000000000000000000000000000000019
:10876000000000000000000041F9000800000000C7
:10877000000000000600FF0901A101150026FF000E
:108780007508954009018102954009019102950102
:108790000901B102C000210012011002EF020140E4
:1087A000280D04020001010203010000050F390039
:1087B000021810050038B60834A909A0478BFDA09F
:1087C000768815B665000121001C100500DF60DD0C
:1087D000D88945C74C9CD2659D9E648A9F00000342
:1087E00006AA0020000004030904080341007200E7
:1087F0006D002003550049004E0049004F002D0038
:1088000043004D005300490053002D004400410037
:1088100050001A03300030003000310041003000B9
:1088200030003000300030003000300022036D0096
:10883000620065006400200053006500720069005A
:1088400061006C00200050006F0072007400220371
:108850006D00620065006400200053006500720036
:10886000690061006C00200050006F00720074000D
:108870002003550049004E0049004F002D004300E1
:108880004D005300490053002D00440041005000AA
:108890002E035700650062005500530042003A0065
:1088A000550049004E0049004F002D0043004D0087
:1088B0005300490053002D004400410050001003B4
:1088C0005500530042005F004D005300430000007C
:1088D000080B000202020104090400000102020167
:1088E00004052400100105240103020424020605E6
:1088F000240600000705830310002009040000027D
:108900000A00000507050402100000070584021094
:1089100000000400880004017FFC0A000100000040
:108920001027000000000000CC00000098000000AC
:108930000400000000000000000001010100000030
:108940000100010000000000000000000000000025
:108950000000000000000000000000000000000017
:108960000000000000000000000000000200020003
:1089700001000000000000000000000000000000F6
:1089800000000000000000000000000000000000E7
:1089900000000000000000000300020004000000CE
:1089A00000000000000000000000000000000000C7
:1089B00000000000000000000000000000000000B7
:1089C00000000000000000000000000000000000A7
:1089D0000000000000000000000000000000000097
:108C20000000000000000000000000004E55434C12
:108C3000454F2D46313033524200000053544D69A8
:108C400063726F656C656374726F6E696373000045
:108C5000496E206170706C69636174696F6E207019
:108C6000726F6772616D6D696E6720736563746F93
:108C700072206572617365206661696C65642E009F
:108C8000496E206170706C69636174696F6E2070E9
:108C9000726F6772616D6D696E67206D61737320AD
:108CA0006572617365206661696C65642E00000001
:108CB000496E206170706C69636174696F6E2070B9
:108CC000726F6772616D6D696E6720777269746526
:108CD000206661696C65642E00000000496E2061A9
:108CE00070706C69636174696F6E2070726F677207
:108CF000616D6D696E6720696E697469616C697A0E
:108D00006174696F6E206661696C65642E00000095
:108D1000496E206170706C69636174696F6E207058
:108D2000726F6772616D6D696E6720756E696E69CD
:108D300074206661696C65642E00000054686520CB
:108D40006865782066696C652063616E6E6F74205B
:108D500062652070726F6772616D6D65642E204C64
:108D60006F676963206661696C757265206F636304
:108D700075727265642E00005468652068657820FD
:108D800066696C652063616E6E6F74206265206435
:108D900065636F6465642E20506172736572206C28
:108DA0006F676963206661696C757265206F6363C4
:108DB00075727265642E00005468652068657820BD
:108DC00066696C652063616E6E6F742062652064F5
:108DD00065636F6465642E20436865636B73756DAE
:108DE0002063616C63756C6174696F6E2066616984
:108DF0006C757265206F636375727265642E000016
:108E0000546865206170706C69636174696F6E206D
:108E100066696C6520666F726D6174206973207578
:108E20006E6B6E6F776E20616E642063616E6E6F25
:108E3000742062652070617273656420616E642FB6
:108E40006F722070726F6365737365642E0000002B
:108E5000496E206170706C69636174696F6E207017
:108E6000726F6772616D6D696E67206E6F742073CB
:108E70007570706F72746564206F6E2074686973AA
:108E8000206465766963652E00000000496E2061EC
:108E900070706C69636174696F6E2070726F677255
:108EA000616D6D696E67206661696C6564206265DD
:108EB000636175736520746865207570646174659D
:108EC0002073656E742077617320696E636F6D70B7
:108ED0006C6574652E0000005468652073746172BF
:108EE00074696E67206164647265737320666F7263
:108EF0002074686520696E746572666163652075AB
:108F000070646174652069732077726F6E672E00DC
:108F1000546865207374617274696E67206164645B
:108F20007265737320666F722074686520626F6F5C
:108F3000746C6F616465722075706461746520691A
:108F4000732077726F6E672E0000000054686520F2
:108F5000626F6F746C6F616465722043524320646A
:108F60006964206E6F7420706173732E00000000BE
:108F7000496E206170706C69636174696F6E2070F6
:108F8000726F6772616D6D696E672061626F727476
:108F900065642064756520746F20616E206F757440
:108FA000206F6620626F756E647320616464726501
:108FB00073732E00546865206865782066696C6557
:108FC000206F6666736574206C6F616420616464F1
:108FD00072657373206973206E6F7420636F727291
:108FE0006563742E00000000546865206170706C29
:108FF00069636174696F6E20696D6167652069736B
:10900000206E6F7420636F6D70617469626C65208F
:109010007769746820746865207461726765742E5E
:1090200000000000546865207472616E736665729A
:109030002074696D6564206F75742E0046696C65D7
:109040002073656E74206F7574206F66206F726474
:1090500065722062792050432E20546172676574D6
:10906000206D69676874206E6F742062652070726D
:109070006F6772616D6D656420636F727265637492
:109080006C792E00466C61736820616C676F726941
:1090900074686D20777269746520636F6D6D616EA1
:1090A00064204641494C555245000000466C6173AE
:1090B0006820616C676F726974686D206572617396
:1090C0006520616C6C20636F6D6D616E642046413C
:1090D000494C555245000000466C61736820616C34
:1090E000676F726974686D2065726173652073655E
:1090F00063746F7220636F6D6D616E6420464149C9
:109100004C55524500000000466C61736820616C4C
:10911000676F726974686D2077726974652076650F
:109120007269667920636F6D6D616E642046414996
:109130004C55524500000000546865206865782051
:1091400066696C6520796F752064726F70706564F4
:109150002069736E277420636F6D70617469626C2F
:109160006520776974682074686973206D6F646521
:10917000206F72206465766963652E2041726520D8
:10918000796F7520696E204D41494E54454E414ED0
:109190004345206D6F64653F205365652048454C0D
:1091A00050204641512E48544D0000004661696CE4
:1091B000656420746F20696E697469616C697A6591
:1091C0002074686520746172676574204D43550092
:1091D0004661696C656420746F20756E696E697490
:1091E00069616C697A65207468652074617267656D
:1091F00074204D43550000004661696C656420741D
:109200006F2072657365742F68616C742074686573
:1092100020746172676574204D43550050726F670A
:1092200072616D6D696E672061626F727465643A18
:1092300020696D61676520776F756C64206C6F6362
:109240006B20746172676574204D43550000000007
:109250004661696C656420746F20646F776E6C6F13
:10926000616420666C61736820616C676F726974F9
:10927000686D20746F20746172676574204D43556A
:1092800000000000456E64206F6620737472656193
:109290006D20686173206265656E20726561636828
:1092A000656400004661696C656420746F20646FBA
:1092B000776E6C6F61642074686520666C6173689A
:1092C000206461746120636F6E74656E74732074C2
:1092D0006F2062652070726F6772616D6D656400EA
:1092E000506F737369626C65206D69736D6174632F
:1092F00068206265747765656E2066696C652073A9
:10930000697A6520616E642073697A652070726F76
:109310006772616D6D656400416E20696E7465727F
:109320006E616C206572726F7220686173206F636A
:109330006375727265640000416E206572726F72AF
:1093400020686173206F636375727265640000004A
:109350004661696C656420746F20756E6C6F636B19
:1093600020746172676574204D435520666F7220CA
:1093700070726F6772616D6D696E67004F706572B4
:109380006174696F6E2077617320737563636573B1
:109390007366756C00000000466C61736820616C38
:1093A000676F726974686D206D697373696E672089
:1093B000666F72206120726567696F6E0000000041
:1093C000456E64206F662073747265616D206973E9
:1093D00020756E6B6E6F776E00000000416E206529
:1093E00072726F72206F6363757272656420647548
:1093F00072696E6720746865207472616E73666549
:10940000720000000000000023204441504C696EAF
:109410006B204669726D77617265202D20736565DA
:109420002068747470733A2F2F6461706C696E6B6E
:109430002E696F0D0A4275696C642049443A2035E3
:10944000363663656538202861726D63632C206C45
:109450006F63616C206D6F6473290D0A000000005A
:109460004120626F6F746C6F616465722075706407
:109470006174652077617320737461727465642010
:1094800062757420756E61626C6520746F20636F05
:109490006D706C6574652E0D0A52656C6F61642089
:1094A00074686520626F6F746C6F6164657220749C
:1094B0006F206669782074686973206572726F72B4
:1094C000206D6573736167652E0D0A00476974200E
:1094D0005348413A2035363663656538643536324F
:1094E000633863333337663338343532613231624F
:1094F000343164663661363236366166320D0A4C76
:109500006F63616C204D6F64733A20310D0A5553BF
:109510004220496E74657266616365733A204D53EB
:10952000442C204344432C204849442C2057656256
:109530005553420D0A0000003C21646F637479703A
:10954000652068746D6C3E0D0A3C212D2D206D62E6
:10955000656420506C6174666F726D20576562732C
:1095600069746520616E642041757468656E746904
:10957000636174696F6E2053686F727463757420D1
:109580002D2D3E0D0A3C68746D6C3E0D0A3C6865DD
:1095900061643E0D0A3C6D6574612063686172739D
:1095A00065743D227574662D38223E0D0A3C74693F
:1095B000746C653E6D62656420576562736974659D
:1095C0002053686F72746375743C2F7469746C6592
:1095D0003E0D0A3C2F686561643E0D0A3C626F6473
:1095E000793E0D0A3C7363726970743E0D0A7769A7
:1095F0006E646F772E6C6F636174696F6E2E726527
:10960000706C6163652822004D53445F4F4E2020EB
:10961000434647004D53445F4F464620434647006C
:109620004F56464C5F4F4E20434647004155544FDE
:109630005F4F4E2043464700434F4D505F4F4E20F3
:10964000434647004F56464C5F4F46464346470009
:109650004155544F5F4F464643464700434F4D5098
:109660005F4F464643464700484152445F52535479
:10967000434647004155544F5F52535443464700B9
:109680004552415345202020414354004153534506
:1096900052542020414354005245465245534820DD
:1096A00041435400504147455F4F4E2041435400D1
:1096B000504147455F4F464641435400696E7465CB
:1096C0007266616365000000696E7465726E616C3C
:1096D000000000007573657200000000746172671D
:1096E000657400007472616E7369656E74000000C9
:1096F00053544D3332463130335242004D4245448B
:1097000020202020564653202020202020202020CA
:1097100020202020302E3100389701080000002042
:109720005405000028C10008A09801085405002035
:10973000D42A000084C10008213808010102060271
:109740000208013A04063F010106060604017A10E8
:109750000131051F0899969704120101010227049F
:10976000181261210108CD390108A17D0108311DC0
:10977000010873101AD1101E857F01083510018C65
:1097800029E75D90860108EF199C6A020C111A986E
:109790001801B712201A500401C750093C8C010867
:1097A000F096010826A24A048025490D41120512AF
:1097B0006B520A1C0306AA18320212A012141203DA
:1097C000A757494E555342128412041207122A1207
:1097D000441265127612691A63081249126E1A74DD
:1097E00008127212663A611212471A551612443262
:1097F000731250127B123912321243124512361A6A
:10980000340412321A2D1212431A37023A2D121A48
:10981000461C29141A33021A420A12331A31203A0A
:10982000422612351A410229181239527D1AFCC8F3
:1098300040292C03016F732E6D6265642E636F6D7A
:109840002F7765627573622F6C616E64696E672D28
:10985000706167652F3F6269643DCA132C0116125F
:1098600060023C401E408901086C041A98041AC426
:10987000041AF0041E1C8A0108A0041A48041A7471
:10988000041ACC041AF8041E248B010850041A7C14
:10989000041AA8041AD404111D8C0108FF0101D078
:1098A000FFFFFFFFFFFFFFFFFFFFFFFFFFFFFFFFC8
:1098B000FFFFFFFFFFFFFFFFFFFFFFFFFFFFFFFFB8
:1098C000FFFFFFFFFFFFFFFFFFFFFFFFFFFFFFFFA8
:1098D000FFFFFFFFFFFFFFFFFFFFFFFFFFFFFFFF98
:040000050800C0ED42
:00000001FF
